{
  "contractName": "CryptoArcade",
  "abi": [
    {
      "constant": false,
      "inputs": [],
      "name": "unpause",
      "outputs": [],
      "payable": false,
      "stateMutability": "nonpayable",
      "type": "function"
    },
    {
      "constant": true,
      "inputs": [
        {
          "name": "account",
          "type": "address"
        }
      ],
      "name": "isPauser",
      "outputs": [
        {
          "name": "",
          "type": "bool"
        }
      ],
      "payable": false,
      "stateMutability": "view",
      "type": "function"
    },
    {
      "constant": true,
      "inputs": [],
      "name": "paused",
      "outputs": [
        {
          "name": "",
          "type": "bool"
        }
      ],
      "payable": false,
      "stateMutability": "view",
      "type": "function"
    },
    {
      "constant": false,
      "inputs": [],
      "name": "renouncePauser",
      "outputs": [],
      "payable": false,
      "stateMutability": "nonpayable",
      "type": "function"
    },
    {
      "constant": false,
      "inputs": [],
      "name": "renounceOwnership",
      "outputs": [],
      "payable": false,
      "stateMutability": "nonpayable",
      "type": "function"
    },
    {
      "constant": false,
      "inputs": [
        {
          "name": "account",
          "type": "address"
        }
      ],
      "name": "addPauser",
      "outputs": [],
      "payable": false,
      "stateMutability": "nonpayable",
      "type": "function"
    },
    {
      "constant": false,
      "inputs": [],
      "name": "pause",
      "outputs": [],
      "payable": false,
      "stateMutability": "nonpayable",
      "type": "function"
    },
    {
      "constant": true,
      "inputs": [],
      "name": "owner",
      "outputs": [
        {
          "name": "",
          "type": "address"
        }
      ],
      "payable": false,
      "stateMutability": "view",
      "type": "function"
    },
    {
      "constant": true,
      "inputs": [],
      "name": "isOwner",
      "outputs": [
        {
          "name": "",
          "type": "bool"
        }
      ],
      "payable": false,
      "stateMutability": "view",
      "type": "function"
    },
    {
      "constant": false,
      "inputs": [
        {
          "name": "newOwner",
          "type": "address"
        }
      ],
      "name": "transferOwnership",
      "outputs": [],
      "payable": false,
      "stateMutability": "nonpayable",
      "type": "function"
    },
    {
      "inputs": [
        {
          "name": "_name",
          "type": "string"
        },
        {
          "name": "_creator",
          "type": "address"
        },
        {
          "name": "_price",
          "type": "uint256"
        }
      ],
      "payable": false,
      "stateMutability": "nonpayable",
      "type": "constructor"
    },
    {
      "payable": true,
      "stateMutability": "payable",
      "type": "fallback"
    },
    {
      "anonymous": false,
      "inputs": [
        {
          "indexed": true,
          "name": "creator",
          "type": "address"
        },
        {
          "indexed": false,
          "name": "gameName",
          "type": "string"
        },
        {
          "indexed": false,
          "name": "price",
          "type": "uint256"
        }
      ],
      "name": "LogGameRegistered",
      "type": "event"
    },
    {
      "anonymous": false,
      "inputs": [
        {
          "indexed": true,
          "name": "player",
          "type": "address"
        },
        {
          "indexed": false,
          "name": "gameId",
          "type": "uint256"
        }
      ],
      "name": "LogMatchPurchased",
      "type": "event"
    },
    {
      "anonymous": false,
      "inputs": [
        {
          "indexed": true,
          "name": "player",
          "type": "address"
        },
        {
          "indexed": true,
          "name": "gameId",
          "type": "uint256"
        },
        {
          "indexed": true,
          "name": "matchId",
          "type": "uint256"
        }
      ],
      "name": "LogMatchStarted",
      "type": "event"
    },
    {
      "anonymous": false,
      "inputs": [
        {
          "indexed": true,
          "name": "player",
          "type": "address"
        },
        {
          "indexed": true,
          "name": "gameId",
          "type": "uint256"
        },
        {
          "indexed": true,
          "name": "matchId",
          "type": "uint256"
        }
      ],
      "name": "LogMatchFinished",
      "type": "event"
    },
    {
      "anonymous": false,
      "inputs": [
        {
          "indexed": true,
          "name": "player",
          "type": "address"
        },
        {
          "indexed": true,
          "name": "gameId",
          "type": "uint256"
        },
        {
          "indexed": false,
          "name": "score",
          "type": "uint256"
        }
      ],
      "name": "LogNewRecord",
      "type": "event"
    },
    {
      "anonymous": false,
      "inputs": [
        {
          "indexed": true,
          "name": "player",
          "type": "address"
        },
        {
          "indexed": false,
          "name": "amount",
          "type": "uint256"
        }
      ],
      "name": "LogRewardReleased",
      "type": "event"
    },
    {
      "anonymous": false,
      "inputs": [
        {
          "indexed": false,
          "name": "account",
          "type": "address"
        }
      ],
      "name": "Paused",
      "type": "event"
    },
    {
      "anonymous": false,
      "inputs": [
        {
          "indexed": false,
          "name": "account",
          "type": "address"
        }
      ],
      "name": "Unpaused",
      "type": "event"
    },
    {
      "anonymous": false,
      "inputs": [
        {
          "indexed": true,
          "name": "account",
          "type": "address"
        }
      ],
      "name": "PauserAdded",
      "type": "event"
    },
    {
      "anonymous": false,
      "inputs": [
        {
          "indexed": true,
          "name": "account",
          "type": "address"
        }
      ],
      "name": "PauserRemoved",
      "type": "event"
    },
    {
      "anonymous": false,
      "inputs": [
        {
          "indexed": true,
          "name": "previousOwner",
          "type": "address"
        },
        {
          "indexed": true,
          "name": "newOwner",
          "type": "address"
        }
      ],
      "name": "OwnershipTransferred",
      "type": "event"
    },
    {
      "constant": false,
      "inputs": [
        {
          "name": "_name",
          "type": "string"
        },
        {
          "name": "_creator",
          "type": "address"
        },
        {
          "name": "_price",
          "type": "uint256"
        }
      ],
      "name": "registerGame",
      "outputs": [
        {
          "name": "",
          "type": "uint256"
        }
      ],
      "payable": false,
      "stateMutability": "nonpayable",
      "type": "function"
    },
    {
      "constant": false,
      "inputs": [
        {
          "name": "_gameId",
          "type": "uint256"
        }
      ],
      "name": "activateGame",
      "outputs": [],
      "payable": false,
      "stateMutability": "nonpayable",
      "type": "function"
    },
    {
      "constant": false,
      "inputs": [
        {
          "name": "_gameId",
          "type": "uint256"
        }
      ],
      "name": "deactivateGame",
      "outputs": [],
      "payable": false,
      "stateMutability": "nonpayable",
      "type": "function"
    },
    {
      "constant": true,
      "inputs": [
        {
          "name": "_gameId",
          "type": "uint256"
        }
      ],
      "name": "matchPrice",
      "outputs": [
        {
          "name": "",
          "type": "uint256"
        }
      ],
      "payable": false,
      "stateMutability": "view",
      "type": "function"
    },
    {
      "constant": false,
      "inputs": [
        {
          "name": "_gameId",
          "type": "uint256"
        }
      ],
      "name": "purchaseMatch",
      "outputs": [
        {
          "name": "matchId",
          "type": "uint256"
        }
      ],
      "payable": true,
      "stateMutability": "payable",
      "type": "function"
    },
    {
      "constant": true,
      "inputs": [
        {
          "name": "_gameId",
          "type": "uint256"
        }
      ],
      "name": "getNumberOfAvailableMatches",
      "outputs": [
        {
          "name": "",
          "type": "uint256"
        }
      ],
      "payable": false,
      "stateMutability": "view",
      "type": "function"
    },
    {
      "constant": true,
      "inputs": [
        {
          "name": "_gameId",
          "type": "uint256"
        }
      ],
      "name": "getGameMatchScore",
      "outputs": [
        {
          "name": "",
          "type": "uint256"
        }
      ],
      "payable": false,
      "stateMutability": "view",
      "type": "function"
    },
    {
      "constant": false,
      "inputs": [
        {
          "name": "_gameId",
          "type": "uint256"
        }
      ],
      "name": "playMatch",
      "outputs": [
        {
          "name": "matchId",
          "type": "uint256"
        }
      ],
      "payable": false,
      "stateMutability": "nonpayable",
      "type": "function"
    },
    {
      "constant": false,
      "inputs": [
        {
          "name": "_gameId",
          "type": "uint256"
        },
        {
          "name": "_score",
          "type": "uint256"
        }
      ],
      "name": "matchPlayed",
      "outputs": [
        {
          "name": "shares",
          "type": "uint256"
        }
      ],
      "payable": false,
      "stateMutability": "nonpayable",
      "type": "function"
    },
    {
      "constant": true,
      "inputs": [
        {
          "name": "_gameId",
          "type": "uint256"
        },
        {
          "name": "_pos",
          "type": "uint256"
        }
      ],
      "name": "getRecordEntryAddress",
      "outputs": [
        {
          "name": "",
          "type": "address"
        }
      ],
      "payable": false,
      "stateMutability": "view",
      "type": "function"
    },
    {
      "constant": true,
      "inputs": [
        {
          "name": "_gameId",
          "type": "uint256"
        },
        {
          "name": "_pos",
          "type": "uint256"
        }
      ],
      "name": "getRecordEntryScore",
      "outputs": [
        {
          "name": "",
          "type": "uint256"
        }
      ],
      "payable": false,
      "stateMutability": "view",
      "type": "function"
    },
    {
      "constant": true,
      "inputs": [
        {
          "name": "_gameId",
          "type": "uint256"
        }
      ],
      "name": "playerBalance",
      "outputs": [
        {
          "name": "",
          "type": "uint256"
        }
      ],
      "payable": false,
      "stateMutability": "view",
      "type": "function"
    },
    {
      "constant": false,
      "inputs": [
        {
          "name": "_gameId",
          "type": "uint256"
        },
        {
          "name": "_player",
          "type": "address"
        }
      ],
      "name": "releaseReward",
      "outputs": [
        {
          "name": "",
          "type": "bool"
        }
      ],
      "payable": false,
      "stateMutability": "nonpayable",
      "type": "function"
    }
  ],
  "bytecode": "0x60806040523480156200001157600080fd5b50604051620065fe380380620065fe833981018060405260608110156200003757600080fd5b8101908080516401000000008111156200005057600080fd5b820160208101848111156200006457600080fd5b81516401000000008111828201871017156200007f57600080fd5b5050602082015160409283015160008054600160a060020a0319163317808255945193965091945092600160a060020a0316917f8be0079c531659141344cd1fd0a4f28419497f9722a3daafe3b4186f6b6457e0908290a3620000eb33640100000000620002a9810204565b6002805460ff1916905560048054600181019091558383836200010d62000462565b808060200184600160a060020a0316600160a060020a03168152602001838152602001828103825285818151815260200191508051906020019080838360005b83811015620001675781810151838201526020016200014d565b50505050905090810190601f168015620001955780820380516001836020036101000a031916815260200191505b50945050505050604051809103906000f080158015620001b9573d6000803e3d6000fd5b506003600083815260200190815260200160002060006101000a815481600160a060020a030219169083600160a060020a0316021790555082600160a060020a03167f14526de0752890cf450bcd332ecf0032c18db573ff4e893beed232fe8151048885846040518080602001838152602001828103825284818151815260200191508051906020019080838360005b838110156200026357818101518382015260200162000249565b50505050905090810190601f168015620002915780820380516001836020036101000a031916815260200191505b50935050505060405180910390a25050505062000473565b620002c46001826401000000006200199b620002fb82021704565b604051600160a060020a038216907f6719d08c1888103bea251a4ed56406bd0c3e69723c8a1686e017e7bbe159b6f890600090a250565b620003108282640100000000620003a2810204565b156200037d57604080517f08c379a000000000000000000000000000000000000000000000000000000000815260206004820152601f60248201527f526f6c65733a206163636f756e7420616c72656164792068617320726f6c6500604482015290519081900360640190fd5b600160a060020a0316600090815260209190915260409020805460ff19166001179055565b6000600160a060020a03821615156200044257604080517f08c379a000000000000000000000000000000000000000000000000000000000815260206004820152602260248201527f526f6c65733a206163636f756e7420697320746865207a65726f20616464726560448201527f7373000000000000000000000000000000000000000000000000000000000000606482015290519081900360840190fd5b50600160a060020a03166000908152602091909152604090205460ff1690565b60405161236e806200429083390190565b613e0d80620004836000396000f3fe6080604052600436106200014a5763ffffffff7c0100000000000000000000000000000000000000000000000000000000600035041663188d693b81146200014c57806331e121d2146200014c5780633f4ba83a146200018c57806346fbf68e14620001a45780635c975abb14620001ef57806365f77f0d14620002075780636ef8d66d1462000227578063715018a6146200023f578063788ffc64146200025757806382dc1ec414620002855780638456cb5914620002bc578063846161ac14620002d457806387249d0814620003245780638da5cb5b14620003525780638f32d59b146200036a57806394f7a5e71462000382578063979a1f9014620003b65780639884e02814620003e4578063993f1a1d1462000418578063cb271fe814620004e0578063f2fde38b146200050e578063f6a0adb01462000545578063faabd70e1462000582575b005b3480156200015957600080fd5b506200017a600480360360208110156200017257600080fd5b5035620005b0565b60408051918252519081900360200190f35b3480156200019957600080fd5b506200014a62000651565b348015620001b157600080fd5b50620001db60048036036020811015620001ca57600080fd5b5035600160a060020a031662000775565b604080519115158252519081900360200190f35b348015620001fc57600080fd5b50620001db62000790565b6200017a600480360360208110156200021f57600080fd5b503562000799565b3480156200023457600080fd5b506200014a6200099a565b3480156200024c57600080fd5b506200014a620009a7565b3480156200026457600080fd5b506200014a600480360360208110156200027d57600080fd5b503562000a4e565b3480156200029257600080fd5b506200014a60048036036020811015620002ab57600080fd5b5035600160a060020a031662000b6b565b348015620002c957600080fd5b506200014a62000c01565b348015620002e157600080fd5b506200030860048036036040811015620002fa57600080fd5b508035906020013562000d16565b60408051600160a060020a039092168252519081900360200190f35b3480156200033157600080fd5b506200014a600480360360208110156200034a57600080fd5b503562000e4b565b3480156200035f57600080fd5b506200030862000f4c565b3480156200037757600080fd5b50620001db62000f5b565b3480156200038f57600080fd5b506200017a60048036036040811015620003a857600080fd5b508035906020013562000f6c565b348015620003c357600080fd5b506200017a60048036036020811015620003dc57600080fd5b503562001088565b348015620003f157600080fd5b506200017a600480360360408110156200040a57600080fd5b5080359060200135620010ef565b3480156200042557600080fd5b506200017a600480360360608110156200043e57600080fd5b8101906020810181356401000000008111156200045a57600080fd5b8201836020820111156200046d57600080fd5b803590602001918460018302840111640100000000831117156200049057600080fd5b91908080601f01602080910402602001604051908101604052809392919081815260200183838082843760009201919091525092955050600160a060020a038335169350505060200135620011ef565b348015620004ed57600080fd5b506200017a600480360360208110156200050657600080fd5b50356200143e565b3480156200051b57600080fd5b506200014a600480360360208110156200053457600080fd5b5035600160a060020a031662001511565b3480156200055257600080fd5b50620001db600480360360408110156200056b57600080fd5b5080359060200135600160a060020a03166200156c565b3480156200058f57600080fd5b506200017a60048036036020811015620005a857600080fd5b503562001657565b60008181526003602090815260408083205481517f8c3255130000000000000000000000000000000000000000000000000000000081523360048201529151600160a060020a0390911692638c3255139260248082019391829003018186803b1580156200061d57600080fd5b505afa15801562000632573d6000803e3d6000fd5b505050506040513d60208110156200064957600080fd5b505192915050565b6200065c3362000775565b1515620006d9576040805160e560020a62461bcd02815260206004820152603060248201527f506175736572526f6c653a2063616c6c657220646f6573206e6f74206861766560448201527f207468652050617573657220726f6c6500000000000000000000000000000000606482015290519081900360840190fd5b60025460ff16151562000736576040805160e560020a62461bcd02815260206004820152601460248201527f5061757361626c653a206e6f7420706175736564000000000000000000000000604482015290519081900360640190fd5b6002805460ff191690556040805133815290517f5db9ee0a495bf2e6ff9c91a7834c1ba4fdd244a5e8aa4e537bd38aeae4b073aa9181900360200190a1565b60006200078a60018363ffffffff620016c416565b92915050565b60025460ff1690565b600254600090829060ff1615620007e9576040805160e560020a62461bcd028152602060048201526010602482015260008051602062003dc2833981519152604482015290519081900360640190fd5b6000838152600360209081526040918290205482517f692518780000000000000000000000000000000000000000000000000000000081523360048201529251600160a060020a0390911692636925187892349260248084019382900301818588803b1580156200085957600080fd5b505af11580156200086e573d6000803e3d6000fd5b50505050506040513d60208110156200088657600080fd5b505160408051858152905191935033917fcf402ba57d6b49f3c616ca616aae947612b95e6f81611a0dfa5bb93b1c57c6769181900360200190a260008181526003602090815260408083205481517f5039dd770000000000000000000000000000000000000000000000000000000081529151600160a060020a0390911692635039dd779260048082019391829003018186803b1580156200092757600080fd5b505afa1580156200093c573d6000803e3d6000fd5b505050506040513d60208110156200095357600080fd5b50513403905060008111156200099357604051339082156108fc029083906000818181858888f1935050505015801562000991573d6000803e3d6000fd5b505b5050919050565b620009a5336200176d565b565b620009b162000f5b565b1515620009f7576040805160e560020a62461bcd028152602060048201819052602482015260008051602062003da2833981519152604482015290519081900360640190fd5b60008054604051600160a060020a03909116907f8be0079c531659141344cd1fd0a4f28419497f9722a3daafe3b4186f6b6457e0908390a36000805473ffffffffffffffffffffffffffffffffffffffff19169055565b62000a5862000f5b565b151562000a9e576040805160e560020a62461bcd028152602060048201819052602482015260008051602062003da2833981519152604482015290519081900360640190fd5b60025460ff161562000ae9576040805160e560020a62461bcd028152602060048201526010602482015260008051602062003dc2833981519152604482015290519081900360640190fd5b6000818152600360205260408082205481517f2ee99d500000000000000000000000000000000000000000000000000000000081529151600160a060020a0390911692632ee99d50926004808201939182900301818387803b15801562000b4f57600080fd5b505af115801562000b64573d6000803e3d6000fd5b5050505050565b62000b763362000775565b151562000bf3576040805160e560020a62461bcd02815260206004820152603060248201527f506175736572526f6c653a2063616c6c657220646f6573206e6f74206861766560448201527f207468652050617573657220726f6c6500000000000000000000000000000000606482015290519081900360840190fd5b62000bfe81620017b7565b50565b62000c0c3362000775565b151562000c89576040805160e560020a62461bcd02815260206004820152603060248201527f506175736572526f6c653a2063616c6c657220646f6573206e6f74206861766560448201527f207468652050617573657220726f6c6500000000000000000000000000000000606482015290519081900360840190fd5b60025460ff161562000cd4576040805160e560020a62461bcd028152602060048201526010602482015260008051602062003dc2833981519152604482015290519081900360640190fd5b6002805460ff191660011790556040805133815290517f62e78cea01bee320cd4e420270b5ea74000d11b0c9f74754ebdbfc544b05a2589181900360200190a1565b6000600a8210801562000d2a575060008210155b151562000da6576040805160e560020a62461bcd028152602060048201526024808201527f54686520706f736974696f6e206d757374206265206265747765656e2030206160448201527f6e64203900000000000000000000000000000000000000000000000000000000606482015290519081900360840190fd5b6000838152600360209081526040918290205482517ff1fa0d37000000000000000000000000000000000000000000000000000000008152600481018690529251600160a060020a039091169263f1fa0d37926024808301939192829003018186803b15801562000e1657600080fd5b505afa15801562000e2b573d6000803e3d6000fd5b505050506040513d602081101562000e4257600080fd5b50519392505050565b62000e5562000f5b565b151562000e9b576040805160e560020a62461bcd028152602060048201819052602482015260008051602062003da2833981519152604482015290519081900360640190fd5b60025460ff161562000ee6576040805160e560020a62461bcd028152602060048201526010602482015260008051602062003dc2833981519152604482015290519081900360640190fd5b6000818152600360205260408082205481517ff6f14dfe0000000000000000000000000000000000000000000000000000000081529151600160a060020a039091169263f6f14dfe926004808201939182900301818387803b15801562000b4f57600080fd5b600054600160a060020a031690565b600054600160a060020a0316331490565b60008281526003602090815260408083205481517f7719c46d000000000000000000000000000000000000000000000000000000008152336004820152602481018690529151600160a060020a0390911692637719c46d926044808201939182900301818787803b15801562000fe157600080fd5b505af115801562000ff6573d6000803e3d6000fd5b505050506040513d60208110156200100d57600080fd5b5051905060008111156200105357604080518381529051849133917f3fca1d31761045824cfd4568d16a2c117202650a2125a521cbf48ddeb50d63359181900360200190a35b6040518290849033907f725bb71fa1c0e9aad021f1b01d89ea590199cc9ca40aed58cf1817f9333ea79190600090a492915050565b60008181526003602090815260408083205481517f5039dd770000000000000000000000000000000000000000000000000000000081529151600160a060020a0390911692635039dd779260048082019391829003018186803b1580156200061d57600080fd5b6000600a8210801562001103575060008210155b15156200117f576040805160e560020a62461bcd028152602060048201526024808201527f54686520706f736974696f6e206d757374206265206265747765656e2030206160448201527f6e64203900000000000000000000000000000000000000000000000000000000606482015290519081900360840190fd5b6000838152600360209081526040918290205482517f7cbf4f29000000000000000000000000000000000000000000000000000000008152600481018690529251600160a060020a0390911692637cbf4f29926024808301939192829003018186803b15801562000e1657600080fd5b6000620011fb62000f5b565b151562001241576040805160e560020a62461bcd028152602060048201819052602482015260008051602062003da2833981519152604482015290519081900360640190fd5b60025460ff16156200128c576040805160e560020a62461bcd028152602060048201526010602482015260008051602062003dc2833981519152604482015290519081900360640190fd5b6004805460018101909155848484620012a462001a22565b808060200184600160a060020a0316600160a060020a03168152602001838152602001828103825285818151815260200191508051906020019080838360005b83811015620012fe578181015183820152602001620012e4565b50505050905090810190601f1680156200132c5780820380516001836020036101000a031916815260200191505b50945050505050604051809103906000f08015801562001350573d6000803e3d6000fd5b506003600083815260200190815260200160002060006101000a815481600160a060020a030219169083600160a060020a0316021790555083600160a060020a03167f14526de0752890cf450bcd332ecf0032c18db573ff4e893beed232fe8151048886856040518080602001838152602001828103825284818151815260200191508051906020019080838360005b83811015620013fa578181015183820152602001620013e0565b50505050905090810190601f168015620014285780820380516001836020036101000a031916815260200191505b50935050505060405180910390a2509392505050565b60008181526003602090815260408083205481517f967441470000000000000000000000000000000000000000000000000000000081523360048201529151600160a060020a03909116926396744147926024808201939182900301818787803b158015620014ac57600080fd5b505af1158015620014c1573d6000803e3d6000fd5b505050506040513d6020811015620014d857600080fd5b50516040519091508190839033907f3b34e37adc3645ad2bad83af028feb943bfc7c6c5215c236e6c4eca39da8166d90600090a4919050565b6200151b62000f5b565b151562001561576040805160e560020a62461bcd028152602060048201819052602482015260008051602062003da2833981519152604482015290519081900360640190fd5b62000bfe8162001801565b60008281526003602090815260408083205481517f456cc3e8000000000000000000000000000000000000000000000000000000008152600160a060020a03868116600483015292518594939092169263456cc3e89260248084019382900301818787803b158015620015de57600080fd5b505af1158015620015f3573d6000803e3d6000fd5b505050506040513d60208110156200160a57600080fd5b5051604080518281529051919250600160a060020a038516917fb51b2c60dc4dc89cebf9a83cd183921dd13c23edeec74c110a543d18f79005ee9181900360200190a25060019392505050565b60008181526003602090815260408083205481517f4e33f83b0000000000000000000000000000000000000000000000000000000081523360048201529151600160a060020a0390911692634e33f83b9260248082019391829003018186803b1580156200061d57600080fd5b6000600160a060020a03821615156200174d576040805160e560020a62461bcd02815260206004820152602260248201527f526f6c65733a206163636f756e7420697320746865207a65726f20616464726560448201527f7373000000000000000000000000000000000000000000000000000000000000606482015290519081900360840190fd5b50600160a060020a03166000908152602091909152604090205460ff1690565b6200178060018263ffffffff620018f016565b604051600160a060020a038216907fcd265ebaf09df2871cc7bd4133404a235ba12eff2041bb89d9c714a2621c7c7e90600090a250565b620017ca60018263ffffffff6200199b16565b604051600160a060020a038216907f6719d08c1888103bea251a4ed56406bd0c3e69723c8a1686e017e7bbe159b6f890600090a250565b600160a060020a038116151562001888576040805160e560020a62461bcd02815260206004820152602660248201527f4f776e61626c653a206e6577206f776e657220697320746865207a65726f206160448201527f6464726573730000000000000000000000000000000000000000000000000000606482015290519081900360840190fd5b60008054604051600160a060020a03808516939216917f8be0079c531659141344cd1fd0a4f28419497f9722a3daafe3b4186f6b6457e091a36000805473ffffffffffffffffffffffffffffffffffffffff1916600160a060020a0392909216919091179055565b620018fc8282620016c4565b151562001979576040805160e560020a62461bcd02815260206004820152602160248201527f526f6c65733a206163636f756e7420646f6573206e6f74206861766520726f6c60448201527f6500000000000000000000000000000000000000000000000000000000000000606482015290519081900360840190fd5b600160a060020a0316600090815260209190915260409020805460ff19169055565b620019a78282620016c4565b15620019fd576040805160e560020a62461bcd02815260206004820152601f60248201527f526f6c65733a206163636f756e7420616c72656164792068617320726f6c6500604482015290519081900360640190fd5b600160a060020a0316600090815260209190915260409020805460ff19166001179055565b60405161236e8062001a348339019056fe60806040523480156200001157600080fd5b506040516200236e3803806200236e833981018060405260608110156200003757600080fd5b8101908080516401000000008111156200005057600080fd5b820160208101848111156200006457600080fd5b81516401000000008111828201871017156200007f57600080fd5b5050602082015160409283015160008054600160a060020a0319163317808255945193965091945092600160a060020a0316917f8be0079c531659141344cd1fd0a4f28419497f9722a3daafe3b4186f6b6457e0908290a38251620000ec906002906020860190620001b9565b5060038054600160a060020a031916600160a060020a03841617905560408051600a8082526101608201909252906020820161014080388339505081516200013c9260049250602001906200023e565b5060006006556200014c6200027b565b604051809103906000f08015801562000169573d6000803e3d6000fd5b506005805460a060020a60ff0219600160a060020a0393909316600160a060020a031990911617919091167401000000000000000000000000000000000000000017905560015550620002ac9050565b828054600181600116156101000203166002900490600052602060002090601f016020900481019282601f10620001fc57805160ff19168380011785556200022c565b828001600101855582156200022c579182015b828111156200022c5782518255916020019190600101906200020f565b506200023a9291506200028c565b5090565b8280548282559060005260206000209081019282156200022c57916020028201828111156200022c5782518255916020019190600101906200020f565b604051610bc080620017ae83390190565b620002a991905b808211156200023a576000815560010162000293565b90565b6114f280620002bc6000396000f3fe6080604052600436106101065763ffffffff7c010000000000000000000000000000000000000000000000000000000060003504166322f3e2d4811461010b5780632ee99d5014610134578063456cc3e81461014b5780634e33f83b146101905780635039dd77146101c35780635fd5eef9146101c357806369251878146101d8578063715018a6146101fe5780637719c46d146102135780637cbf4f291461024c57806386197781146102765780638c325513146102a95780638da5cb5b146102dc5780638f32d59b1461030d5780639674414714610322578063d07e4d8314610355578063f1fa0d371461036a578063f2fde38b14610394578063f6f14dfe146103c7575b600080fd5b34801561011757600080fd5b506101206103dc565b604080519115158252519081900360200190f35b34801561014057600080fd5b506101496103ec565b005b34801561015757600080fd5b5061017e6004803603602081101561016e57600080fd5b5035600160a060020a031661045e565b60408051918252519081900360200190f35b34801561019c57600080fd5b5061017e600480360360208110156101b357600080fd5b5035600160a060020a03166104fb565b3480156101cf57600080fd5b5061017e61057e565b61017e600480360360208110156101ee57600080fd5b5035600160a060020a0316610584565b34801561020a57600080fd5b50610149610829565b34801561021f57600080fd5b5061017e6004803603604081101561023657600080fd5b50600160a060020a0381351690602001356108cc565b34801561025857600080fd5b5061017e6004803603602081101561026f57600080fd5b5035610d43565b34801561028257600080fd5b5061017e6004803603602081101561029957600080fd5b5035600160a060020a0316610e08565b3480156102b557600080fd5b5061017e600480360360208110156102cc57600080fd5b5035600160a060020a0316610e72565b3480156102e857600080fd5b506102f1610f5f565b60408051600160a060020a039092168252519081900360200190f35b34801561031957600080fd5b50610120610f6e565b34801561032e57600080fd5b5061017e6004803603602081101561034557600080fd5b5035600160a060020a0316610f7f565b34801561036157600080fd5b5061017e611110565b34801561037657600080fd5b506102f16004803603602081101561038d57600080fd5b5035611116565b3480156103a057600080fd5b50610149600480360360208110156103b757600080fd5b5035600160a060020a03166111e3565b3480156103d357600080fd5b5061014961123b565b60055460a060020a900460ff1690565b6103f4610f6e565b1515610438576040805160e560020a62461bcd02815260206004820181905260248201526000805160206114a7833981519152604482015290519081900360640190fd5b6005805474ff0000000000000000000000000000000000000000191660a060020a179055565b600554604080517f19165587000000000000000000000000000000000000000000000000000000008152600160a060020a0384811660048301529151600093929092169163191655879160248082019260209290919082900301818787803b1580156104c957600080fd5b505af11580156104dd573d6000803e3d6000fd5b505050506040513d60208110156104f357600080fd5b505192915050565b600554604080517ffc6db4f4000000000000000000000000000000000000000000000000000000008152600160a060020a0384811660048301529151600093929092169163fc6db4f491602480820192602092909190829003018186803b15801561056557600080fd5b505afa1580156104dd573d6000803e3d6000fd5b919050565b60015490565b60055460009060a060020a900460ff161515610610576040805160e560020a62461bcd02815260206004820152602860248201527f43727970746f41726361646547616d653a205468652067616d65206973206e6f60448201527f7420616374697665000000000000000000000000000000000000000000000000606482015290519081900360840190fd5b600154341015610690576040805160e560020a62461bcd02815260206004820152603760248201527f54686520616d6f756e742070616964206973206e6f742073756666696369656e60448201527f7420746f20707572636861736520746865206d61746368000000000000000000606482015290519081900360840190fd5b610698610f6e565b15156106dc576040805160e560020a62461bcd02815260206004820181905260248201526000805160206114a7833981519152604482015290519081900360640190fd5b5060068054600101908190556040805160608101909152600160a060020a038316815260208101600081526000602091820181905283815260078252604090208251815473ffffffffffffffffffffffffffffffffffffffff1916600160a060020a0390911617808255918301519091829074ff0000000000000000000000000000000000000000191660a060020a83600181111561077757fe5b0217905550604091820151600191820155600160a060020a03808516600090815260086020908152848220805480860182559083529082200185905560055492549351929091169280156108fc02929091818181858888f193505050501580156107e5573d6000803e3d6000fd5b506001543403600081111561082357604051339082156108fc029083906000818181858888f19350505050158015610821573d6000803e3d6000fd5b505b50919050565b610831610f6e565b1515610875576040805160e560020a62461bcd02815260206004820181905260248201526000805160206114a7833981519152604482015290519081900360640190fd5b60008054604051600160a060020a03909116907f8be0079c531659141344cd1fd0a4f28419497f9722a3daafe3b4186f6b6457e0908390a36000805473ffffffffffffffffffffffffffffffffffffffff19169055565b60055460009060a060020a900460ff161515610958576040805160e560020a62461bcd02815260206004820152602860248201527f43727970746f41726361646547616d653a205468652067616d65206973206e6f60448201527f7420616374697665000000000000000000000000000000000000000000000000606482015290519081900360840190fd5b610960610f6e565b15156109a4576040805160e560020a62461bcd02815260206004820181905260248201526000805160206114a7833981519152604482015290519081900360640190fd5b6000805b600160a060020a038516600090815260086020526040902054811015610a8857600160a060020a03851660009081526008602052604081208054839081106109ec57fe5b90600052602060002001549050610a01611484565b6000828152600760209081526040918290208251606081019093528054600160a060020a0381168452909183019060a060020a900460ff166001811115610a4457fe5b6001811115610a4f57fe5b815260019182015460209091015290915081602001516001811115610a7057fe5b1415610a7e57509150610a88565b50506001016109a8565b50801515610b06576040805160e560020a62461bcd02815260206004820152603760248201527f4d61746368506c617965643a20546865726520617265206e6f206d617463686560448201527f7320706c6179656420746f206c6f6720616761696e7374000000000000000000606482015290519081900360840190fd5b600081815260076020526040902054600160a060020a03858116911614610b9d576040805160e560020a62461bcd02815260206004820152603260248201527f4d61746368506c617965643a2054686520706c6179657220646964206e6f742060448201527f707572636861736520746865206d617463680000000000000000000000000000606482015290519081900360840190fd5b6000818152600760205260408120805474ff0000000000000000000000000000000000000000191660a060020a178155600101849055610bdc826112a7565b600554604080517f18f9b023000000000000000000000000000000000000000000000000000000008152600160a060020a0389811660048301526024820185905291519394509116916318f9b023916044808201926020929091908290030181600087803b158015610c4d57600080fd5b505af1158015610c61573d6000803e3d6000fd5b505050506040513d6020811015610c7757600080fd5b50516040805160208101879052818152600280546000196101006001831615020116819004928201839052929550600160a060020a038816927f817459fef0397286d149325f99904d000bbbd0f1f515a4fe3c811230b19fcdd592909188918190606082019085908015610d2c5780601f10610d0157610100808354040283529160200191610d2c565b820191906000526020600020905b815481529060010190602001808311610d0f57829003601f168201915b5050935050505060405180910390a2505092915050565b6000600a82108015610d56575060008210155b1515610dd1576040805160e560020a62461bcd028152602060048201526024808201527f54686520706f736974696f6e206d757374206265206265747765656e2030206160448201527f6e64203900000000000000000000000000000000000000000000000000000000606482015290519081900360840190fd5b60076000600484815481101515610de457fe5b90600052602060002001548152602001908152602001600020600101549050919050565b600554604080517f86197781000000000000000000000000000000000000000000000000000000008152600160a060020a03848116600483015291516000939290921691638619778191602480820192602092909190829003018186803b15801561056557600080fd5b600080805b600160a060020a038416600090815260086020526040902054811015610f5857600160a060020a0384166000908152600860205260408120805483908110610ebb57fe5b90600052602060002001549050610ed0611484565b6000828152600760209081526040918290208251606081019093528054600160a060020a0381168452909183019060a060020a900460ff166001811115610f1357fe5b6001811115610f1e57fe5b8152600191909101546020909101529050600081602001516001811115610f4157fe5b1415610f4e576001909301925b5050600101610e77565b5092915050565b600054600160a060020a031690565b600054600160a060020a0316331490565b60055460009060a060020a900460ff16151561100b576040805160e560020a62461bcd02815260206004820152602860248201527f43727970746f41726361646547616d653a205468652067616d65206973206e6f60448201527f7420616374697665000000000000000000000000000000000000000000000000606482015290519081900360840190fd5b611013610f6e565b1515611057576040805160e560020a62461bcd02815260206004820181905260248201526000805160206114a7833981519152604482015290519081900360640190fd5b6000805b600160a060020a038416600090815260086020526040902054811015610f5857600160a060020a038416600090815260086020526040812080548390811061109f57fe5b600091825260208083209091015480835260079091526040822090925090815460a060020a900460ff1660018111156110d457fe5b141561110657805474ff0000000000000000000000000000000000000000191660a060020a1790559250610579915050565b505060010161105b565b60015481565b6000600a82108015611129575060008210155b15156111a4576040805160e560020a62461bcd028152602060048201526024808201527f54686520706f736974696f6e206d757374206265206265747765656e2030206160448201527f6e64203900000000000000000000000000000000000000000000000000000000606482015290519081900360840190fd5b600760006004848154811015156111b757fe5b60009182526020808320909101548352820192909252604001902054600160a060020a03169050919050565b6111eb610f6e565b151561122f576040805160e560020a62461bcd02815260206004820181905260248201526000805160206114a7833981519152604482015290519081900360640190fd5b61123881611396565b50565b611243610f6e565b1515611287576040805160e560020a62461bcd02815260206004820181905260248201526000805160206114a7833981519152604482015290519081900360640190fd5b6005805474ff000000000000000000000000000000000000000019169055565b600081815260076020526040812060010154600a825b600454811015611315576000600760006004848154811015156112dc57fe5b906000526020600020015481526020019081526020016000206001015490508084111561130c5781925050611315565b506001016112bd565b5060045481101561138f57600454600019015b818111156113715760048054600019830190811061134257fe5b906000526020600020015460048281548110151561135c57fe5b60009182526020909120015560001901611328565b508360048281548110151561138257fe5b6000918252602090912001555b9392505050565b600160a060020a038116151561141c576040805160e560020a62461bcd02815260206004820152602660248201527f4f776e61626c653a206e6577206f776e657220697320746865207a65726f206160448201527f6464726573730000000000000000000000000000000000000000000000000000606482015290519081900360840190fd5b60008054604051600160a060020a03808516939216917f8be0079c531659141344cd1fd0a4f28419497f9722a3daafe3b4186f6b6457e091a36000805473ffffffffffffffffffffffffffffffffffffffff1916600160a060020a0392909216919091179055565b604080516060810190915260008082526020820190815260200160008152509056fe4f776e61626c653a2063616c6c6572206973206e6f7420746865206f776e6572a165627a7a7230582076ae33de1d50d4e97b5a94e1b688aa2f2241aa4ff04ba07a4d66bfe7016d536f00296080604081905260008054600160a060020a0319163317808255600160a060020a0316917f8be0079c531659141344cd1fd0a4f28419497f9722a3daafe3b4186f6b6457e0908290a3610b69806100576000396000f3fe60806040526004361061008d5763ffffffff7c010000000000000000000000000000000000000000000000000000000060003504166318f9b02381146100c95780631916558714610114578063715018a614610147578063861977811461015e5780638da5cb5b146101915780638f32d59b146101c2578063f2fde38b146101eb578063fc6db4f41461021e575b6040805133815234602082015281517f6ef95f06320e7a25a04a175ca677b7052bdd97131872c2192525a629f51be770929181900390910190a1005b3480156100d557600080fd5b50610102600480360360408110156100ec57600080fd5b50600160a060020a038135169060200135610251565b60408051918252519081900360200190f35b34801561012057600080fd5b506101026004803603602081101561013757600080fd5b5035600160a060020a03166103f3565b34801561015357600080fd5b5061015c610655565b005b34801561016a57600080fd5b506101026004803603602081101561018157600080fd5b5035600160a060020a031661070a565b34801561019d57600080fd5b506101a6610725565b60408051600160a060020a039092168252519081900360200190f35b3480156101ce57600080fd5b506101d7610734565b604080519115158252519081900360200190f35b3480156101f757600080fd5b5061015c6004803603602081101561020e57600080fd5b5035600160a060020a0316610745565b34801561022a57600080fd5b506101026004803603602081101561024157600080fd5b5035600160a060020a03166107af565b600061025b610734565b15156102b1576040805160e560020a62461bcd02815260206004820181905260248201527f4f776e61626c653a2063616c6c6572206973206e6f7420746865206f776e6572604482015290519081900360640190fd5b600160a060020a0383161515610337576040805160e560020a62461bcd02815260206004820152602b60248201527f52657761726453706c69747465723a206163636f756e7420697320746865207a60448201527f65726f2061646472657373000000000000000000000000000000000000000000606482015290519081900360840190fd5b610340826107ca565b905060008111156103ed57600160a060020a038316600090815260036020526040902054610374908263ffffffff61088016565b600160a060020a0384166000908152600360205260409020556001546103a0908263ffffffff61088016565b60015560408051600160a060020a03851681526020810184905280820183905290517fb3c52e7e1d58db9d4d5f530a5a71ac54a2fd63e3fcaed60f24c35adf352c21e19181900360600190a15b92915050565b600160a060020a0381166000908152600360205260408120548110610488576040805160e560020a62461bcd02815260206004820152602560248201527f52657761726453706c69747465723a206163636f756e7420686173206e6f207360448201527f6861726573000000000000000000000000000000000000000000000000000000606482015290519081900360840190fd5b6002546000906104a09030319063ffffffff61088016565b600160a060020a03841660009081526004602090815260408083205460015460039093529220549293506104fc926104f091906104e490869063ffffffff6108e416565b9063ffffffff61098016565b9063ffffffff6109ef16565b91506000821161057c576040805160e560020a62461bcd02815260206004820152602a60248201527f52657761726453706c69747465723a206163636f756e74206973206e6f74206460448201527f7565207061796d656e7400000000000000000000000000000000000000000000606482015290519081900360840190fd5b600160a060020a0383166000908152600460205260409020546105a5908363ffffffff61088016565b600160a060020a0384166000908152600460205260409020556002546105d1908363ffffffff61088016565b600255604051600160a060020a0384169083156108fc029084906000818181858888f1935050505015801561060a573d6000803e3d6000fd5b5060408051600160a060020a03851681526020810184905281517fdf20fd1e76bc69d672e4814fafb2c449bba3a5369d8359adf9e05e6fde87b056929181900390910190a150919050565b61065d610734565b15156106b3576040805160e560020a62461bcd02815260206004820181905260248201527f4f776e61626c653a2063616c6c6572206973206e6f7420746865206f776e6572604482015290519081900360640190fd5b60008054604051600160a060020a03909116907f8be0079c531659141344cd1fd0a4f28419497f9722a3daafe3b4186f6b6457e0908390a36000805473ffffffffffffffffffffffffffffffffffffffff19169055565b600160a060020a031660009081526004602052604090205490565b600054600160a060020a031690565b600054600160a060020a0316331490565b61074d610734565b15156107a3576040805160e560020a62461bcd02815260206004820181905260248201527f4f776e61626c653a2063616c6c6572206973206e6f7420746865206f776e6572604482015290519081900360640190fd5b6107ac81610a4f565b50565b600160a060020a031660009081526003602052604090205490565b6000818015610824576001811461082d5760028114610836576003811461083f57600481146108485760058114610851576006811461085a5760078114610863576008811461086c5760098114610875576000915061087a565b6032915061087a565b602d915061087a565b6028915061087a565b6023915061087a565b601e915061087a565b6019915061087a565b6014915061087a565b600f915061087a565b600a915061087a565b600591505b50919050565b6000828201838110156108dd576040805160e560020a62461bcd02815260206004820152601b60248201527f536166654d6174683a206164646974696f6e206f766572666c6f770000000000604482015290519081900360640190fd5b9392505050565b60008215156108f5575060006103ed565b82820282848281151561090457fe5b04146108dd576040805160e560020a62461bcd02815260206004820152602160248201527f536166654d6174683a206d756c7469706c69636174696f6e206f766572666c6f60448201527f7700000000000000000000000000000000000000000000000000000000000000606482015290519081900360840190fd5b60008082116109d9576040805160e560020a62461bcd02815260206004820152601a60248201527f536166654d6174683a206469766973696f6e206279207a65726f000000000000604482015290519081900360640190fd5b600082848115156109e657fe5b04949350505050565b600082821115610a49576040805160e560020a62461bcd02815260206004820152601e60248201527f536166654d6174683a207375627472616374696f6e206f766572666c6f770000604482015290519081900360640190fd5b50900390565b600160a060020a0381161515610ad5576040805160e560020a62461bcd02815260206004820152602660248201527f4f776e61626c653a206e6577206f776e657220697320746865207a65726f206160448201527f6464726573730000000000000000000000000000000000000000000000000000606482015290519081900360840190fd5b60008054604051600160a060020a03808516939216917f8be0079c531659141344cd1fd0a4f28419497f9722a3daafe3b4186f6b6457e091a36000805473ffffffffffffffffffffffffffffffffffffffff1916600160a060020a039290921691909117905556fea165627a7a723058203a8049a5cc7a6e8867eaecbfadf187e6fb1ae663590a0020516aa15a2e9c710800294f776e61626c653a2063616c6c6572206973206e6f7420746865206f776e65725061757361626c653a2070617573656400000000000000000000000000000000a165627a7a7230582097a5f0571749b39f3cdb862bb6673375f15c327aae34d355a4560733d19bf52d002960806040523480156200001157600080fd5b506040516200236e3803806200236e833981018060405260608110156200003757600080fd5b8101908080516401000000008111156200005057600080fd5b820160208101848111156200006457600080fd5b81516401000000008111828201871017156200007f57600080fd5b5050602082015160409283015160008054600160a060020a0319163317808255945193965091945092600160a060020a0316917f8be0079c531659141344cd1fd0a4f28419497f9722a3daafe3b4186f6b6457e0908290a38251620000ec906002906020860190620001b9565b5060038054600160a060020a031916600160a060020a03841617905560408051600a8082526101608201909252906020820161014080388339505081516200013c9260049250602001906200023e565b5060006006556200014c6200027b565b604051809103906000f08015801562000169573d6000803e3d6000fd5b506005805460a060020a60ff0219600160a060020a0393909316600160a060020a031990911617919091167401000000000000000000000000000000000000000017905560015550620002ac9050565b828054600181600116156101000203166002900490600052602060002090601f016020900481019282601f10620001fc57805160ff19168380011785556200022c565b828001600101855582156200022c579182015b828111156200022c5782518255916020019190600101906200020f565b506200023a9291506200028c565b5090565b8280548282559060005260206000209081019282156200022c57916020028201828111156200022c5782518255916020019190600101906200020f565b604051610bc080620017ae83390190565b620002a991905b808211156200023a576000815560010162000293565b90565b6114f280620002bc6000396000f3fe6080604052600436106101065763ffffffff7c010000000000000000000000000000000000000000000000000000000060003504166322f3e2d4811461010b5780632ee99d5014610134578063456cc3e81461014b5780634e33f83b146101905780635039dd77146101c35780635fd5eef9146101c357806369251878146101d8578063715018a6146101fe5780637719c46d146102135780637cbf4f291461024c57806386197781146102765780638c325513146102a95780638da5cb5b146102dc5780638f32d59b1461030d5780639674414714610322578063d07e4d8314610355578063f1fa0d371461036a578063f2fde38b14610394578063f6f14dfe146103c7575b600080fd5b34801561011757600080fd5b506101206103dc565b604080519115158252519081900360200190f35b34801561014057600080fd5b506101496103ec565b005b34801561015757600080fd5b5061017e6004803603602081101561016e57600080fd5b5035600160a060020a031661045e565b60408051918252519081900360200190f35b34801561019c57600080fd5b5061017e600480360360208110156101b357600080fd5b5035600160a060020a03166104fb565b3480156101cf57600080fd5b5061017e61057e565b61017e600480360360208110156101ee57600080fd5b5035600160a060020a0316610584565b34801561020a57600080fd5b50610149610829565b34801561021f57600080fd5b5061017e6004803603604081101561023657600080fd5b50600160a060020a0381351690602001356108cc565b34801561025857600080fd5b5061017e6004803603602081101561026f57600080fd5b5035610d43565b34801561028257600080fd5b5061017e6004803603602081101561029957600080fd5b5035600160a060020a0316610e08565b3480156102b557600080fd5b5061017e600480360360208110156102cc57600080fd5b5035600160a060020a0316610e72565b3480156102e857600080fd5b506102f1610f5f565b60408051600160a060020a039092168252519081900360200190f35b34801561031957600080fd5b50610120610f6e565b34801561032e57600080fd5b5061017e6004803603602081101561034557600080fd5b5035600160a060020a0316610f7f565b34801561036157600080fd5b5061017e611110565b34801561037657600080fd5b506102f16004803603602081101561038d57600080fd5b5035611116565b3480156103a057600080fd5b50610149600480360360208110156103b757600080fd5b5035600160a060020a03166111e3565b3480156103d357600080fd5b5061014961123b565b60055460a060020a900460ff1690565b6103f4610f6e565b1515610438576040805160e560020a62461bcd02815260206004820181905260248201526000805160206114a7833981519152604482015290519081900360640190fd5b6005805474ff0000000000000000000000000000000000000000191660a060020a179055565b600554604080517f19165587000000000000000000000000000000000000000000000000000000008152600160a060020a0384811660048301529151600093929092169163191655879160248082019260209290919082900301818787803b1580156104c957600080fd5b505af11580156104dd573d6000803e3d6000fd5b505050506040513d60208110156104f357600080fd5b505192915050565b600554604080517ffc6db4f4000000000000000000000000000000000000000000000000000000008152600160a060020a0384811660048301529151600093929092169163fc6db4f491602480820192602092909190829003018186803b15801561056557600080fd5b505afa1580156104dd573d6000803e3d6000fd5b919050565b60015490565b60055460009060a060020a900460ff161515610610576040805160e560020a62461bcd02815260206004820152602860248201527f43727970746f41726361646547616d653a205468652067616d65206973206e6f60448201527f7420616374697665000000000000000000000000000000000000000000000000606482015290519081900360840190fd5b600154341015610690576040805160e560020a62461bcd02815260206004820152603760248201527f54686520616d6f756e742070616964206973206e6f742073756666696369656e60448201527f7420746f20707572636861736520746865206d61746368000000000000000000606482015290519081900360840190fd5b610698610f6e565b15156106dc576040805160e560020a62461bcd02815260206004820181905260248201526000805160206114a7833981519152604482015290519081900360640190fd5b5060068054600101908190556040805160608101909152600160a060020a038316815260208101600081526000602091820181905283815260078252604090208251815473ffffffffffffffffffffffffffffffffffffffff1916600160a060020a0390911617808255918301519091829074ff0000000000000000000000000000000000000000191660a060020a83600181111561077757fe5b0217905550604091820151600191820155600160a060020a03808516600090815260086020908152848220805480860182559083529082200185905560055492549351929091169280156108fc02929091818181858888f193505050501580156107e5573d6000803e3d6000fd5b506001543403600081111561082357604051339082156108fc029083906000818181858888f19350505050158015610821573d6000803e3d6000fd5b505b50919050565b610831610f6e565b1515610875576040805160e560020a62461bcd02815260206004820181905260248201526000805160206114a7833981519152604482015290519081900360640190fd5b60008054604051600160a060020a03909116907f8be0079c531659141344cd1fd0a4f28419497f9722a3daafe3b4186f6b6457e0908390a36000805473ffffffffffffffffffffffffffffffffffffffff19169055565b60055460009060a060020a900460ff161515610958576040805160e560020a62461bcd02815260206004820152602860248201527f43727970746f41726361646547616d653a205468652067616d65206973206e6f60448201527f7420616374697665000000000000000000000000000000000000000000000000606482015290519081900360840190fd5b610960610f6e565b15156109a4576040805160e560020a62461bcd02815260206004820181905260248201526000805160206114a7833981519152604482015290519081900360640190fd5b6000805b600160a060020a038516600090815260086020526040902054811015610a8857600160a060020a03851660009081526008602052604081208054839081106109ec57fe5b90600052602060002001549050610a01611484565b6000828152600760209081526040918290208251606081019093528054600160a060020a0381168452909183019060a060020a900460ff166001811115610a4457fe5b6001811115610a4f57fe5b815260019182015460209091015290915081602001516001811115610a7057fe5b1415610a7e57509150610a88565b50506001016109a8565b50801515610b06576040805160e560020a62461bcd02815260206004820152603760248201527f4d61746368506c617965643a20546865726520617265206e6f206d617463686560448201527f7320706c6179656420746f206c6f6720616761696e7374000000000000000000606482015290519081900360840190fd5b600081815260076020526040902054600160a060020a03858116911614610b9d576040805160e560020a62461bcd02815260206004820152603260248201527f4d61746368506c617965643a2054686520706c6179657220646964206e6f742060448201527f707572636861736520746865206d617463680000000000000000000000000000606482015290519081900360840190fd5b6000818152600760205260408120805474ff0000000000000000000000000000000000000000191660a060020a178155600101849055610bdc826112a7565b600554604080517f18f9b023000000000000000000000000000000000000000000000000000000008152600160a060020a0389811660048301526024820185905291519394509116916318f9b023916044808201926020929091908290030181600087803b158015610c4d57600080fd5b505af1158015610c61573d6000803e3d6000fd5b505050506040513d6020811015610c7757600080fd5b50516040805160208101879052818152600280546000196101006001831615020116819004928201839052929550600160a060020a038816927f817459fef0397286d149325f99904d000bbbd0f1f515a4fe3c811230b19fcdd592909188918190606082019085908015610d2c5780601f10610d0157610100808354040283529160200191610d2c565b820191906000526020600020905b815481529060010190602001808311610d0f57829003601f168201915b5050935050505060405180910390a2505092915050565b6000600a82108015610d56575060008210155b1515610dd1576040805160e560020a62461bcd028152602060048201526024808201527f54686520706f736974696f6e206d757374206265206265747765656e2030206160448201527f6e64203900000000000000000000000000000000000000000000000000000000606482015290519081900360840190fd5b60076000600484815481101515610de457fe5b90600052602060002001548152602001908152602001600020600101549050919050565b600554604080517f86197781000000000000000000000000000000000000000000000000000000008152600160a060020a03848116600483015291516000939290921691638619778191602480820192602092909190829003018186803b15801561056557600080fd5b600080805b600160a060020a038416600090815260086020526040902054811015610f5857600160a060020a0384166000908152600860205260408120805483908110610ebb57fe5b90600052602060002001549050610ed0611484565b6000828152600760209081526040918290208251606081019093528054600160a060020a0381168452909183019060a060020a900460ff166001811115610f1357fe5b6001811115610f1e57fe5b8152600191909101546020909101529050600081602001516001811115610f4157fe5b1415610f4e576001909301925b5050600101610e77565b5092915050565b600054600160a060020a031690565b600054600160a060020a0316331490565b60055460009060a060020a900460ff16151561100b576040805160e560020a62461bcd02815260206004820152602860248201527f43727970746f41726361646547616d653a205468652067616d65206973206e6f60448201527f7420616374697665000000000000000000000000000000000000000000000000606482015290519081900360840190fd5b611013610f6e565b1515611057576040805160e560020a62461bcd02815260206004820181905260248201526000805160206114a7833981519152604482015290519081900360640190fd5b6000805b600160a060020a038416600090815260086020526040902054811015610f5857600160a060020a038416600090815260086020526040812080548390811061109f57fe5b600091825260208083209091015480835260079091526040822090925090815460a060020a900460ff1660018111156110d457fe5b141561110657805474ff0000000000000000000000000000000000000000191660a060020a1790559250610579915050565b505060010161105b565b60015481565b6000600a82108015611129575060008210155b15156111a4576040805160e560020a62461bcd028152602060048201526024808201527f54686520706f736974696f6e206d757374206265206265747765656e2030206160448201527f6e64203900000000000000000000000000000000000000000000000000000000606482015290519081900360840190fd5b600760006004848154811015156111b757fe5b60009182526020808320909101548352820192909252604001902054600160a060020a03169050919050565b6111eb610f6e565b151561122f576040805160e560020a62461bcd02815260206004820181905260248201526000805160206114a7833981519152604482015290519081900360640190fd5b61123881611396565b50565b611243610f6e565b1515611287576040805160e560020a62461bcd02815260206004820181905260248201526000805160206114a7833981519152604482015290519081900360640190fd5b6005805474ff000000000000000000000000000000000000000019169055565b600081815260076020526040812060010154600a825b600454811015611315576000600760006004848154811015156112dc57fe5b906000526020600020015481526020019081526020016000206001015490508084111561130c5781925050611315565b506001016112bd565b5060045481101561138f57600454600019015b818111156113715760048054600019830190811061134257fe5b906000526020600020015460048281548110151561135c57fe5b60009182526020909120015560001901611328565b508360048281548110151561138257fe5b6000918252602090912001555b9392505050565b600160a060020a038116151561141c576040805160e560020a62461bcd02815260206004820152602660248201527f4f776e61626c653a206e6577206f776e657220697320746865207a65726f206160448201527f6464726573730000000000000000000000000000000000000000000000000000606482015290519081900360840190fd5b60008054604051600160a060020a03808516939216917f8be0079c531659141344cd1fd0a4f28419497f9722a3daafe3b4186f6b6457e091a36000805473ffffffffffffffffffffffffffffffffffffffff1916600160a060020a0392909216919091179055565b604080516060810190915260008082526020820190815260200160008152509056fe4f776e61626c653a2063616c6c6572206973206e6f7420746865206f776e6572a165627a7a7230582076ae33de1d50d4e97b5a94e1b688aa2f2241aa4ff04ba07a4d66bfe7016d536f00296080604081905260008054600160a060020a0319163317808255600160a060020a0316917f8be0079c531659141344cd1fd0a4f28419497f9722a3daafe3b4186f6b6457e0908290a3610b69806100576000396000f3fe60806040526004361061008d5763ffffffff7c010000000000000000000000000000000000000000000000000000000060003504166318f9b02381146100c95780631916558714610114578063715018a614610147578063861977811461015e5780638da5cb5b146101915780638f32d59b146101c2578063f2fde38b146101eb578063fc6db4f41461021e575b6040805133815234602082015281517f6ef95f06320e7a25a04a175ca677b7052bdd97131872c2192525a629f51be770929181900390910190a1005b3480156100d557600080fd5b50610102600480360360408110156100ec57600080fd5b50600160a060020a038135169060200135610251565b60408051918252519081900360200190f35b34801561012057600080fd5b506101026004803603602081101561013757600080fd5b5035600160a060020a03166103f3565b34801561015357600080fd5b5061015c610655565b005b34801561016a57600080fd5b506101026004803603602081101561018157600080fd5b5035600160a060020a031661070a565b34801561019d57600080fd5b506101a6610725565b60408051600160a060020a039092168252519081900360200190f35b3480156101ce57600080fd5b506101d7610734565b604080519115158252519081900360200190f35b3480156101f757600080fd5b5061015c6004803603602081101561020e57600080fd5b5035600160a060020a0316610745565b34801561022a57600080fd5b506101026004803603602081101561024157600080fd5b5035600160a060020a03166107af565b600061025b610734565b15156102b1576040805160e560020a62461bcd02815260206004820181905260248201527f4f776e61626c653a2063616c6c6572206973206e6f7420746865206f776e6572604482015290519081900360640190fd5b600160a060020a0383161515610337576040805160e560020a62461bcd02815260206004820152602b60248201527f52657761726453706c69747465723a206163636f756e7420697320746865207a60448201527f65726f2061646472657373000000000000000000000000000000000000000000606482015290519081900360840190fd5b610340826107ca565b905060008111156103ed57600160a060020a038316600090815260036020526040902054610374908263ffffffff61088016565b600160a060020a0384166000908152600360205260409020556001546103a0908263ffffffff61088016565b60015560408051600160a060020a03851681526020810184905280820183905290517fb3c52e7e1d58db9d4d5f530a5a71ac54a2fd63e3fcaed60f24c35adf352c21e19181900360600190a15b92915050565b600160a060020a0381166000908152600360205260408120548110610488576040805160e560020a62461bcd02815260206004820152602560248201527f52657761726453706c69747465723a206163636f756e7420686173206e6f207360448201527f6861726573000000000000000000000000000000000000000000000000000000606482015290519081900360840190fd5b6002546000906104a09030319063ffffffff61088016565b600160a060020a03841660009081526004602090815260408083205460015460039093529220549293506104fc926104f091906104e490869063ffffffff6108e416565b9063ffffffff61098016565b9063ffffffff6109ef16565b91506000821161057c576040805160e560020a62461bcd02815260206004820152602a60248201527f52657761726453706c69747465723a206163636f756e74206973206e6f74206460448201527f7565207061796d656e7400000000000000000000000000000000000000000000606482015290519081900360840190fd5b600160a060020a0383166000908152600460205260409020546105a5908363ffffffff61088016565b600160a060020a0384166000908152600460205260409020556002546105d1908363ffffffff61088016565b600255604051600160a060020a0384169083156108fc029084906000818181858888f1935050505015801561060a573d6000803e3d6000fd5b5060408051600160a060020a03851681526020810184905281517fdf20fd1e76bc69d672e4814fafb2c449bba3a5369d8359adf9e05e6fde87b056929181900390910190a150919050565b61065d610734565b15156106b3576040805160e560020a62461bcd02815260206004820181905260248201527f4f776e61626c653a2063616c6c6572206973206e6f7420746865206f776e6572604482015290519081900360640190fd5b60008054604051600160a060020a03909116907f8be0079c531659141344cd1fd0a4f28419497f9722a3daafe3b4186f6b6457e0908390a36000805473ffffffffffffffffffffffffffffffffffffffff19169055565b600160a060020a031660009081526004602052604090205490565b600054600160a060020a031690565b600054600160a060020a0316331490565b61074d610734565b15156107a3576040805160e560020a62461bcd02815260206004820181905260248201527f4f776e61626c653a2063616c6c6572206973206e6f7420746865206f776e6572604482015290519081900360640190fd5b6107ac81610a4f565b50565b600160a060020a031660009081526003602052604090205490565b6000818015610824576001811461082d5760028114610836576003811461083f57600481146108485760058114610851576006811461085a5760078114610863576008811461086c5760098114610875576000915061087a565b6032915061087a565b602d915061087a565b6028915061087a565b6023915061087a565b601e915061087a565b6019915061087a565b6014915061087a565b600f915061087a565b600a915061087a565b600591505b50919050565b6000828201838110156108dd576040805160e560020a62461bcd02815260206004820152601b60248201527f536166654d6174683a206164646974696f6e206f766572666c6f770000000000604482015290519081900360640190fd5b9392505050565b60008215156108f5575060006103ed565b82820282848281151561090457fe5b04146108dd576040805160e560020a62461bcd02815260206004820152602160248201527f536166654d6174683a206d756c7469706c69636174696f6e206f766572666c6f60448201527f7700000000000000000000000000000000000000000000000000000000000000606482015290519081900360840190fd5b60008082116109d9576040805160e560020a62461bcd02815260206004820152601a60248201527f536166654d6174683a206469766973696f6e206279207a65726f000000000000604482015290519081900360640190fd5b600082848115156109e657fe5b04949350505050565b600082821115610a49576040805160e560020a62461bcd02815260206004820152601e60248201527f536166654d6174683a207375627472616374696f6e206f766572666c6f770000604482015290519081900360640190fd5b50900390565b600160a060020a0381161515610ad5576040805160e560020a62461bcd02815260206004820152602660248201527f4f776e61626c653a206e6577206f776e657220697320746865207a65726f206160448201527f6464726573730000000000000000000000000000000000000000000000000000606482015290519081900360840190fd5b60008054604051600160a060020a03808516939216917f8be0079c531659141344cd1fd0a4f28419497f9722a3daafe3b4186f6b6457e091a36000805473ffffffffffffffffffffffffffffffffffffffff1916600160a060020a039290921691909117905556fea165627a7a723058203a8049a5cc7a6e8867eaecbfadf187e6fb1ae663590a0020516aa15a2e9c71080029",
  "source": "pragma solidity ^0.5.0;\n\nimport \"openzeppelin-solidity/contracts/ownership/Ownable.sol\";\nimport \"openzeppelin-solidity/contracts/lifecycle/Pausable.sol\";\n\nimport \"./CryptoArcadeGame.sol\";\nimport \"./RewardSplitter.sol\";\n\n/**\n * @title CryptoArcade\n * @dev This contract is as a game factory and acts as a proxy between players and games.\n * Operations related to the game will be delegated to the appropriate game instance.\n * \n * There is a circuit breaker implemented that can only be operated by the owner account, in case a serious issue is detected.\n */\ncontract CryptoArcade is Ownable, Pausable {\n    event LogGameRegistered(\n        address indexed creator,\n        string gameName,\n        uint256 price\n    );\n    event LogMatchPurchased(address indexed player, uint256 gameId);\n    event LogMatchStarted(\n        address indexed player,\n        uint256 indexed gameId,\n        uint256 indexed matchId\n    );\n    event LogMatchFinished(\n        address indexed player,\n        uint256 indexed gameId,\n        uint256 indexed matchId\n    );\n    event LogNewRecord(\n        address indexed player,\n        uint256 indexed gameId,\n        uint256 score\n    );\n    event LogRewardReleased(address indexed player, uint256 amount);\n\n    // The list of games registered to the arcade\n    mapping(uint256 => CryptoArcadeGame) private games;\n    // The unique game ID generator\n    uint256 private numRegisteredGames;\n\n    // Modifiyer that returns any ether paid in excess by the player\n    modifier refundExcess(uint256 gameId) {\n        _;\n        uint256 paidInExcess = msg.value - games[gameId].gameMatchPrice();\n        if (paidInExcess > 0) {\n            msg.sender.transfer(paidInExcess);\n        }\n    }\n\n    function() external payable {}\n\n    /**\n     * @dev Public constructor that registers a game at creation.\n     * The game is represented by the account of the game creator, a name and the cost of playing a match.\n     *\n     * A registration event is emitted if the creation is successful.\n     * @param _name The name of the game\n     * @param _creator The address of the creator\n     * @param _price The cost of one match\n     */\n    constructor(string memory _name, address _creator, uint256 _price) public {\n        uint256 gameId = numRegisteredGames++;\n\n        games[gameId] = new CryptoArcadeGame(_name, _creator, _price);\n\n        emit LogGameRegistered(_creator, _name, _price);\n    }\n\n    /**\n     * @dev Method to register a new game to the platform.\n     * \n     *  Emits a game registration event if sucessful.\n     * @param _name The name of the game\n     * @param _creator The address of the creator\n     * @param _price The cost of one match\n     * @return The new game ID\n     */\n    function registerGame(string memory _name, address _creator, uint256 _price)\n        public\n        onlyOwner()\n        whenNotPaused()\n        returns (uint256)\n    {\n        uint256 gameId = numRegisteredGames++;\n\n        games[gameId] = new CryptoArcadeGame(_name, _creator, _price);\n\n        emit LogGameRegistered(_creator, _name, _price);\n    }\n\n    /**\n     * @dev This methods enables all operations for a given game.\n     * Games can be deactivated without being removed, in case an issue is detected.\n     * \n     * @param _gameId The id of the game to activate\n     */\n    function activateGame(uint256 _gameId)\n        external\n        onlyOwner()\n        whenNotPaused()\n    {\n        games[_gameId].activateGame();\n    }\n\n    /**\n     * @dev This methods disables most of the operations for a given game.\n     * Games can be deactivated without being removed, in case an issue is detected.\n     * Deactivation keeps all related data safe while it reduces the operations available to authorised accounts.\n     * \n     * @param _gameId The id of the game to deactivate\n     */\n    function deactivateGame(uint256 _gameId)\n        external\n        onlyOwner()\n        whenNotPaused()\n    {\n        games[_gameId].deactivateGame();\n    }\n\n    /**\n     * @dev Locates the price of a given game.\n     * \n     * @param _gameId The id of the game\n     * @return The game's price per match\n     */\n    function matchPrice(uint256 _gameId) public view returns (uint256) {\n        return games[_gameId].gameMatchPrice();\n    }\n\n    /**\n     * @dev This method enables the purchase of game matches.\n     * The cost of the game is the price that the game owner defined at creation.\n     * The operation is relayed to the game contract for completion.\n     *\n     * If the purchase is successful a game purchased event is emitted. \n     * @param _gameId The id of the game to deactivate\n     * @return The ID of the match purchased\n     */\n    function purchaseMatch(uint256 _gameId)\n        public\n        payable\n        refundExcess(_gameId)\n        whenNotPaused()\n        returns (uint256 matchId)\n    {\n        matchId = games[_gameId].purchaseMatch.value(msg.value)(msg.sender);\n        emit LogMatchPurchased(msg.sender, _gameId);\n\n    }\n\n    /**\n     * @dev This method looks up caller's available matches (those that are not in played status) and returns the total number.\n     *\n     * @param _gameId The id of the game\n     * @return The total number of matches for the caller that are not in played status\n     */\n    function getNumberOfAvailableMatches(uint256 _gameId)\n        public\n        view\n        returns (uint256)\n    {\n        return games[_gameId].getNumberOfAvailableMatches(msg.sender);\n    }\n\n    /**\n     * @dev This method looks up caller's available matches (those that are not in played status) and returns the total number.\n     *\n     * @param _gameId The id of the game\n     * @return The total number of matches for the caller that are not in played status\n     */\n    function getGameMatchScore(uint256 _gameId) public view returns (uint256) {\n        return games[_gameId].getNumberOfAvailableMatches(msg.sender);\n    }\n\n    /**\n     * @dev This method flags a match as played, which consumes it.\n     * The status of the match becomes Played so its score can be associated to it.\n     *\n     * @param _gameId The id of the game\n     * @return The ID of the match started\n     */\n    function playMatch(uint256 _gameId) public returns (uint256 matchId) {\n        matchId = games[_gameId].playMatch(msg.sender);\n        emit LogMatchStarted(msg.sender, _gameId, matchId);\n    }\n\n    /**\n     * @dev This method is a proxy to the game method that stores the score of a match played, \n     * calculates whether it falls in the top 10 in which case it also calculates and awards\n     * a number of shares to the player. How many depends on the position achieved.\n     *\n     * The method emits a match finished event and a new record one in case the score deserves it.\n     * @param _gameId The id of the game\n     * @param _score The score attained\n     * @return The number of shares produced by the score (zero if the score doesn't make it to the top 10)\n     */\n    function matchPlayed(uint256 _gameId, uint256 _score)\n        public\n        returns (uint256 shares)\n    {\n        shares = games[_gameId].matchPlayed(msg.sender, _score);\n        if (shares > 0) {\n            emit LogNewRecord(msg.sender, _gameId, _score);\n        }\n        emit LogMatchFinished(msg.sender, _gameId, _score);\n    }\n\n    /**\n     * @dev Method that retrieves the top 10 ranking one piece of data at a time, \n     * to avoid complex operations on-chain.\n     *\n     * @return The address of the entry in the top 10 'pos' position\n     */\n    function getRecordEntryAddress(uint256 _gameId, uint256 _pos)\n        public\n        view\n        returns (address)\n    {\n        require(_pos < 10 && _pos >= 0, \"The position must be between 0 and 9\");\n        return games[_gameId].getRecordEntryAddress(_pos);\n    }\n\n    /**\n     * @dev Method that retrieves the top 10 ranking one piece of data at a time, \n     * to avoid complex operations on-chain.\n     *\n     * @return The score of the entry in the top 10 'pos' position\n     */\n    function getRecordEntryScore(uint256 _gameId, uint256 _pos)\n        public\n        view\n        returns (uint256)\n    {\n        require(_pos < 10 && _pos >= 0, \"The position must be between 0 and 9\");\n        return games[_gameId].getRecordEntryScore(_pos);\n    }\n\n    /**\n     * @dev This method is a proxy to the game method that retrieves caller's number of shares in the common game pot.\n     *\n     * @param _gameId The id of the game\n     * @return Caller's total number of shares\n     */\n    function playerBalance(uint256 _gameId) external view returns (uint256) {\n        return games[_gameId].playerBalance(msg.sender);\n    }\n\n    /**\n     * @dev This method is a proxy to the game pull method that retrieves the balance for a player.\n     *\n     * The method emits a reward released event.\n     * @param _gameId The id of the game\n     * @param _player The player\n     * @return True if player's balance is released successfully\n     */\n    function releaseReward(uint256 _gameId, address payable _player)\n        public\n        returns (bool)\n    {\n        uint256 amount = games[_gameId].releaseReward(_player);\n        emit LogRewardReleased(_player, amount);\n        return true;\n    }\n}\n",
  "sourcePath": "/Volumes/Repository/Dropbox/project/thoughtfuldistractions/insertcrypto/contracts/CryptoArcade.sol",
  "compiler": {
    "name": "solc",
    "version": "0.5.0+commit.1d4f565a.Emscripten.clang"
  },
  "schemaVersion": "3.0.11",
  "updatedAt": "2019-08-09T12:15:53.106Z",
  "devdoc": {
    "details": "This contract is as a game factory and acts as a proxy between players and games. Operations related to the game will be delegated to the appropriate game instance.  * There is a circuit breaker implemented that can only be operated by the owner account, in case a serious issue is detected.",
    "methods": {
      "activateGame(uint256)": {
        "details": "This methods enables all operations for a given game. Games can be deactivated without being removed, in case an issue is detected. ",
        "params": {
          "_gameId": "The id of the game to activate"
        }
      },
      "constructor": {
        "details": "Public constructor that registers a game at creation. The game is represented by the account of the game creator, a name and the cost of playing a match.     * A registration event is emitted if the creation is successful.",
        "params": {
          "_creator": "The address of the creator",
          "_name": "The name of the game",
          "_price": "The cost of one match"
        }
      },
      "deactivateGame(uint256)": {
        "details": "This methods disables most of the operations for a given game. Games can be deactivated without being removed, in case an issue is detected. Deactivation keeps all related data safe while it reduces the operations available to authorised accounts. ",
        "params": {
          "_gameId": "The id of the game to deactivate"
        }
      },
      "getGameMatchScore(uint256)": {
        "details": "This method looks up caller's available matches (those that are not in played status) and returns the total number.",
        "params": {
          "_gameId": "The id of the game"
        },
        "return": "The total number of matches for the caller that are not in played status"
      },
      "getNumberOfAvailableMatches(uint256)": {
        "details": "This method looks up caller's available matches (those that are not in played status) and returns the total number.",
        "params": {
          "_gameId": "The id of the game"
        },
        "return": "The total number of matches for the caller that are not in played status"
      },
      "getRecordEntryAddress(uint256,uint256)": {
        "details": "Method that retrieves the top 10 ranking one piece of data at a time,  to avoid complex operations on-chain.",
        "return": "The address of the entry in the top 10 'pos' position"
      },
      "getRecordEntryScore(uint256,uint256)": {
        "details": "Method that retrieves the top 10 ranking one piece of data at a time,  to avoid complex operations on-chain.",
        "return": "The score of the entry in the top 10 'pos' position"
      },
      "isOwner()": {
        "details": "Returns true if the caller is the current owner."
      },
      "matchPlayed(uint256,uint256)": {
        "details": "This method is a proxy to the game method that stores the score of a match played,  calculates whether it falls in the top 10 in which case it also calculates and awards a number of shares to the player. How many depends on the position achieved.     * The method emits a match finished event and a new record one in case the score deserves it.",
        "params": {
          "_gameId": "The id of the game",
          "_score": "The score attained"
        },
        "return": "The number of shares produced by the score (zero if the score doesn't make it to the top 10)"
      },
      "matchPrice(uint256)": {
        "details": "Locates the price of a given game. ",
        "params": {
          "_gameId": "The id of the game"
        },
        "return": "The game's price per match"
      },
      "owner()": {
        "details": "Returns the address of the current owner."
      },
      "pause()": {
        "details": "Called by a pauser to pause, triggers stopped state."
      },
      "paused()": {
        "details": "Returns true if the contract is paused, and false otherwise."
      },
      "playMatch(uint256)": {
        "details": "This method flags a match as played, which consumes it. The status of the match becomes Played so its score can be associated to it.",
        "params": {
          "_gameId": "The id of the game"
        },
        "return": "The ID of the match started"
      },
      "playerBalance(uint256)": {
        "details": "This method is a proxy to the game method that retrieves caller's number of shares in the common game pot.",
        "params": {
          "_gameId": "The id of the game"
        },
        "return": "Caller's total number of shares"
      },
      "purchaseMatch(uint256)": {
        "details": "This method enables the purchase of game matches. The cost of the game is the price that the game owner defined at creation. The operation is relayed to the game contract for completion.     * If the purchase is successful a game purchased event is emitted. ",
        "params": {
          "_gameId": "The id of the game to deactivate"
        },
        "return": "The ID of the match purchased"
      },
      "registerGame(string,address,uint256)": {
        "details": "Method to register a new game to the platform.      *  Emits a game registration event if sucessful.",
        "params": {
          "_creator": "The address of the creator",
          "_name": "The name of the game",
          "_price": "The cost of one match"
        },
        "return": "The new game ID"
      },
      "releaseReward(uint256,address)": {
        "details": "This method is a proxy to the game pull method that retrieves the balance for a player.     * The method emits a reward released event.",
        "params": {
          "_gameId": "The id of the game",
          "_player": "The player"
        },
        "return": "True if player's balance is released successfully"
      },
      "renounceOwnership()": {
        "details": "Leaves the contract without owner. It will not be possible to call `onlyOwner` functions anymore. Can only be called by the current owner.     * > Note: Renouncing ownership will leave the contract without an owner, thereby removing any functionality that is only available to the owner."
      },
      "transferOwnership(address)": {
        "details": "Transfers ownership of the contract to a new account (`newOwner`). Can only be called by the current owner."
      },
      "unpause()": {
        "details": "Called by a pauser to unpause, returns to normal state."
      }
    },
    "title": "CryptoArcade"
  },
  "userdoc": {
    "methods": {}
  }
}