{
  "contractName": "CryptoArcade",
  "abi": [
    {
      "constant": false,
      "inputs": [],
      "name": "unpause",
      "outputs": [],
      "payable": false,
      "stateMutability": "nonpayable",
      "type": "function"
    },
    {
      "constant": true,
      "inputs": [
        {
          "name": "account",
          "type": "address"
        }
      ],
      "name": "isPauser",
      "outputs": [
        {
          "name": "",
          "type": "bool"
        }
      ],
      "payable": false,
      "stateMutability": "view",
      "type": "function"
    },
    {
      "constant": true,
      "inputs": [],
      "name": "paused",
      "outputs": [
        {
          "name": "",
          "type": "bool"
        }
      ],
      "payable": false,
      "stateMutability": "view",
      "type": "function"
    },
    {
      "constant": false,
      "inputs": [],
      "name": "renouncePauser",
      "outputs": [],
      "payable": false,
      "stateMutability": "nonpayable",
      "type": "function"
    },
    {
      "constant": false,
      "inputs": [],
      "name": "renounceOwnership",
      "outputs": [],
      "payable": false,
      "stateMutability": "nonpayable",
      "type": "function"
    },
    {
      "constant": false,
      "inputs": [
        {
          "name": "account",
          "type": "address"
        }
      ],
      "name": "addPauser",
      "outputs": [],
      "payable": false,
      "stateMutability": "nonpayable",
      "type": "function"
    },
    {
      "constant": false,
      "inputs": [],
      "name": "pause",
      "outputs": [],
      "payable": false,
      "stateMutability": "nonpayable",
      "type": "function"
    },
    {
      "constant": true,
      "inputs": [],
      "name": "owner",
      "outputs": [
        {
          "name": "",
          "type": "address"
        }
      ],
      "payable": false,
      "stateMutability": "view",
      "type": "function"
    },
    {
      "constant": true,
      "inputs": [],
      "name": "isOwner",
      "outputs": [
        {
          "name": "",
          "type": "bool"
        }
      ],
      "payable": false,
      "stateMutability": "view",
      "type": "function"
    },
    {
      "constant": false,
      "inputs": [
        {
          "name": "newOwner",
          "type": "address"
        }
      ],
      "name": "transferOwnership",
      "outputs": [],
      "payable": false,
      "stateMutability": "nonpayable",
      "type": "function"
    },
    {
      "payable": true,
      "stateMutability": "payable",
      "type": "fallback"
    },
    {
      "anonymous": false,
      "inputs": [
        {
          "indexed": true,
          "name": "creator",
          "type": "address"
        },
        {
          "indexed": false,
          "name": "gameName",
          "type": "string"
        }
      ],
      "name": "LogGameRegistered",
      "type": "event"
    },
    {
      "anonymous": false,
      "inputs": [
        {
          "indexed": false,
          "name": "account",
          "type": "address"
        }
      ],
      "name": "Paused",
      "type": "event"
    },
    {
      "anonymous": false,
      "inputs": [
        {
          "indexed": false,
          "name": "account",
          "type": "address"
        }
      ],
      "name": "Unpaused",
      "type": "event"
    },
    {
      "anonymous": false,
      "inputs": [
        {
          "indexed": true,
          "name": "account",
          "type": "address"
        }
      ],
      "name": "PauserAdded",
      "type": "event"
    },
    {
      "anonymous": false,
      "inputs": [
        {
          "indexed": true,
          "name": "account",
          "type": "address"
        }
      ],
      "name": "PauserRemoved",
      "type": "event"
    },
    {
      "anonymous": false,
      "inputs": [
        {
          "indexed": true,
          "name": "previousOwner",
          "type": "address"
        },
        {
          "indexed": true,
          "name": "newOwner",
          "type": "address"
        }
      ],
      "name": "OwnershipTransferred",
      "type": "event"
    },
    {
      "constant": false,
      "inputs": [
        {
          "name": "_name",
          "type": "string"
        },
        {
          "name": "_creator",
          "type": "address"
        }
      ],
      "name": "registerGame",
      "outputs": [
        {
          "name": "",
          "type": "uint256"
        }
      ],
      "payable": false,
      "stateMutability": "nonpayable",
      "type": "function"
    },
    {
      "constant": false,
      "inputs": [
        {
          "name": "_gameId",
          "type": "uint256"
        }
      ],
      "name": "deactivateGame",
      "outputs": [],
      "payable": false,
      "stateMutability": "nonpayable",
      "type": "function"
    },
    {
      "constant": false,
      "inputs": [
        {
          "name": "_gameId",
          "type": "uint256"
        }
      ],
      "name": "activateGame",
      "outputs": [],
      "payable": false,
      "stateMutability": "nonpayable",
      "type": "function"
    },
    {
      "constant": false,
      "inputs": [
        {
          "name": "_gameId",
          "type": "uint256"
        }
      ],
      "name": "purchaseMatch",
      "outputs": [
        {
          "name": "matchId",
          "type": "uint256"
        }
      ],
      "payable": true,
      "stateMutability": "payable",
      "type": "function"
    },
    {
      "constant": true,
      "inputs": [
        {
          "name": "_gameId",
          "type": "uint256"
        },
        {
          "name": "_matchId",
          "type": "uint256"
        }
      ],
      "name": "getMatchPlayer",
      "outputs": [
        {
          "name": "",
          "type": "address"
        }
      ],
      "payable": false,
      "stateMutability": "view",
      "type": "function"
    },
    {
      "constant": false,
      "inputs": [
        {
          "name": "_gameId",
          "type": "uint256"
        },
        {
          "name": "_matchId",
          "type": "uint256"
        },
        {
          "name": "_score",
          "type": "uint256"
        }
      ],
      "name": "matchPlayed",
      "outputs": [
        {
          "name": "shares",
          "type": "uint256"
        }
      ],
      "payable": false,
      "stateMutability": "nonpayable",
      "type": "function"
    },
    {
      "constant": true,
      "inputs": [
        {
          "name": "_gameId",
          "type": "uint256"
        },
        {
          "name": "_matchId",
          "type": "uint256"
        }
      ],
      "name": "getGameMatchScore",
      "outputs": [
        {
          "name": "",
          "type": "uint256"
        }
      ],
      "payable": false,
      "stateMutability": "view",
      "type": "function"
    },
    {
      "constant": true,
      "inputs": [
        {
          "name": "_gameId",
          "type": "uint256"
        }
      ],
      "name": "getRecordList",
      "outputs": [
        {
          "name": "",
          "type": "string"
        }
      ],
      "payable": false,
      "stateMutability": "view",
      "type": "function"
    },
    {
      "constant": false,
      "inputs": [
        {
          "name": "_gameId",
          "type": "uint256"
        },
        {
          "name": "_player",
          "type": "address"
        }
      ],
      "name": "releaseReward",
      "outputs": [
        {
          "name": "amount",
          "type": "uint256"
        }
      ],
      "payable": false,
      "stateMutability": "nonpayable",
      "type": "function"
    }
  ],
  "bytecode": "0x6080604081905260008054600160a060020a0319163317808255600160a060020a0316917f8be0079c531659141344cd1fd0a4f28419497f9722a3daafe3b4186f6b6457e0908290a361005a33640100000000610069810204565b6002805460ff191690556101e0565b61008160018264010000000061149e6100b882021704565b604051600160a060020a038216907f6719d08c1888103bea251a4ed56406bd0c3e69723c8a1686e017e7bbe159b6f890600090a250565b6100cb828264010000000061015c810204565b1561013757604080517f08c379a000000000000000000000000000000000000000000000000000000000815260206004820152601f60248201527f526f6c65733a206163636f756e7420616c72656164792068617320726f6c6500604482015290519081900360640190fd5b600160a060020a0316600090815260209190915260409020805460ff19166001179055565b6000600160a060020a03821615156101c0576040517f08c379a000000000000000000000000000000000000000000000000000000000815260040180806020018281038252602281526020018062003bb96022913960400191505060405180910390fd5b50600160a060020a03166000908152602091909152604090205460ff1690565b6139c980620001f06000396000f3fe6080604052600436106200014b576000357c01000000000000000000000000000000000000000000000000000000009004806382dc1ec411620000cc578063960df31b116200008a578063960df31b1462000420578063ce6e18a91462000454578063ef193b221462000488578063f2fde38b146200052e578063f6a0adb01462000565576200014b565b806382dc1ec414620003575780638456cb59146200038e57806387249d0814620003a65780638da5cb5b14620003d45780638f32d59b1462000408576200014b565b80635c975abb116200011a5780635c975abb14620002c157806365f77f0d14620002d95780636ef8d66d14620002f9578063715018a61462000311578063788ffc641462000329576200014b565b8063188a2ac9146200014d5780633f4ba83a146200019957806346fbf68e14620001b15780634aefbbe714620001fc575b005b3480156200015a57600080fd5b5062000187600480360360608110156200017357600080fd5b5080359060208101359060400135620005a2565b60408051918252519081900360200190f35b348015620001a657600080fd5b506200014b62000654565b348015620001be57600080fd5b50620001e860048036036020811015620001d757600080fd5b5035600160a060020a03166200073d565b604080519115158252519081900360200190f35b3480156200020957600080fd5b5062000187600480360360408110156200022257600080fd5b8101906020810181356401000000008111156200023e57600080fd5b8201836020820111156200025157600080fd5b803590602001918460018302840111640100000000831117156200027457600080fd5b91908080601f01602080910402602001604051908101604052809392919081815260200183838082843760009201919091525092955050509035600160a060020a03169150620007589050565b348015620002ce57600080fd5b50620001e86200098b565b6200018760048036036020811015620002f157600080fd5b503562000994565b3480156200030657600080fd5b506200014b62000b64565b3480156200031e57600080fd5b506200014b62000b71565b3480156200033657600080fd5b506200014b600480360360208110156200034f57600080fd5b503562000c18565b3480156200036457600080fd5b506200014b600480360360208110156200037d57600080fd5b5035600160a060020a031662000d35565b3480156200039b57600080fd5b506200014b62000d90565b348015620003b357600080fd5b506200014b60048036036020811015620003cc57600080fd5b503562000e6a565b348015620003e157600080fd5b50620003ec62000f6b565b60408051600160a060020a039092168252519081900360200190f35b3480156200041557600080fd5b50620001e862000f7a565b3480156200042d57600080fd5b50620003ec600480360360408110156200044657600080fd5b508035906020013562000f8b565b3480156200046157600080fd5b5062000187600480360360408110156200047a57600080fd5b50803590602001356200102e565b3480156200049557600080fd5b50620004b660048036036020811015620004ae57600080fd5b50356200109c565b6040805160208082528351818301528351919283929083019185019080838360005b83811015620004f2578181015183820152602001620004d8565b50505050905090810190601f168015620005205780820380516001836020036101000a031916815260200191505b509250505060405180910390f35b3480156200053b57600080fd5b506200014b600480360360208110156200055457600080fd5b5035600160a060020a031662001198565b3480156200057257600080fd5b5062000187600480360360408110156200058b57600080fd5b5080359060200135600160a060020a0316620011f3565b60008381526003602090815260408083205481517f89346b8100000000000000000000000000000000000000000000000000000000815260048101879052336024820152604481018690529151600160a060020a03909116926389346b81926064808201939182900301818787803b1580156200061e57600080fd5b505af115801562000633573d6000803e3d6000fd5b505050506040513d60208110156200064a57600080fd5b5051949350505050565b6200065f336200073d565b1515620006a15760405160e560020a62461bcd028152600401808060200182810382526030815260200180620038c56030913960400191505060405180910390fd5b60025460ff161515620006fe576040805160e560020a62461bcd02815260206004820152601460248201527f5061757361626c653a206e6f7420706175736564000000000000000000000000604482015290519081900360640190fd5b6002805460ff191690556040805133815290517f5db9ee0a495bf2e6ff9c91a7834c1ba4fdd244a5e8aa4e537bd38aeae4b073aa9181900360200190a1565b60006200075260018363ffffffff6200127816565b92915050565b60006200076462000f7a565b1515620007aa576040805160e560020a62461bcd02815260206004820181905260248201526000805160206200393c833981519152604482015290519081900360640190fd5b60025460ff1615620007f5576040805160e560020a62461bcd02815260206004820152601060248201526000805160206200397e833981519152604482015290519081900360640190fd5b600480546001810190915560405184908490620008129062001525565b600160a060020a03821660208083019190915260408083528451908301528351829160608301919086019080838360005b838110156200085d57818101518382015260200162000843565b50505050905090810190601f1680156200088b5780820380516001836020036101000a031916815260200191505b509350505050604051809103906000f080158015620008ae573d6000803e3d6000fd5b506000828152600360209081526040808320805473ffffffffffffffffffffffffffffffffffffffff1916600160a060020a0395861617905580518281528851818401528851948816947ff9f6e4ad74bcf5eb5da61059a3db330539bb8fb39990e643ef0fbb0bfa7c7c42948a949293849390840192908601918190849084905b83811015620009495781810151838201526020016200092f565b50505050905090810190601f168015620009775780820380516001836020036101000a031916815260200191505b509250505060405180910390a25092915050565b60025460ff1690565b600254600090829060ff1615620009e4576040805160e560020a62461bcd02815260206004820152601060248201526000805160206200397e833981519152604482015290519081900360640190fd5b6000838152600360209081526040918290205482517f692518780000000000000000000000000000000000000000000000000000000081523360048201529251600160a060020a0390911692636925187892349260248084019382900301818588803b15801562000a5457600080fd5b505af115801562000a69573d6000803e3d6000fd5b50505050506040513d602081101562000a8157600080fd5b505160008281526003602090815260408083205481517f1d4a0ec400000000000000000000000000000000000000000000000000000000815291519496509293600160a060020a0390931692631d4a0ec492600480840193919291829003018186803b15801562000af157600080fd5b505afa15801562000b06573d6000803e3d6000fd5b505050506040513d602081101562000b1d57600080fd5b505134039050600081111562000b5d57604051339082156108fc029083906000818181858888f1935050505015801562000b5b573d6000803e3d6000fd5b505b5050919050565b62000b6f33620012e6565b565b62000b7b62000f7a565b151562000bc1576040805160e560020a62461bcd02815260206004820181905260248201526000805160206200393c833981519152604482015290519081900360640190fd5b60008054604051600160a060020a03909116907f8be0079c531659141344cd1fd0a4f28419497f9722a3daafe3b4186f6b6457e0908390a36000805473ffffffffffffffffffffffffffffffffffffffff19169055565b62000c2262000f7a565b151562000c68576040805160e560020a62461bcd02815260206004820181905260248201526000805160206200393c833981519152604482015290519081900360640190fd5b60025460ff161562000cb3576040805160e560020a62461bcd02815260206004820152601060248201526000805160206200397e833981519152604482015290519081900360640190fd5b6000818152600360205260408082205481517f2ee99d500000000000000000000000000000000000000000000000000000000081529151600160a060020a0390911692632ee99d50926004808201939182900301818387803b15801562000d1957600080fd5b505af115801562000d2e573d6000803e3d6000fd5b5050505050565b62000d40336200073d565b151562000d825760405160e560020a62461bcd028152600401808060200182810382526030815260200180620038c56030913960400191505060405180910390fd5b62000d8d8162001330565b50565b62000d9b336200073d565b151562000ddd5760405160e560020a62461bcd028152600401808060200182810382526030815260200180620038c56030913960400191505060405180910390fd5b60025460ff161562000e28576040805160e560020a62461bcd02815260206004820152601060248201526000805160206200397e833981519152604482015290519081900360640190fd5b6002805460ff191660011790556040805133815290517f62e78cea01bee320cd4e420270b5ea74000d11b0c9f74754ebdbfc544b05a2589181900360200190a1565b62000e7462000f7a565b151562000eba576040805160e560020a62461bcd02815260206004820181905260248201526000805160206200393c833981519152604482015290519081900360640190fd5b60025460ff161562000f05576040805160e560020a62461bcd02815260206004820152601060248201526000805160206200397e833981519152604482015290519081900360640190fd5b6000818152600360205260408082205481517ff6f14dfe0000000000000000000000000000000000000000000000000000000081529151600160a060020a039091169263f6f14dfe926004808201939182900301818387803b15801562000d1957600080fd5b600054600160a060020a031690565b600054600160a060020a0316331490565b60008281526003602090815260408083205481517f5e4347a1000000000000000000000000000000000000000000000000000000008152600481018690529151600160a060020a0390911692635e4347a19260248082019391829003018186803b15801562000ff957600080fd5b505afa1580156200100e573d6000803e3d6000fd5b505050506040513d60208110156200102557600080fd5b50519392505050565b60008281526003602090815260408083205481517f31e121d2000000000000000000000000000000000000000000000000000000008152600481018690529151600160a060020a03909116926331e121d29260248082019391829003018186803b15801562000ff957600080fd5b6000818152600360205260408082205481517f5404470b0000000000000000000000000000000000000000000000000000000081529151606093600160a060020a0390921692635404470b926004808301939192829003018186803b1580156200110557600080fd5b505afa1580156200111a573d6000803e3d6000fd5b505050506040513d6000823e601f3d908101601f1916820160405260208110156200114457600080fd5b8101908080516401000000008111156200115d57600080fd5b820160208101848111156200117157600080fd5b81516401000000008111828201871017156200118c57600080fd5b50909695505050505050565b620011a262000f7a565b1515620011e8576040805160e560020a62461bcd02815260206004820181905260248201526000805160206200393c833981519152604482015290519081900360640190fd5b62000d8d816200137a565b60008281526003602090815260408083205481517f456cc3e8000000000000000000000000000000000000000000000000000000008152600160a060020a0386811660048301529251929091169263456cc3e89260248084019382900301818787803b1580156200126357600080fd5b505af11580156200100e573d6000803e3d6000fd5b6000600160a060020a0382161515620012c65760405160e560020a62461bcd0281526004018080602001828103825260228152602001806200395c6022913960400191505060405180910390fd5b50600160a060020a03166000908152602091909152604090205460ff1690565b620012f960018263ffffffff6200142e16565b604051600160a060020a038216907fcd265ebaf09df2871cc7bd4133404a235ba12eff2041bb89d9c714a2621c7c7e90600090a250565b6200134360018263ffffffff6200149e16565b604051600160a060020a038216907f6719d08c1888103bea251a4ed56406bd0c3e69723c8a1686e017e7bbe159b6f890600090a250565b600160a060020a0381161515620013c65760405160e560020a62461bcd028152600401808060200182810382526026815260200180620038f56026913960400191505060405180910390fd5b60008054604051600160a060020a03808516939216917f8be0079c531659141344cd1fd0a4f28419497f9722a3daafe3b4186f6b6457e091a36000805473ffffffffffffffffffffffffffffffffffffffff1916600160a060020a0392909216919091179055565b6200143a828262001278565b15156200147c5760405160e560020a62461bcd0281526004018080602001828103825260218152602001806200391b6021913960400191505060405180910390fd5b600160a060020a0316600090815260209190915260409020805460ff19169055565b620014aa828262001278565b1562001500576040805160e560020a62461bcd02815260206004820152601f60248201527f526f6c65733a206163636f756e7420616c72656164792068617320726f6c6500604482015290519081900360640190fd5b600160a060020a0316600090815260209190915260409020805460ff19166001179055565b61239180620015348339019056fe608060405260646001553480156200001657600080fd5b506040516200239138038062002391833981018060405260408110156200003c57600080fd5b8101908080516401000000008111156200005557600080fd5b820160208101848111156200006957600080fd5b81516401000000008111828201871017156200008457600080fd5b505060209091015160008054600160a060020a0319163317808255604051939550919350600160a060020a0391909116917f8be0079c531659141344cd1fd0a4f28419497f9722a3daafe3b4186f6b6457e0908290a360408051600a80825261016082019092526060916020820161014080388339505084519192506200011491600291506020860190620001c4565b5060038054600160a060020a031916600160a060020a03841617905580516200014590600490602084019062000249565b506000600755604051620001599062000286565b604051809103906000f08015801562000176573d6000803e3d6000fd5b506006805460a060020a60ff0219600160a060020a0393909316600160a060020a031990911617919091167401000000000000000000000000000000000000000017905550620002b4915050565b828054600181600116156101000203166002900490600052602060002090601f016020900481019282601f106200020757805160ff191683800117855562000237565b8280016001018555821562000237579182015b82811115620002375782518255916020019190600101906200021a565b506200024592915062000294565b5090565b828054828255906000526020600020908101928215620002375791602002820182811115620002375782518255916020019190600101906200021a565b610b58806200183983390190565b620002b191905b808211156200024557600081556001016200029b565b90565b61157580620002c46000396000f3fe608060405260043610610105576000357c01000000000000000000000000000000000000000000000000000000009004806369251878116100a75780638da5cb5b116100765780638da5cb5b1461034b5780638f32d59b14610360578063f2fde38b14610375578063f6f14dfe146103a857610105565b8063692518781461029e578063715018a6146102c457806386197781146102d957806389346b811461030c57610105565b806331e121d2116100e357806331e121d214610171578063456cc3e81461019b5780635404470b146101ce5780635e4347a11461025857610105565b80631d4a0ec41461010a57806322f3e2d4146101315780632ee99d501461015a575b600080fd5b34801561011657600080fd5b5061011f6103bd565b60408051918252519081900360200190f35b34801561013d57600080fd5b506101466103c3565b604080519115158252519081900360200190f35b34801561016657600080fd5b5061016f6103d3565b005b34801561017d57600080fd5b5061011f6004803603602081101561019457600080fd5b5035610445565b3480156101a757600080fd5b5061011f600480360360208110156101be57600080fd5b5035600160a060020a031661045d565b3480156101da57600080fd5b506101e361053a565b6040805160208082528351818301528351919283929083019185019080838360005b8381101561021d578181015183820152602001610205565b50505050905090810190601f16801561024a5780820380516001836020036101000a031916815260200191505b509250505060405180910390f35b34801561026457600080fd5b506102826004803603602081101561027b57600080fd5b5035610850565b60408051600160a060020a039092168252519081900360200190f35b61011f600480360360208110156102b457600080fd5b5035600160a060020a031661086b565b3480156102d057600080fd5b5061016f610ae0565b3480156102e557600080fd5b5061011f600480360360208110156102fc57600080fd5b5035600160a060020a0316610b83565b34801561031857600080fd5b5061011f6004803603606081101561032f57600080fd5b50803590600160a060020a036020820135169060400135610c1f565b34801561035757600080fd5b50610282610f26565b34801561036c57600080fd5b50610146610f35565b34801561038157600080fd5b5061016f6004803603602081101561039857600080fd5b5035600160a060020a0316610f46565b3480156103b457600080fd5b5061016f610f9e565b60015490565b60065460a060020a900460ff1690565b6103db610f35565b151561041f576040805160e560020a62461bcd02815260206004820181905260248201526000805160206114ca833981519152604482015290519081900360640190fd5b6006805474ff0000000000000000000000000000000000000000191660a060020a179055565b6000818152600860205260409020600101545b919050565b600654604080517f19165587000000000000000000000000000000000000000000000000000000008152600160a060020a0384811660048301529151600093929092169163191655879160248082019260209290919082900301818787803b1580156104c857600080fd5b505af11580156104dc573d6000803e3d6000fd5b505050506040513d60208110156104f257600080fd5b5051604080518281529051919250600160a060020a038416917fb51b2c60dc4dc89cebf9a83cd183921dd13c23edeec74c110a543d18f79005ee9181900360200190a2919050565b60408051808201909152600181527f5b00000000000000000000000000000000000000000000000000000000000000602082015260005b600454811015610805576107a46040805190810160405280600181526020017f7d000000000000000000000000000000000000000000000000000000000000008152506107986105ef600860006004878154811015156105cd57fe5b906000526020600020015481526020019081526020016000206001015461100a565b6107986040805190810160405280600b81526020017f222c202273636f7265223a0000000000000000000000000000000000000000008152506107986008600060048a81548110151561063e57fe5b60009182526020808320909101548352820192909252604090810182205481517f5e57966d000000000000000000000000000000000000000000000000000000008152600160a060020a039091166004820152905173__Strings_______________________________92635e57966d9260248082019391829003018186803b1580156106ca57600080fd5b505af41580156106de573d6000803e3d6000fd5b505050506040513d6000823e601f3d908101601f19168201604052602081101561070757600080fd5b81019080805164010000000081111561071f57600080fd5b8201602081018481111561073257600080fd5b815164010000000081118282018710171561074c57600080fd5b505060408051808201909152600c81527f7b2261646472657373223a220000000000000000000000000000000000000000602082015290935061079892508c915063ffffffff61110616565b9063ffffffff61110616565b600454909250600019018110156107fd5760408051808201909152600181527f2c0000000000000000000000000000000000000000000000000000000000000060208201526107fa90839063ffffffff61110616565b91505b600101610571565b5060408051808201909152600181527f5d00000000000000000000000000000000000000000000000000000000000000602082015261084b90829063ffffffff61110616565b905090565b600090815260086020526040902054600160a060020a031690565b60065460009060a060020a900460ff1615156108bb5760405160e560020a62461bcd0281526004018080602001828103825260288152602001806115226028913960400191505060405180910390fd5b6001543410156108ff5760405160e560020a62461bcd0281526004018080602001828103825260378152602001806114936037913960400191505060405180910390fd5b5060078054600101908190556040805160608101909152600160a060020a038316815260208101600081526000602091820181905283815260088252604090208251815473ffffffffffffffffffffffffffffffffffffffff1916600160a060020a0390911617808255918301519091829074ff0000000000000000000000000000000000000000191660a060020a83600181111561099a57fe5b021790555060409182015160019182015560065490549151600160a060020a039091169180156108fc02916000818181858888f193505050501580156109e4573d6000803e3d6000fd5b50604080516020808252600280546000196101006001831615020116819004918301829052600160a060020a0386169333937f90c7777e619d69b2daed83acb954eeceeb55aedf088bb477f0f84adb8814d76593909182919082019084908015610a8f5780601f10610a6457610100808354040283529160200191610a8f565b820191906000526020600020905b815481529060010190602001808311610a7257829003601f168201915b50509250505060405180910390a360015434036000811115610ada57604051339082156108fc029083906000818181858888f19350505050158015610ad8573d6000803e3d6000fd5b505b50919050565b610ae8610f35565b1515610b2c576040805160e560020a62461bcd02815260206004820181905260248201526000805160206114ca833981519152604482015290519081900360640190fd5b60008054604051600160a060020a03909116907f8be0079c531659141344cd1fd0a4f28419497f9722a3daafe3b4186f6b6457e0908390a36000805473ffffffffffffffffffffffffffffffffffffffff19169055565b600654604080517f86197781000000000000000000000000000000000000000000000000000000008152600160a060020a03848116600483015291516000939290921691638619778191602480820192602092909190829003018186803b158015610bed57600080fd5b505afa158015610c01573d6000803e3d6000fd5b505050506040513d6020811015610c1757600080fd5b505192915050565b60065460009060a060020a900460ff161515610c6f5760405160e560020a62461bcd0281526004018080602001828103825260288152602001806115226028913960400191505060405180910390fd5b60008481526008602052604090205484908490600160a060020a03808316911614610cce5760405160e560020a62461bcd0281526004018080602001828103825260388152602001806114ea6038913960400191505060405180910390fd5b610cd6610f35565b1515610d1a576040805160e560020a62461bcd02815260206004820181905260248201526000805160206114ca833981519152604482015290519081900360640190fd5b6000808781526008602052604090205460a060020a900460ff166001811115610d3f57fe5b14610d7e5760405160e560020a62461bcd02815260040180806020018281038252602c815260200180611467602c913960400191505060405180910390fd5b6000868152600860205260408120805474ff0000000000000000000000000000000000000000191660a060020a178155600101859055610dbd87611247565b600654604080517f18f9b023000000000000000000000000000000000000000000000000000000008152600160a060020a038a811660048301526024820185905291519394509116916318f9b023916044808201926020929091908290030181600087803b158015610e2e57600080fd5b505af1158015610e42573d6000803e3d6000fd5b505050506040513d6020811015610e5857600080fd5b50516040805160208101889052818152600280546000196101006001831615020116819004928201839052929650600160a060020a038916927f817459fef0397286d149325f99904d000bbbd0f1f515a4fe3c811230b19fcdd592909189918190606082019085908015610f0d5780601f10610ee257610100808354040283529160200191610f0d565b820191906000526020600020905b815481529060010190602001808311610ef057829003601f168201915b5050935050505060405180910390a25050509392505050565b600054600160a060020a031690565b600054600160a060020a0316331490565b610f4e610f35565b1515610f92576040805160e560020a62461bcd02815260206004820181905260248201526000805160206114ca833981519152604482015290519081900360640190fd5b610f9b8161138e565b50565b610fa6610f35565b1515610fea576040805160e560020a62461bcd02815260206004820181905260248201526000805160206114ca833981519152604482015290519081900360640190fd5b6006805474ff000000000000000000000000000000000000000019169055565b606081151561104d575060408051808201909152600181527f30000000000000000000000000000000000000000000000000000000000000006020820152610458565b8160005b811561106557600101600a82049150611051565b6060816040519080825280601f01601f191660200182016040528015611092576020820181803883390190505b50905060001982015b85156110fd57815160001982019160f860020a6030600a8a0601029184919081106110c257fe5b9060200101907effffffffffffffffffffffffffffffffffffffffffffffffffffffffffffff1916908160001a905350600a8604955061109b565b50949350505050565b6060808390506060839050606081518351016040519080825280601f01601f191660200182016040528015611142576020820181803883390190505b509050806000805b85518110156111c057858181518110151561116157fe5b90602001015160f860020a900460f860020a02838380600101945081518110151561118857fe5b9060200101907effffffffffffffffffffffffffffffffffffffffffffffffffffffffffffff1916908160001a90535060010161114a565b5060005b845181101561123a5784818151811015156111db57fe5b90602001015160f860020a900460f860020a02838380600101945081518110151561120257fe5b9060200101907effffffffffffffffffffffffffffffffffffffffffffffffffffffffffffff1916908160001a9053506001016111c4565b5090979650505050505050565b600081815260086020526040812060018101549054600160a060020a0316600a835b6004548110156112c15760006008600060048481548110151561128857fe5b90600052602060002001548152602001908152602001600020600101549050808511156112b857819250506112c1565b50600101611269565b5060045481101561138657600454600019015b8181111561131d576004805460001983019081106112ee57fe5b906000526020600020015460048281548110151561130857fe5b600091825260209091200155600019016112d4565b508460048281548110151561132e57fe5b906000526020600020018190555081600160a060020a03167f3fca1d31761045824cfd4568d16a2c117202650a2125a521cbf48ddeb50d63358285604051808381526020018281526020019250505060405180910390a25b949350505050565b600160a060020a03811615156113d85760405160e560020a62461bcd0281526004018080602001828103825260268152602001806114416026913960400191505060405180910390fd5b60008054604051600160a060020a03808516939216917f8be0079c531659141344cd1fd0a4f28419497f9722a3daafe3b4186f6b6457e091a36000805473ffffffffffffffffffffffffffffffffffffffff1916600160a060020a039290921691909117905556fe4f776e61626c653a206e6577206f776e657220697320746865207a65726f2061646472657373706c61794d617463683a20546865206d617463682068617320616c7265616479206265656e20706c6179656454686520616d6f756e742070616964206973206e6f742073756666696369656e7420746f20707572636861736520746865206d617463684f776e61626c653a2063616c6c6572206973206e6f7420746865206f776e657243727970746f41726361646547616d653a20546865206164647265737320646964206e6f7420707572636861736520746865206d6174636843727970746f41726361646547616d653a205468652067616d65206973206e6f7420616374697665a165627a7a723058205e64c05a9b20c1e1bd664d7808b48a9b6f38b7a5dd399728fb5567b93cd5aa0200296080604081905260008054600160a060020a0319163317808255600160a060020a0316917f8be0079c531659141344cd1fd0a4f28419497f9722a3daafe3b4186f6b6457e0908290a3610b01806100576000396000f3fe608060405260043610610098576000357c0100000000000000000000000000000000000000000000000000000000900480638da5cb5b1161006b5780638da5cb5b1461019c5780638f32d59b146101cd578063f2fde38b146101f6578063fc6db4f41461022957610098565b806318f9b023146100d4578063191655871461011f578063715018a6146101525780638619778114610169575b6040805133815234602082015281517f6ef95f06320e7a25a04a175ca677b7052bdd97131872c2192525a629f51be770929181900390910190a1005b3480156100e057600080fd5b5061010d600480360360408110156100f757600080fd5b50600160a060020a03813516906020013561025c565b60408051918252519081900360200190f35b34801561012b57600080fd5b5061010d6004803603602081101561014257600080fd5b5035600160a060020a03166103b9565b34801561015e57600080fd5b506101676105a2565b005b34801561017557600080fd5b5061010d6004803603602081101561018c57600080fd5b5035600160a060020a0316610657565b3480156101a857600080fd5b506101b1610672565b60408051600160a060020a039092168252519081900360200190f35b3480156101d957600080fd5b506101e2610681565b604080519115158252519081900360200190f35b34801561020257600080fd5b506101676004803603602081101561021957600080fd5b5035600160a060020a0316610692565b34801561023557600080fd5b5061010d6004803603602081101561024c57600080fd5b5035600160a060020a03166106fc565b6000610266610681565b15156102bc576040805160e560020a62461bcd02815260206004820181905260248201527f4f776e61626c653a2063616c6c6572206973206e6f7420746865206f776e6572604482015290519081900360640190fd5b600160a060020a03831615156103065760405160e560020a62461bcd02815260040180806020018281038252602b815260200180610a3f602b913960400191505060405180910390fd5b61030f82610717565b600160a060020a03841660009081526003602052604090205490915061033b908263ffffffff6107cd16565b600160a060020a038416600090815260036020526040902055600154610367908263ffffffff6107cd16565b60015560408051600160a060020a03851681526020810184905280820183905290517fb3c52e7e1d58db9d4d5f530a5a71ac54a2fd63e3fcaed60f24c35adf352c21e19181900360600190a192915050565b600160a060020a03811660009081526003602052604081205481106104125760405160e560020a62461bcd028152600401808060200182810382526025815260200180610a906025913960400191505060405180910390fd5b60025460009061042a9030319063ffffffff6107cd16565b600160a060020a03841660009081526004602090815260408083205460015460039093529220549293506104869261047a919061046e90869063ffffffff61083316565b9063ffffffff61089316565b9063ffffffff61090216565b91508115156104c95760405160e560020a62461bcd02815260040180806020018281038252602a815260200180610a15602a913960400191505060405180910390fd5b600160a060020a0383166000908152600460205260409020546104f2908363ffffffff6107cd16565b600160a060020a03841660009081526004602052604090205560025461051e908363ffffffff6107cd16565b600255604051600160a060020a0384169083156108fc029084906000818181858888f19350505050158015610557573d6000803e3d6000fd5b5060408051600160a060020a03851681526020810184905281517fdf20fd1e76bc69d672e4814fafb2c449bba3a5369d8359adf9e05e6fde87b056929181900390910190a150919050565b6105aa610681565b1515610600576040805160e560020a62461bcd02815260206004820181905260248201527f4f776e61626c653a2063616c6c6572206973206e6f7420746865206f776e6572604482015290519081900360640190fd5b60008054604051600160a060020a03909116907f8be0079c531659141344cd1fd0a4f28419497f9722a3daafe3b4186f6b6457e0908390a36000805473ffffffffffffffffffffffffffffffffffffffff19169055565b600160a060020a031660009081526004602052604090205490565b600054600160a060020a031690565b600054600160a060020a0316331490565b61069a610681565b15156106f0576040805160e560020a62461bcd02815260206004820181905260248201527f4f776e61626c653a2063616c6c6572206973206e6f7420746865206f776e6572604482015290519081900360640190fd5b6106f981610962565b50565b600160a060020a031660009081526003602052604090205490565b6000818015610771576001811461077a5760028114610783576003811461078c5760048114610795576005811461079e57600681146107a757600781146107b057600881146107b957600981146107c257600091506107c7565b603291506107c7565b602d91506107c7565b602891506107c7565b602391506107c7565b601e91506107c7565b601991506107c7565b601491506107c7565b600f91506107c7565b600a91506107c7565b600591505b50919050565b60008282018381101561082a576040805160e560020a62461bcd02815260206004820152601b60248201527f536166654d6174683a206164646974696f6e206f766572666c6f770000000000604482015290519081900360640190fd5b90505b92915050565b60008215156108445750600061082d565b82820282848281151561085357fe5b041461082a5760405160e560020a62461bcd028152600401808060200182810382526021815260200180610ab56021913960400191505060405180910390fd5b60008082116108ec576040805160e560020a62461bcd02815260206004820152601a60248201527f536166654d6174683a206469766973696f6e206279207a65726f000000000000604482015290519081900360640190fd5b600082848115156108f957fe5b04949350505050565b60008282111561095c576040805160e560020a62461bcd02815260206004820152601e60248201527f536166654d6174683a207375627472616374696f6e206f766572666c6f770000604482015290519081900360640190fd5b50900390565b600160a060020a03811615156109ac5760405160e560020a62461bcd028152600401808060200182810382526026815260200180610a6a6026913960400191505060405180910390fd5b60008054604051600160a060020a03808516939216917f8be0079c531659141344cd1fd0a4f28419497f9722a3daafe3b4186f6b6457e091a36000805473ffffffffffffffffffffffffffffffffffffffff1916600160a060020a039290921691909117905556fe52657761726453706c69747465723a206163636f756e74206973206e6f7420647565207061796d656e7452657761726453706c69747465723a206163636f756e7420697320746865207a65726f20616464726573734f776e61626c653a206e6577206f776e657220697320746865207a65726f206164647265737352657761726453706c69747465723a206163636f756e7420686173206e6f20736861726573536166654d6174683a206d756c7469706c69636174696f6e206f766572666c6f77a165627a7a723058200ca2da1a0c6b5e818379a8258ee8d5f4d5d29f0fa63e91826eaf51613397ae220029506175736572526f6c653a2063616c6c657220646f6573206e6f742068617665207468652050617573657220726f6c654f776e61626c653a206e6577206f776e657220697320746865207a65726f2061646472657373526f6c65733a206163636f756e7420646f6573206e6f74206861766520726f6c654f776e61626c653a2063616c6c6572206973206e6f7420746865206f776e6572526f6c65733a206163636f756e7420697320746865207a65726f20616464726573735061757361626c653a2070617573656400000000000000000000000000000000a165627a7a723058208ef9fb6d76ecc9fe71a36618437d318723af7d3070681562116396c0c7f26b740029526f6c65733a206163636f756e7420697320746865207a65726f2061646472657373",
  "source": "pragma solidity ^0.5.0;\n\nimport \"openzeppelin-solidity/contracts/ownership/Ownable.sol\";\nimport \"openzeppelin-solidity/contracts/lifecycle/Pausable.sol\";\n\nimport \"./CryptoArcadeGame.sol\";\nimport \"./RewardSplitter.sol\";\n\n/**\n * @dev Contract module which provides a basic access control mechanism, where\n * there is an account (an owner) that can be granted exclusive access to\n * specific functions.\n *\n * This module is used through inheritance. It will make available the modifier\n * `onlyOwner`, which can be aplied to your functions to restrict their use to\n * the owner.\n */\n\ncontract CryptoArcade is Ownable, Pausable {\n    // This contract represents game entities\n    // The idea is that games independent from the arcades they are registered to\n    // That provides greater flexibility as a gamer can buy a token for a game and spend it in any arcade\n    // The contract holds the address of the creators, the top 10 record table, the bounty and the purchased matches per gamer\n    // 1. Register new game\n\n    event LogGameRegistered(address indexed creator, string gameName);\n\n    mapping(uint256 => CryptoArcadeGame) private games;\n    uint256 private numRegisteredGames;\n\n    // Returns ether paid in excess by the player\n    modifier refundExcess(uint256 gameId) {\n        _;\n        uint256 paidInExcess = msg.value - games[gameId].getGameMatchPrice();\n        if (paidInExcess > 0) {\n            msg.sender.transfer(paidInExcess);\n        }\n    }\n\n    function() external payable {}\n\n    function registerGame(string memory _name, address _creator)\n        public\n        onlyOwner()\n        whenNotPaused()\n        returns (uint256)\n    {\n        uint256 gameId = numRegisteredGames++;\n\n        games[gameId] = new CryptoArcadeGame(_name, _creator);\n\n        emit LogGameRegistered(_creator, _name);\n    }\n    function deactivateGame(uint256 _gameId)\n        external\n        onlyOwner()\n        whenNotPaused()\n    {\n        games[_gameId].deactivateGame();\n    }\n\n    function activateGame(uint256 _gameId)\n        external\n        onlyOwner()\n        whenNotPaused()\n    {\n        games[_gameId].activateGame();\n    }\n\n    function purchaseMatch(uint256 _gameId)\n        public\n        payable\n        refundExcess(_gameId)\n        whenNotPaused()\n        returns (uint256 matchId)\n    {\n        matchId = games[_gameId].purchaseMatch.value(msg.value)(msg.sender);\n    }\n\n    function getMatchPlayer(uint256 _gameId, uint256 _matchId)\n        public\n        view\n        returns (address)\n    {\n        return games[_gameId].getMatchPlayer(_matchId);\n    }\n\n    function matchPlayed(uint256 _gameId, uint256 _matchId, uint256 _score)\n        public\n        returns (uint256 shares)\n    {\n        shares = games[_gameId].matchPlayed(_matchId, msg.sender, _score);\n    }\n\n    function getGameMatchScore(uint256 _gameId, uint256 _matchId)\n        external\n        view\n        returns (uint256)\n    {\n        return games[_gameId].getGameMatchScore(_matchId);\n    }\n\n    function getRecordList(uint256 _gameId)\n        external\n        view\n        returns (string memory)\n    {\n        return games[_gameId].getRecordList();\n    }\n\n    function releaseReward(uint256 _gameId, address payable _player)\n        public\n        returns (uint256 amount)\n    {\n        amount = games[_gameId].releaseReward(_player);\n    }\n}\n",
  "sourcePath": "/Volumes/Repository/Dropbox/project/thoughtfuldistractions/insertcrypto/code/contracts/CryptoArcade.sol",
  "compiler": {
    "name": "solc",
    "version": "0.5.4+commit.9549d8ff.Emscripten.clang"
  },
  "schemaVersion": "3.0.11",
  "updatedAt": "2019-07-31T23:31:42.504Z",
  "devdoc": {
    "details": "Contract module which provides a basic access control mechanism, where there is an account (an owner) that can be granted exclusive access to specific functions. * This module is used through inheritance. It will make available the modifier `onlyOwner`, which can be aplied to your functions to restrict their use to the owner.",
    "methods": {
      "isOwner()": {
        "details": "Returns true if the caller is the current owner."
      },
      "owner()": {
        "details": "Returns the address of the current owner."
      },
      "pause()": {
        "details": "Called by a pauser to pause, triggers stopped state."
      },
      "paused()": {
        "details": "Returns true if the contract is paused, and false otherwise."
      },
      "renounceOwnership()": {
        "details": "Leaves the contract without owner. It will not be possible to call `onlyOwner` functions anymore. Can only be called by the current owner.     * > Note: Renouncing ownership will leave the contract without an owner, thereby removing any functionality that is only available to the owner."
      },
      "transferOwnership(address)": {
        "details": "Transfers ownership of the contract to a new account (`newOwner`). Can only be called by the current owner."
      },
      "unpause()": {
        "details": "Called by a pauser to unpause, returns to normal state."
      }
    }
  },
  "userdoc": {
    "methods": {}
  }
}