{
  "contractName": "CryptoArcadeGame",
  "abi": [
    {
      "constant": false,
      "inputs": [],
      "name": "renounceOwnership",
      "outputs": [],
      "payable": false,
      "stateMutability": "nonpayable",
      "type": "function"
    },
    {
      "constant": true,
      "inputs": [],
      "name": "owner",
      "outputs": [
        {
          "name": "",
          "type": "address"
        }
      ],
      "payable": false,
      "stateMutability": "view",
      "type": "function"
    },
    {
      "constant": true,
      "inputs": [],
      "name": "isOwner",
      "outputs": [
        {
          "name": "",
          "type": "bool"
        }
      ],
      "payable": false,
      "stateMutability": "view",
      "type": "function"
    },
    {
      "constant": true,
      "inputs": [],
      "name": "MATCH_PRICE",
      "outputs": [
        {
          "name": "",
          "type": "uint256"
        }
      ],
      "payable": false,
      "stateMutability": "view",
      "type": "function"
    },
    {
      "constant": false,
      "inputs": [
        {
          "name": "newOwner",
          "type": "address"
        }
      ],
      "name": "transferOwnership",
      "outputs": [],
      "payable": false,
      "stateMutability": "nonpayable",
      "type": "function"
    },
    {
      "inputs": [
        {
          "name": "_name",
          "type": "string"
        },
        {
          "name": "_creator",
          "type": "address"
        },
        {
          "name": "_price",
          "type": "uint256"
        }
      ],
      "payable": false,
      "stateMutability": "nonpayable",
      "type": "constructor"
    },
    {
      "anonymous": false,
      "inputs": [
        {
          "indexed": true,
          "name": "player",
          "type": "address"
        },
        {
          "indexed": false,
          "name": "gameName",
          "type": "string"
        },
        {
          "indexed": false,
          "name": "score",
          "type": "uint256"
        }
      ],
      "name": "LogMatchPlayed",
      "type": "event"
    },
    {
      "anonymous": false,
      "inputs": [
        {
          "indexed": true,
          "name": "previousOwner",
          "type": "address"
        },
        {
          "indexed": true,
          "name": "newOwner",
          "type": "address"
        }
      ],
      "name": "OwnershipTransferred",
      "type": "event"
    },
    {
      "constant": true,
      "inputs": [],
      "name": "getMatchPrice",
      "outputs": [
        {
          "name": "",
          "type": "uint256"
        }
      ],
      "payable": false,
      "stateMutability": "view",
      "type": "function"
    },
    {
      "constant": true,
      "inputs": [],
      "name": "isActive",
      "outputs": [
        {
          "name": "",
          "type": "bool"
        }
      ],
      "payable": false,
      "stateMutability": "view",
      "type": "function"
    },
    {
      "constant": true,
      "inputs": [],
      "name": "gameMatchPrice",
      "outputs": [
        {
          "name": "",
          "type": "uint256"
        }
      ],
      "payable": false,
      "stateMutability": "view",
      "type": "function"
    },
    {
      "constant": true,
      "inputs": [
        {
          "name": "_player",
          "type": "address"
        }
      ],
      "name": "getNumberOfAvailableMatches",
      "outputs": [
        {
          "name": "",
          "type": "uint256"
        }
      ],
      "payable": false,
      "stateMutability": "view",
      "type": "function"
    },
    {
      "constant": false,
      "inputs": [
        {
          "name": "_player",
          "type": "address"
        }
      ],
      "name": "purchaseMatch",
      "outputs": [
        {
          "name": "matchId",
          "type": "uint256"
        }
      ],
      "payable": true,
      "stateMutability": "payable",
      "type": "function"
    },
    {
      "constant": false,
      "inputs": [],
      "name": "deactivateGame",
      "outputs": [],
      "payable": false,
      "stateMutability": "nonpayable",
      "type": "function"
    },
    {
      "constant": false,
      "inputs": [],
      "name": "activateGame",
      "outputs": [],
      "payable": false,
      "stateMutability": "nonpayable",
      "type": "function"
    },
    {
      "constant": false,
      "inputs": [
        {
          "name": "_player",
          "type": "address"
        }
      ],
      "name": "playMatch",
      "outputs": [
        {
          "name": "",
          "type": "uint256"
        }
      ],
      "payable": false,
      "stateMutability": "nonpayable",
      "type": "function"
    },
    {
      "constant": false,
      "inputs": [
        {
          "name": "_player",
          "type": "address"
        },
        {
          "name": "_score",
          "type": "uint256"
        }
      ],
      "name": "matchPlayed",
      "outputs": [
        {
          "name": "shares",
          "type": "uint256"
        }
      ],
      "payable": false,
      "stateMutability": "nonpayable",
      "type": "function"
    },
    {
      "constant": true,
      "inputs": [
        {
          "name": "_pos",
          "type": "uint256"
        }
      ],
      "name": "getRecordEntryAddress",
      "outputs": [
        {
          "name": "",
          "type": "address"
        }
      ],
      "payable": false,
      "stateMutability": "view",
      "type": "function"
    },
    {
      "constant": true,
      "inputs": [
        {
          "name": "_pos",
          "type": "uint256"
        }
      ],
      "name": "getRecordEntryScore",
      "outputs": [
        {
          "name": "",
          "type": "uint256"
        }
      ],
      "payable": false,
      "stateMutability": "view",
      "type": "function"
    },
    {
      "constant": true,
      "inputs": [
        {
          "name": "_player",
          "type": "address"
        }
      ],
      "name": "playerBalance",
      "outputs": [
        {
          "name": "",
          "type": "uint256"
        }
      ],
      "payable": false,
      "stateMutability": "view",
      "type": "function"
    },
    {
      "constant": false,
      "inputs": [
        {
          "name": "_player",
          "type": "address"
        }
      ],
      "name": "releaseReward",
      "outputs": [
        {
          "name": "amount",
          "type": "uint256"
        }
      ],
      "payable": false,
      "stateMutability": "nonpayable",
      "type": "function"
    },
    {
      "constant": true,
      "inputs": [
        {
          "name": "_player",
          "type": "address"
        }
      ],
      "name": "getReleasedAmount",
      "outputs": [
        {
          "name": "",
          "type": "uint256"
        }
      ],
      "payable": false,
      "stateMutability": "view",
      "type": "function"
    }
  ],
  "bytecode": "0x60806040523480156200001157600080fd5b506040516200236e3803806200236e833981018060405260608110156200003757600080fd5b8101908080516401000000008111156200005057600080fd5b820160208101848111156200006457600080fd5b81516401000000008111828201871017156200007f57600080fd5b5050602082015160409283015160008054600160a060020a0319163317808255945193965091945092600160a060020a0316917f8be0079c531659141344cd1fd0a4f28419497f9722a3daafe3b4186f6b6457e0908290a38251620000ec906002906020860190620001b9565b5060038054600160a060020a031916600160a060020a03841617905560408051600a8082526101608201909252906020820161014080388339505081516200013c9260049250602001906200023e565b5060006006556200014c6200027b565b604051809103906000f08015801562000169573d6000803e3d6000fd5b506005805460a060020a60ff0219600160a060020a0393909316600160a060020a031990911617919091167401000000000000000000000000000000000000000017905560015550620002ac9050565b828054600181600116156101000203166002900490600052602060002090601f016020900481019282601f10620001fc57805160ff19168380011785556200022c565b828001600101855582156200022c579182015b828111156200022c5782518255916020019190600101906200020f565b506200023a9291506200028c565b5090565b8280548282559060005260206000209081019282156200022c57916020028201828111156200022c5782518255916020019190600101906200020f565b604051610bc080620017ae83390190565b620002a991905b808211156200023a576000815560010162000293565b90565b6114f280620002bc6000396000f3fe6080604052600436106101065763ffffffff7c010000000000000000000000000000000000000000000000000000000060003504166322f3e2d4811461010b5780632ee99d5014610134578063456cc3e81461014b5780634e33f83b146101905780635039dd77146101c35780635fd5eef9146101c357806369251878146101d8578063715018a6146101fe5780637719c46d146102135780637cbf4f291461024c57806386197781146102765780638c325513146102a95780638da5cb5b146102dc5780638f32d59b1461030d5780639674414714610322578063d07e4d8314610355578063f1fa0d371461036a578063f2fde38b14610394578063f6f14dfe146103c7575b600080fd5b34801561011757600080fd5b506101206103dc565b604080519115158252519081900360200190f35b34801561014057600080fd5b506101496103ec565b005b34801561015757600080fd5b5061017e6004803603602081101561016e57600080fd5b5035600160a060020a031661045e565b60408051918252519081900360200190f35b34801561019c57600080fd5b5061017e600480360360208110156101b357600080fd5b5035600160a060020a03166104fb565b3480156101cf57600080fd5b5061017e61057e565b61017e600480360360208110156101ee57600080fd5b5035600160a060020a0316610584565b34801561020a57600080fd5b50610149610829565b34801561021f57600080fd5b5061017e6004803603604081101561023657600080fd5b50600160a060020a0381351690602001356108cc565b34801561025857600080fd5b5061017e6004803603602081101561026f57600080fd5b5035610d43565b34801561028257600080fd5b5061017e6004803603602081101561029957600080fd5b5035600160a060020a0316610e08565b3480156102b557600080fd5b5061017e600480360360208110156102cc57600080fd5b5035600160a060020a0316610e72565b3480156102e857600080fd5b506102f1610f5f565b60408051600160a060020a039092168252519081900360200190f35b34801561031957600080fd5b50610120610f6e565b34801561032e57600080fd5b5061017e6004803603602081101561034557600080fd5b5035600160a060020a0316610f7f565b34801561036157600080fd5b5061017e611110565b34801561037657600080fd5b506102f16004803603602081101561038d57600080fd5b5035611116565b3480156103a057600080fd5b50610149600480360360208110156103b757600080fd5b5035600160a060020a03166111e3565b3480156103d357600080fd5b5061014961123b565b60055460a060020a900460ff1690565b6103f4610f6e565b1515610438576040805160e560020a62461bcd02815260206004820181905260248201526000805160206114a7833981519152604482015290519081900360640190fd5b6005805474ff0000000000000000000000000000000000000000191660a060020a179055565b600554604080517f19165587000000000000000000000000000000000000000000000000000000008152600160a060020a0384811660048301529151600093929092169163191655879160248082019260209290919082900301818787803b1580156104c957600080fd5b505af11580156104dd573d6000803e3d6000fd5b505050506040513d60208110156104f357600080fd5b505192915050565b600554604080517ffc6db4f4000000000000000000000000000000000000000000000000000000008152600160a060020a0384811660048301529151600093929092169163fc6db4f491602480820192602092909190829003018186803b15801561056557600080fd5b505afa1580156104dd573d6000803e3d6000fd5b919050565b60015490565b60055460009060a060020a900460ff161515610610576040805160e560020a62461bcd02815260206004820152602860248201527f43727970746f41726361646547616d653a205468652067616d65206973206e6f60448201527f7420616374697665000000000000000000000000000000000000000000000000606482015290519081900360840190fd5b600154341015610690576040805160e560020a62461bcd02815260206004820152603760248201527f54686520616d6f756e742070616964206973206e6f742073756666696369656e60448201527f7420746f20707572636861736520746865206d61746368000000000000000000606482015290519081900360840190fd5b610698610f6e565b15156106dc576040805160e560020a62461bcd02815260206004820181905260248201526000805160206114a7833981519152604482015290519081900360640190fd5b5060068054600101908190556040805160608101909152600160a060020a038316815260208101600081526000602091820181905283815260078252604090208251815473ffffffffffffffffffffffffffffffffffffffff1916600160a060020a0390911617808255918301519091829074ff0000000000000000000000000000000000000000191660a060020a83600181111561077757fe5b0217905550604091820151600191820155600160a060020a03808516600090815260086020908152848220805480860182559083529082200185905560055492549351929091169280156108fc02929091818181858888f193505050501580156107e5573d6000803e3d6000fd5b506001543403600081111561082357604051339082156108fc029083906000818181858888f19350505050158015610821573d6000803e3d6000fd5b505b50919050565b610831610f6e565b1515610875576040805160e560020a62461bcd02815260206004820181905260248201526000805160206114a7833981519152604482015290519081900360640190fd5b60008054604051600160a060020a03909116907f8be0079c531659141344cd1fd0a4f28419497f9722a3daafe3b4186f6b6457e0908390a36000805473ffffffffffffffffffffffffffffffffffffffff19169055565b60055460009060a060020a900460ff161515610958576040805160e560020a62461bcd02815260206004820152602860248201527f43727970746f41726361646547616d653a205468652067616d65206973206e6f60448201527f7420616374697665000000000000000000000000000000000000000000000000606482015290519081900360840190fd5b610960610f6e565b15156109a4576040805160e560020a62461bcd02815260206004820181905260248201526000805160206114a7833981519152604482015290519081900360640190fd5b6000805b600160a060020a038516600090815260086020526040902054811015610a8857600160a060020a03851660009081526008602052604081208054839081106109ec57fe5b90600052602060002001549050610a01611484565b6000828152600760209081526040918290208251606081019093528054600160a060020a0381168452909183019060a060020a900460ff166001811115610a4457fe5b6001811115610a4f57fe5b815260019182015460209091015290915081602001516001811115610a7057fe5b1415610a7e57509150610a88565b50506001016109a8565b50801515610b06576040805160e560020a62461bcd02815260206004820152603760248201527f4d61746368506c617965643a20546865726520617265206e6f206d617463686560448201527f7320706c6179656420746f206c6f6720616761696e7374000000000000000000606482015290519081900360840190fd5b600081815260076020526040902054600160a060020a03858116911614610b9d576040805160e560020a62461bcd02815260206004820152603260248201527f4d61746368506c617965643a2054686520706c6179657220646964206e6f742060448201527f707572636861736520746865206d617463680000000000000000000000000000606482015290519081900360840190fd5b6000818152600760205260408120805474ff0000000000000000000000000000000000000000191660a060020a178155600101849055610bdc826112a7565b600554604080517f18f9b023000000000000000000000000000000000000000000000000000000008152600160a060020a0389811660048301526024820185905291519394509116916318f9b023916044808201926020929091908290030181600087803b158015610c4d57600080fd5b505af1158015610c61573d6000803e3d6000fd5b505050506040513d6020811015610c7757600080fd5b50516040805160208101879052818152600280546000196101006001831615020116819004928201839052929550600160a060020a038816927f817459fef0397286d149325f99904d000bbbd0f1f515a4fe3c811230b19fcdd592909188918190606082019085908015610d2c5780601f10610d0157610100808354040283529160200191610d2c565b820191906000526020600020905b815481529060010190602001808311610d0f57829003601f168201915b5050935050505060405180910390a2505092915050565b6000600a82108015610d56575060008210155b1515610dd1576040805160e560020a62461bcd028152602060048201526024808201527f54686520706f736974696f6e206d757374206265206265747765656e2030206160448201527f6e64203900000000000000000000000000000000000000000000000000000000606482015290519081900360840190fd5b60076000600484815481101515610de457fe5b90600052602060002001548152602001908152602001600020600101549050919050565b600554604080517f86197781000000000000000000000000000000000000000000000000000000008152600160a060020a03848116600483015291516000939290921691638619778191602480820192602092909190829003018186803b15801561056557600080fd5b600080805b600160a060020a038416600090815260086020526040902054811015610f5857600160a060020a0384166000908152600860205260408120805483908110610ebb57fe5b90600052602060002001549050610ed0611484565b6000828152600760209081526040918290208251606081019093528054600160a060020a0381168452909183019060a060020a900460ff166001811115610f1357fe5b6001811115610f1e57fe5b8152600191909101546020909101529050600081602001516001811115610f4157fe5b1415610f4e576001909301925b5050600101610e77565b5092915050565b600054600160a060020a031690565b600054600160a060020a0316331490565b60055460009060a060020a900460ff16151561100b576040805160e560020a62461bcd02815260206004820152602860248201527f43727970746f41726361646547616d653a205468652067616d65206973206e6f60448201527f7420616374697665000000000000000000000000000000000000000000000000606482015290519081900360840190fd5b611013610f6e565b1515611057576040805160e560020a62461bcd02815260206004820181905260248201526000805160206114a7833981519152604482015290519081900360640190fd5b6000805b600160a060020a038416600090815260086020526040902054811015610f5857600160a060020a038416600090815260086020526040812080548390811061109f57fe5b600091825260208083209091015480835260079091526040822090925090815460a060020a900460ff1660018111156110d457fe5b141561110657805474ff0000000000000000000000000000000000000000191660a060020a1790559250610579915050565b505060010161105b565b60015481565b6000600a82108015611129575060008210155b15156111a4576040805160e560020a62461bcd028152602060048201526024808201527f54686520706f736974696f6e206d757374206265206265747765656e2030206160448201527f6e64203900000000000000000000000000000000000000000000000000000000606482015290519081900360840190fd5b600760006004848154811015156111b757fe5b60009182526020808320909101548352820192909252604001902054600160a060020a03169050919050565b6111eb610f6e565b151561122f576040805160e560020a62461bcd02815260206004820181905260248201526000805160206114a7833981519152604482015290519081900360640190fd5b61123881611396565b50565b611243610f6e565b1515611287576040805160e560020a62461bcd02815260206004820181905260248201526000805160206114a7833981519152604482015290519081900360640190fd5b6005805474ff000000000000000000000000000000000000000019169055565b600081815260076020526040812060010154600a825b600454811015611315576000600760006004848154811015156112dc57fe5b906000526020600020015481526020019081526020016000206001015490508084111561130c5781925050611315565b506001016112bd565b5060045481101561138f57600454600019015b818111156113715760048054600019830190811061134257fe5b906000526020600020015460048281548110151561135c57fe5b60009182526020909120015560001901611328565b508360048281548110151561138257fe5b6000918252602090912001555b9392505050565b600160a060020a038116151561141c576040805160e560020a62461bcd02815260206004820152602660248201527f4f776e61626c653a206e6577206f776e657220697320746865207a65726f206160448201527f6464726573730000000000000000000000000000000000000000000000000000606482015290519081900360840190fd5b60008054604051600160a060020a03808516939216917f8be0079c531659141344cd1fd0a4f28419497f9722a3daafe3b4186f6b6457e091a36000805473ffffffffffffffffffffffffffffffffffffffff1916600160a060020a0392909216919091179055565b604080516060810190915260008082526020820190815260200160008152509056fe4f776e61626c653a2063616c6c6572206973206e6f7420746865206f776e6572a165627a7a7230582076ae33de1d50d4e97b5a94e1b688aa2f2241aa4ff04ba07a4d66bfe7016d536f00296080604081905260008054600160a060020a0319163317808255600160a060020a0316917f8be0079c531659141344cd1fd0a4f28419497f9722a3daafe3b4186f6b6457e0908290a3610b69806100576000396000f3fe60806040526004361061008d5763ffffffff7c010000000000000000000000000000000000000000000000000000000060003504166318f9b02381146100c95780631916558714610114578063715018a614610147578063861977811461015e5780638da5cb5b146101915780638f32d59b146101c2578063f2fde38b146101eb578063fc6db4f41461021e575b6040805133815234602082015281517f6ef95f06320e7a25a04a175ca677b7052bdd97131872c2192525a629f51be770929181900390910190a1005b3480156100d557600080fd5b50610102600480360360408110156100ec57600080fd5b50600160a060020a038135169060200135610251565b60408051918252519081900360200190f35b34801561012057600080fd5b506101026004803603602081101561013757600080fd5b5035600160a060020a03166103f3565b34801561015357600080fd5b5061015c610655565b005b34801561016a57600080fd5b506101026004803603602081101561018157600080fd5b5035600160a060020a031661070a565b34801561019d57600080fd5b506101a6610725565b60408051600160a060020a039092168252519081900360200190f35b3480156101ce57600080fd5b506101d7610734565b604080519115158252519081900360200190f35b3480156101f757600080fd5b5061015c6004803603602081101561020e57600080fd5b5035600160a060020a0316610745565b34801561022a57600080fd5b506101026004803603602081101561024157600080fd5b5035600160a060020a03166107af565b600061025b610734565b15156102b1576040805160e560020a62461bcd02815260206004820181905260248201527f4f776e61626c653a2063616c6c6572206973206e6f7420746865206f776e6572604482015290519081900360640190fd5b600160a060020a0383161515610337576040805160e560020a62461bcd02815260206004820152602b60248201527f52657761726453706c69747465723a206163636f756e7420697320746865207a60448201527f65726f2061646472657373000000000000000000000000000000000000000000606482015290519081900360840190fd5b610340826107ca565b905060008111156103ed57600160a060020a038316600090815260036020526040902054610374908263ffffffff61088016565b600160a060020a0384166000908152600360205260409020556001546103a0908263ffffffff61088016565b60015560408051600160a060020a03851681526020810184905280820183905290517fb3c52e7e1d58db9d4d5f530a5a71ac54a2fd63e3fcaed60f24c35adf352c21e19181900360600190a15b92915050565b600160a060020a0381166000908152600360205260408120548110610488576040805160e560020a62461bcd02815260206004820152602560248201527f52657761726453706c69747465723a206163636f756e7420686173206e6f207360448201527f6861726573000000000000000000000000000000000000000000000000000000606482015290519081900360840190fd5b6002546000906104a09030319063ffffffff61088016565b600160a060020a03841660009081526004602090815260408083205460015460039093529220549293506104fc926104f091906104e490869063ffffffff6108e416565b9063ffffffff61098016565b9063ffffffff6109ef16565b91506000821161057c576040805160e560020a62461bcd02815260206004820152602a60248201527f52657761726453706c69747465723a206163636f756e74206973206e6f74206460448201527f7565207061796d656e7400000000000000000000000000000000000000000000606482015290519081900360840190fd5b600160a060020a0383166000908152600460205260409020546105a5908363ffffffff61088016565b600160a060020a0384166000908152600460205260409020556002546105d1908363ffffffff61088016565b600255604051600160a060020a0384169083156108fc029084906000818181858888f1935050505015801561060a573d6000803e3d6000fd5b5060408051600160a060020a03851681526020810184905281517fdf20fd1e76bc69d672e4814fafb2c449bba3a5369d8359adf9e05e6fde87b056929181900390910190a150919050565b61065d610734565b15156106b3576040805160e560020a62461bcd02815260206004820181905260248201527f4f776e61626c653a2063616c6c6572206973206e6f7420746865206f776e6572604482015290519081900360640190fd5b60008054604051600160a060020a03909116907f8be0079c531659141344cd1fd0a4f28419497f9722a3daafe3b4186f6b6457e0908390a36000805473ffffffffffffffffffffffffffffffffffffffff19169055565b600160a060020a031660009081526004602052604090205490565b600054600160a060020a031690565b600054600160a060020a0316331490565b61074d610734565b15156107a3576040805160e560020a62461bcd02815260206004820181905260248201527f4f776e61626c653a2063616c6c6572206973206e6f7420746865206f776e6572604482015290519081900360640190fd5b6107ac81610a4f565b50565b600160a060020a031660009081526003602052604090205490565b6000818015610824576001811461082d5760028114610836576003811461083f57600481146108485760058114610851576006811461085a5760078114610863576008811461086c5760098114610875576000915061087a565b6032915061087a565b602d915061087a565b6028915061087a565b6023915061087a565b601e915061087a565b6019915061087a565b6014915061087a565b600f915061087a565b600a915061087a565b600591505b50919050565b6000828201838110156108dd576040805160e560020a62461bcd02815260206004820152601b60248201527f536166654d6174683a206164646974696f6e206f766572666c6f770000000000604482015290519081900360640190fd5b9392505050565b60008215156108f5575060006103ed565b82820282848281151561090457fe5b04146108dd576040805160e560020a62461bcd02815260206004820152602160248201527f536166654d6174683a206d756c7469706c69636174696f6e206f766572666c6f60448201527f7700000000000000000000000000000000000000000000000000000000000000606482015290519081900360840190fd5b60008082116109d9576040805160e560020a62461bcd02815260206004820152601a60248201527f536166654d6174683a206469766973696f6e206279207a65726f000000000000604482015290519081900360640190fd5b600082848115156109e657fe5b04949350505050565b600082821115610a49576040805160e560020a62461bcd02815260206004820152601e60248201527f536166654d6174683a207375627472616374696f6e206f766572666c6f770000604482015290519081900360640190fd5b50900390565b600160a060020a0381161515610ad5576040805160e560020a62461bcd02815260206004820152602660248201527f4f776e61626c653a206e6577206f776e657220697320746865207a65726f206160448201527f6464726573730000000000000000000000000000000000000000000000000000606482015290519081900360840190fd5b60008054604051600160a060020a03808516939216917f8be0079c531659141344cd1fd0a4f28419497f9722a3daafe3b4186f6b6457e091a36000805473ffffffffffffffffffffffffffffffffffffffff1916600160a060020a039290921691909117905556fea165627a7a723058203a8049a5cc7a6e8867eaecbfadf187e6fb1ae663590a0020516aa15a2e9c71080029",
  "source": "pragma solidity ^0.5.0;\n\nimport \"openzeppelin-solidity/contracts/ownership/Ownable.sol\";\nimport \"openzeppelin-solidity/contracts/math/Math.sol\";\n\nimport \"./ICryptoArcadeGame.sol\";\nimport \"./RewardSplitter.sol\";\n\n/**\n * @title CryptoArcadeGame\n * @dev This contract represents the logic and data for each game on the platform.\n * It implements an public interface and the ownable pattern so most operations can only be executed \n * by the owner (the CryptoArcade contract) to reduce the attacking surface.\n * \n * There is a circuit breaker implemented that can only be operated by the owner \n * account, in case a serious issue is detected.\n */\ncontract CryptoArcadeGame is Ownable, ICryptoArcadeGame {\n    event LogMatchPlayed(\n        address indexed player,\n        string gameName,\n        uint256 score\n    );\n\n    // The default match price\n    uint256 public MATCH_PRICE;\n\n    // A match can be in 2 states: NotPlayed (when purchased) and Played\n    enum MatchStatus {NotPlayed, Played}\n\n    // A game contains the player address, the status of the game and the score attained\n    struct GameMatch {\n        address player;\n        MatchStatus status;\n        uint256 score;\n    }\n\n    // The name of the game\n    string private name;\n    // The address of the game owner\n    address private creator;\n    // The game's top 10 players\n    uint256[] private topScores;\n    // The contract that contains the reward balance and the shares for each of the players that made it to the top 10\n    RewardSplitter private rewardShare;\n    // Whether the contract is active or not\n    bool private active;\n    // The counter for the number of matches\n    uint256 private numOfMatches;\n    // The hashmap for all the matches purchased\n    mapping(uint256 => GameMatch) private matches;\n    // The hashmap for the IDs of all the matches that belong to a given player\n    mapping(address => uint256[]) private playerAvailableMatches;\n\n    // Restricts the function if the game is not active\n    modifier isActiveGame() {\n        require(active, \"CryptoArcadeGame: The game is not active\");\n        _;\n    }\n\n    // Requires the payment to be at least the match price\n    modifier paidEnough() {\n        require(\n            msg.value >= MATCH_PRICE,\n            \"The amount paid is not sufficient to purchase the match\"\n        );\n        _;\n    }\n\n    // Returns ether paid in excess by the player\n    modifier refundExcess() {\n        _;\n        uint256 paidInExcess = msg.value - MATCH_PRICE;\n        if (paidInExcess > 0) {\n            msg.sender.transfer(paidInExcess);\n        }\n    }\n\n    /**\n     * @dev Creates a new instance associated to the game creator address and sets\n     * the price players will have to pay to play.\n     *\n     * @param _name The name of the game\n     * @param _creator The account address of the game creator\n     * @param _price The price per match\n     */\n    constructor(string memory _name, address _creator, uint256 _price) public {\n        name = _name;\n        creator = _creator;\n        topScores = new uint256[](10);\n        numOfMatches = 0;\n        rewardShare = new RewardSplitter();\n        active = true;\n        MATCH_PRICE = _price * 1 wei;\n    }\n\n    /**\n     * @dev Method that retrieves the price per match in wei\n     *\n     * @return The price per match in wei\n     */\n    function getMatchPrice() public view returns (uint256) {\n        return MATCH_PRICE;\n    }\n\n    /**\n     * @dev This methods retrieves the state of the game.\n     * The game can be deactivated without being removed, in case an issue is detected.\n     * \n     * @return True if active, false otherwise\n     */\n    function isActive() external view returns (bool) {\n        return active;\n    }\n\n    /**\n     * @dev This methods retrieves the price per match in wei.\n     * \n     * @return The price per match in wei\n     */\n    function gameMatchPrice() public view returns (uint256) {\n        return MATCH_PRICE;\n    }\n\n    /**\n     * @dev This method returns player's number of matches in NotPlayed status.\n     *\n     * @param _player The address of the player\n     * @return The number of matches that are in NotPlayed status\n     */\n    function getNumberOfAvailableMatches(address _player)\n        public\n        view\n        returns (uint256)\n    {\n        uint256 totalAvailableMatches = 0;\n        for (uint256 i = 0; i < playerAvailableMatches[_player].length; i++) {\n            uint256 m = playerAvailableMatches[_player][i];\n            GameMatch memory matchData = matches[m];\n            if (matchData.status == MatchStatus.NotPlayed) {\n                totalAvailableMatches++;\n            }\n        }\n        return totalAvailableMatches;\n    }\n\n    /**\n     * @dev This method purchases a match for a player.\n     * It can only be called from the owner's arcade contract and returns any excess ether paid.\n     * The paid ether is transferred to the contract that mamanges the rewards.\n     *\n     * @param _player The address of the player\n     * @return The match ID of the match bought\n     */\n    function purchaseMatch(address _player)\n        external\n        payable\n        isActiveGame()\n        paidEnough()\n        refundExcess()\n        onlyOwner()\n        returns (uint256 matchId)\n    {\n        matchId = ++numOfMatches;\n\n        matches[matchId] = GameMatch({\n            player: _player,\n            status: MatchStatus.NotPlayed,\n            score: 0\n        });\n\n        playerAvailableMatches[_player].push(matchId);\n\n        address(rewardShare).transfer(MATCH_PRICE);\n    }\n\n    /**\n     * @dev This methods deactivates the game, disabling most of its functionality.\n     * The game can be deactivated without being destroyed, in case an issue is detected.\n     * The method can only be invoked by the owner contract.\n     *\n     * @return The match ID of the match bought\n     */\n    function deactivateGame() external onlyOwner() {\n        active = false;\n    }\n\n    /**\n     * @dev This methods activates the game, enabling most of its functionality.\n     * The game can be deactivated without being destroyed, in case an issue is detected.\n     * The method can only be invoked by the owner contract.\n     *\n     * @return The match ID of the match bought\n     */\n    function activateGame() external onlyOwner() {\n        active = true;\n    }\n\n    /**\n     * @dev This method flags a match as played, which consumes it.\n     * The status of the match becomes Played so its score can be associated to it.\n     *\n     * @param _player The address of the player\n     * @return The match ID of the match played\n     */\n    function playMatch(address _player)\n        external\n        isActiveGame()\n        onlyOwner()\n        returns (uint256)\n    {\n        uint256 matchId = 0;\n        for (uint256 i = 0; i < playerAvailableMatches[_player].length; i++) {\n            uint256 m = playerAvailableMatches[_player][i];\n            GameMatch storage matchData = matches[m];\n            if (matchData.status == MatchStatus.NotPlayed) {\n                matchData.status = MatchStatus.Played;\n                matchId = m;\n                return matchId;\n            }\n        }\n        return matchId;\n    }\n\n    /**\n     * @dev This method stores the score of a match played, calculates whether it falls in\n     * the top 10 in which case it also calculates and awards a number of shares to the player.\n     * How many depends on the position achieved.\n     *\n     * The method emits a match played event.\n     * @param _player The address of the player\n     * @param _score The score attained\n     * @return The number of shares produced by the score (zero if the score doesn't make it to the top 10)\n     */\n    function matchPlayed(address _player, uint256 _score)\n        external\n        isActiveGame()\n        onlyOwner()\n        returns (uint256 shares)\n    {\n        uint256 matchId = 0;\n        for (uint256 i = 0; i < playerAvailableMatches[_player].length; i++) {\n            uint256 m = playerAvailableMatches[_player][i];\n            GameMatch memory matchData = matches[m];\n            if (matchData.status == MatchStatus.Played) {\n                matchId = m;\n                break;\n            }\n        }\n\n        require(\n            matchId != 0,\n            \"MatchPlayed: There are no matches played to log against\"\n        );\n\n        require(\n            matches[matchId].player == _player,\n            \"MatchPlayed: The player did not purchase the match\"\n        );\n\n        matches[matchId].status = MatchStatus.Played;\n        matches[matchId].score = _score;\n        uint256 pos = insertNewScore(matchId);\n\n        shares = rewardShare.addPayee(_player, pos);\n\n        emit LogMatchPlayed(_player, name, _score);\n    }\n\n    /**\n     * @dev Internal method that calculates the position on the ranking for a given score.\n     * The insertion in the list is done in order.\n     *\n     * @param _matchId The match with the score\n     * @return The position in the ranking that goes from 0 to 9. If the score doesn't make it to the list, 10 is returned.\n     */\n    function insertNewScore(uint256 _matchId) internal returns (uint256) {\n        uint256 newScore = matches[_matchId].score;\n        uint256 pos = 10;\n\n        for (uint256 i = 0; i < topScores.length; i++) {\n            uint256 currentScore = matches[topScores[i]].score;\n            if (newScore > currentScore) {\n                pos = i;\n                break;\n            }\n        }\n\n        if (pos < topScores.length) {\n            for (uint256 i = topScores.length - 1; i > pos; i--) {\n                topScores[i] = topScores[i - 1];\n            }\n            topScores[pos] = _matchId;\n        }\n\n        return pos;\n    }\n\n    /**\n     * @dev Method that retrieves the top 10 ranking one piece of data at a time, \n     * to avoid complex operations on-chain.\n     *\n     * @return The address of the entry in the top 10 'pos' position\n     */\n    function getRecordEntryAddress(uint256 _pos) public view returns (address) {\n        require(_pos < 10 && _pos >= 0, \"The position must be between 0 and 9\");\n        return matches[topScores[_pos]].player;\n    }\n\n    /**\n     * @dev Method that retrieves the top 10 ranking one piece of data at a time, \n     * to avoid complex operations on-chain.\n     *\n     * @return The score of the entry in the top 10 'pos' position\n     */\n    function getRecordEntryScore(uint256 _pos) public view returns (uint256) {\n        require(_pos < 10 && _pos >= 0, \"The position must be between 0 and 9\");\n        return matches[topScores[_pos]].score;\n    }\n\n    /**\n     * @dev Method that returns the number of shares of a given player in the common game reward pot.\n     *\n     * @param _player The address of the player\n     * @return The number of shares for the given player in the reward pot\n     */\n    function playerBalance(address payable _player)\n        external\n        view\n        returns (uint256)\n    {\n        return rewardShare.getAccountShares(_player);\n    }\n\n    /**\n     * @dev Method that pays to the player the ether corresponding to the number of shares as a % representation on the total.\n     *\n     * @param _player The address of the player\n     * @return The amount of ether in wei paid to the player\n     */\n    function releaseReward(address payable _player)\n        external\n        returns (uint256 amount)\n    {\n        amount = rewardShare.release(_player);\n    }\n\n    /**\n     * @dev The amount of Ether already released to a payee.\n     *\n     * @param _player The address of the player\n     */\n    function getReleasedAmount(address _player) public view returns (uint256) {\n        return rewardShare.getReleasedAmount(_player);\n    }\n}\n",
  "sourcePath": "/Volumes/Repository/Dropbox/project/thoughtfuldistractions/insertcrypto/contracts/CryptoArcadeGame.sol",
  "compiler": {
    "name": "solc",
    "version": "0.5.0+commit.1d4f565a.Emscripten.clang"
  },
  "schemaVersion": "3.0.11",
  "updatedAt": "2019-08-09T12:15:53.126Z",
  "devdoc": {
    "details": "This contract represents the logic and data for each game on the platform. It implements an public interface and the ownable pattern so most operations can only be executed  by the owner (the CryptoArcade contract) to reduce the attacking surface.  * There is a circuit breaker implemented that can only be operated by the owner  account, in case a serious issue is detected.",
    "methods": {
      "activateGame()": {
        "details": "This methods activates the game, enabling most of its functionality. The game can be deactivated without being destroyed, in case an issue is detected. The method can only be invoked by the owner contract.",
        "return": "The match ID of the match bought"
      },
      "constructor": {
        "details": "Creates a new instance associated to the game creator address and sets the price players will have to pay to play.",
        "params": {
          "_creator": "The account address of the game creator",
          "_name": "The name of the game",
          "_price": "The price per match"
        }
      },
      "deactivateGame()": {
        "details": "This methods deactivates the game, disabling most of its functionality. The game can be deactivated without being destroyed, in case an issue is detected. The method can only be invoked by the owner contract.",
        "return": "The match ID of the match bought"
      },
      "gameMatchPrice()": {
        "details": "This methods retrieves the price per match in wei. ",
        "return": "The price per match in wei"
      },
      "getMatchPrice()": {
        "details": "Method that retrieves the price per match in wei",
        "return": "The price per match in wei"
      },
      "getNumberOfAvailableMatches(address)": {
        "details": "This method returns player's number of matches in NotPlayed status.",
        "params": {
          "_player": "The address of the player"
        },
        "return": "The number of matches that are in NotPlayed status"
      },
      "getRecordEntryAddress(uint256)": {
        "details": "Method that retrieves the top 10 ranking one piece of data at a time,  to avoid complex operations on-chain.",
        "return": "The address of the entry in the top 10 'pos' position"
      },
      "getRecordEntryScore(uint256)": {
        "details": "Method that retrieves the top 10 ranking one piece of data at a time,  to avoid complex operations on-chain.",
        "return": "The score of the entry in the top 10 'pos' position"
      },
      "getReleasedAmount(address)": {
        "details": "The amount of Ether already released to a payee.",
        "params": {
          "_player": "The address of the player"
        }
      },
      "isActive()": {
        "details": "This methods retrieves the state of the game. The game can be deactivated without being removed, in case an issue is detected. ",
        "return": "True if active, false otherwise"
      },
      "isOwner()": {
        "details": "Returns true if the caller is the current owner."
      },
      "matchPlayed(address,uint256)": {
        "details": "This method stores the score of a match played, calculates whether it falls in the top 10 in which case it also calculates and awards a number of shares to the player. How many depends on the position achieved.     * The method emits a match played event.",
        "params": {
          "_player": "The address of the player",
          "_score": "The score attained"
        },
        "return": "The number of shares produced by the score (zero if the score doesn't make it to the top 10)"
      },
      "owner()": {
        "details": "Returns the address of the current owner."
      },
      "playMatch(address)": {
        "details": "This method flags a match as played, which consumes it. The status of the match becomes Played so its score can be associated to it.",
        "params": {
          "_player": "The address of the player"
        },
        "return": "The match ID of the match played"
      },
      "playerBalance(address)": {
        "details": "Method that returns the number of shares of a given player in the common game reward pot.",
        "params": {
          "_player": "The address of the player"
        },
        "return": "The number of shares for the given player in the reward pot"
      },
      "purchaseMatch(address)": {
        "details": "This method purchases a match for a player. It can only be called from the owner's arcade contract and returns any excess ether paid. The paid ether is transferred to the contract that mamanges the rewards.",
        "params": {
          "_player": "The address of the player"
        },
        "return": "The match ID of the match bought"
      },
      "releaseReward(address)": {
        "details": "Method that pays to the player the ether corresponding to the number of shares as a % representation on the total.",
        "params": {
          "_player": "The address of the player"
        },
        "return": "The amount of ether in wei paid to the player"
      },
      "renounceOwnership()": {
        "details": "Leaves the contract without owner. It will not be possible to call `onlyOwner` functions anymore. Can only be called by the current owner.     * > Note: Renouncing ownership will leave the contract without an owner, thereby removing any functionality that is only available to the owner."
      },
      "transferOwnership(address)": {
        "details": "Transfers ownership of the contract to a new account (`newOwner`). Can only be called by the current owner."
      }
    },
    "title": "CryptoArcadeGame"
  },
  "userdoc": {
    "methods": {}
  }
}