{
  "contractName": "CryptoArcadeGame",
  "abi": [
    {
      "constant": false,
      "inputs": [],
      "name": "renounceOwnership",
      "outputs": [],
      "payable": false,
      "stateMutability": "nonpayable",
      "type": "function"
    },
    {
      "constant": true,
      "inputs": [],
      "name": "owner",
      "outputs": [
        {
          "name": "",
          "type": "address"
        }
      ],
      "payable": false,
      "stateMutability": "view",
      "type": "function"
    },
    {
      "constant": true,
      "inputs": [],
      "name": "isOwner",
      "outputs": [
        {
          "name": "",
          "type": "bool"
        }
      ],
      "payable": false,
      "stateMutability": "view",
      "type": "function"
    },
    {
      "constant": false,
      "inputs": [
        {
          "name": "newOwner",
          "type": "address"
        }
      ],
      "name": "transferOwnership",
      "outputs": [],
      "payable": false,
      "stateMutability": "nonpayable",
      "type": "function"
    },
    {
      "inputs": [
        {
          "name": "_name",
          "type": "string"
        },
        {
          "name": "_creator",
          "type": "address"
        }
      ],
      "payable": false,
      "stateMutability": "nonpayable",
      "type": "constructor"
    },
    {
      "anonymous": false,
      "inputs": [
        {
          "indexed": true,
          "name": "player",
          "type": "address"
        },
        {
          "indexed": false,
          "name": "position",
          "type": "uint256"
        },
        {
          "indexed": false,
          "name": "score",
          "type": "uint256"
        }
      ],
      "name": "LogNewRecord",
      "type": "event"
    },
    {
      "anonymous": false,
      "inputs": [
        {
          "indexed": true,
          "name": "buyer",
          "type": "address"
        },
        {
          "indexed": true,
          "name": "player",
          "type": "address"
        },
        {
          "indexed": false,
          "name": "gameName",
          "type": "string"
        }
      ],
      "name": "LogMatchPurchased",
      "type": "event"
    },
    {
      "anonymous": false,
      "inputs": [
        {
          "indexed": true,
          "name": "player",
          "type": "address"
        },
        {
          "indexed": false,
          "name": "gameName",
          "type": "string"
        },
        {
          "indexed": false,
          "name": "score",
          "type": "uint256"
        }
      ],
      "name": "LogMatchPlayed",
      "type": "event"
    },
    {
      "anonymous": false,
      "inputs": [
        {
          "indexed": true,
          "name": "player",
          "type": "address"
        },
        {
          "indexed": false,
          "name": "amount",
          "type": "uint256"
        }
      ],
      "name": "LogRewardReleased",
      "type": "event"
    },
    {
      "anonymous": false,
      "inputs": [
        {
          "indexed": true,
          "name": "previousOwner",
          "type": "address"
        },
        {
          "indexed": true,
          "name": "newOwner",
          "type": "address"
        }
      ],
      "name": "OwnershipTransferred",
      "type": "event"
    },
    {
      "constant": true,
      "inputs": [],
      "name": "isActive",
      "outputs": [
        {
          "name": "",
          "type": "bool"
        }
      ],
      "payable": false,
      "stateMutability": "view",
      "type": "function"
    },
    {
      "constant": true,
      "inputs": [],
      "name": "getGameMatchPrice",
      "outputs": [
        {
          "name": "",
          "type": "uint256"
        }
      ],
      "payable": false,
      "stateMutability": "view",
      "type": "function"
    },
    {
      "constant": false,
      "inputs": [
        {
          "name": "_player",
          "type": "address"
        }
      ],
      "name": "purchaseMatch",
      "outputs": [
        {
          "name": "matchId",
          "type": "uint256"
        }
      ],
      "payable": true,
      "stateMutability": "payable",
      "type": "function"
    },
    {
      "constant": true,
      "inputs": [
        {
          "name": "_matchId",
          "type": "uint256"
        }
      ],
      "name": "getMatchPlayer",
      "outputs": [
        {
          "name": "",
          "type": "address"
        }
      ],
      "payable": false,
      "stateMutability": "view",
      "type": "function"
    },
    {
      "constant": false,
      "inputs": [],
      "name": "deactivateGame",
      "outputs": [],
      "payable": false,
      "stateMutability": "nonpayable",
      "type": "function"
    },
    {
      "constant": false,
      "inputs": [],
      "name": "activateGame",
      "outputs": [],
      "payable": false,
      "stateMutability": "nonpayable",
      "type": "function"
    },
    {
      "constant": true,
      "inputs": [
        {
          "name": "_matchId",
          "type": "uint256"
        }
      ],
      "name": "getGameMatchScore",
      "outputs": [
        {
          "name": "",
          "type": "uint256"
        }
      ],
      "payable": false,
      "stateMutability": "view",
      "type": "function"
    },
    {
      "constant": false,
      "inputs": [
        {
          "name": "_matchId",
          "type": "uint256"
        },
        {
          "name": "_player",
          "type": "address"
        },
        {
          "name": "_score",
          "type": "uint256"
        }
      ],
      "name": "matchPlayed",
      "outputs": [
        {
          "name": "shares",
          "type": "uint256"
        }
      ],
      "payable": false,
      "stateMutability": "nonpayable",
      "type": "function"
    },
    {
      "constant": true,
      "inputs": [],
      "name": "getRecordList",
      "outputs": [
        {
          "name": "list",
          "type": "string"
        }
      ],
      "payable": false,
      "stateMutability": "view",
      "type": "function"
    },
    {
      "constant": true,
      "inputs": [
        {
          "name": "_player",
          "type": "address"
        }
      ],
      "name": "getReleasedAmount",
      "outputs": [
        {
          "name": "",
          "type": "uint256"
        }
      ],
      "payable": false,
      "stateMutability": "view",
      "type": "function"
    },
    {
      "constant": false,
      "inputs": [
        {
          "name": "_player",
          "type": "address"
        }
      ],
      "name": "releaseReward",
      "outputs": [
        {
          "name": "amount",
          "type": "uint256"
        }
      ],
      "payable": false,
      "stateMutability": "nonpayable",
      "type": "function"
    }
  ],
  "bytecode": "0x608060405260646001553480156200001657600080fd5b506040516200327d3803806200327d833981018060405260408110156200003c57600080fd5b8101908080516401000000008111156200005557600080fd5b828101905060208101848111156200006c57600080fd5b81518560018202830111640100000000821117156200008a57600080fd5b505092919060200180519060200190929190505050336000806101000a81548173ffffffffffffffffffffffffffffffffffffffff021916908373ffffffffffffffffffffffffffffffffffffffff1602179055506000809054906101000a900473ffffffffffffffffffffffffffffffffffffffff1673ffffffffffffffffffffffffffffffffffffffff16600073ffffffffffffffffffffffffffffffffffffffff167f8be0079c531659141344cd1fd0a4f28419497f9722a3daafe3b4186f6b6457e060405160405180910390a36060600a6040519080825280602002602001820160405280156200018e5781602001602082028038833980820191505090505b5090508260029080519060200190620001a99291906200029c565b5081600360006101000a81548173ffffffffffffffffffffffffffffffffffffffff021916908373ffffffffffffffffffffffffffffffffffffffff16021790555080600490805190602001906200020392919062000323565b5060006007819055506040516200021a9062000375565b604051809103906000f08015801562000237573d6000803e3d6000fd5b50600660006101000a81548173ffffffffffffffffffffffffffffffffffffffff021916908373ffffffffffffffffffffffffffffffffffffffff1602179055506001600660146101000a81548160ff021916908315150217905550505050620003ab565b828054600181600116156101000203166002900490600052602060002090601f016020900481019282601f10620002df57805160ff191683800117855562000310565b8280016001018555821562000310579182015b828111156200030f578251825591602001919060010190620002f2565b5b5090506200031f919062000383565b5090565b82805482825590600052602060002090810192821562000362579160200282015b828111156200036157825182559160200191906001019062000344565b5b50905062000371919062000383565b5090565b61119d80620020e083390190565b620003a891905b80821115620003a45760008160009055506001016200038a565b5090565b90565b611d2580620003bb6000396000f3fe6080604052600436106100e85760003560e01c8063692518781161008a5780638da5cb5b116100595780638da5cb5b1461046a5780638f32d59b146104c1578063f2fde38b146104f0578063f6f14dfe14610541576100e8565b8063692518781461031d578063715018a614610375578063861977811461038c57806389346b81146103f1576100e8565b806331e121d2116100c657806331e121d21461015e578063456cc3e8146101ad5780635404470b146102125780635e4347a1146102a2576100e8565b80631d4a0ec4146100ed57806322f3e2d4146101185780632ee99d5014610147575b600080fd5b3480156100f957600080fd5b50610102610558565b6040518082815260200191505060405180910390f35b34801561012457600080fd5b5061012d610562565b604051808215151515815260200191505060405180910390f35b34801561015357600080fd5b5061015c610579565b005b34801561016a57600080fd5b506101976004803603602081101561018157600080fd5b8101908080359060200190929190505050610610565b6040518082815260200191505060405180910390f35b3480156101b957600080fd5b506101fc600480360360208110156101d057600080fd5b81019080803573ffffffffffffffffffffffffffffffffffffffff169060200190929190505050610630565b6040518082815260200191505060405180910390f35b34801561021e57600080fd5b50610227610763565b6040518080602001828103825283818151815260200191508051906020019080838360005b8381101561026757808201518184015260208101905061024c565b50505050905090810190601f1680156102945780820380516001836020036101000a031916815260200191505b509250505060405180910390f35b3480156102ae57600080fd5b506102db600480360360208110156102c557600080fd5b8101908080359060200190929190505050610b07565b604051808273ffffffffffffffffffffffffffffffffffffffff1673ffffffffffffffffffffffffffffffffffffffff16815260200191505060405180910390f35b61035f6004803603602081101561033357600080fd5b81019080803573ffffffffffffffffffffffffffffffffffffffff169060200190929190505050610b47565b6040518082815260200191505060405180910390f35b34801561038157600080fd5b5061038a610e9b565b005b34801561039857600080fd5b506103db600480360360208110156103af57600080fd5b81019080803573ffffffffffffffffffffffffffffffffffffffff169060200190929190505050610fd4565b6040518082815260200191505060405180910390f35b3480156103fd57600080fd5b506104546004803603606081101561041457600080fd5b8101908080359060200190929190803573ffffffffffffffffffffffffffffffffffffffff169060200190929190803590602001909291905050506110b7565b6040518082815260200191505060405180910390f35b34801561047657600080fd5b5061047f61150f565b604051808273ffffffffffffffffffffffffffffffffffffffff1673ffffffffffffffffffffffffffffffffffffffff16815260200191505060405180910390f35b3480156104cd57600080fd5b506104d6611538565b604051808215151515815260200191505060405180910390f35b3480156104fc57600080fd5b5061053f6004803603602081101561051357600080fd5b81019080803573ffffffffffffffffffffffffffffffffffffffff16906020019092919050505061158f565b005b34801561054d57600080fd5b50610556611615565b005b6000600154905090565b6000600660149054906101000a900460ff16905090565b610581611538565b6105f3576040517f08c379a00000000000000000000000000000000000000000000000000000000081526004018080602001828103825260208152602001807f4f776e61626c653a2063616c6c6572206973206e6f7420746865206f776e657281525060200191505060405180910390fd5b6001600660146101000a81548160ff021916908315150217905550565b600060086000838152602001908152602001600020600101549050919050565b6000600660009054906101000a900473ffffffffffffffffffffffffffffffffffffffff1673ffffffffffffffffffffffffffffffffffffffff166319165587836040518263ffffffff1660e01b8152600401808273ffffffffffffffffffffffffffffffffffffffff1673ffffffffffffffffffffffffffffffffffffffff168152602001915050602060405180830381600087803b1580156106d357600080fd5b505af11580156106e7573d6000803e3d6000fd5b505050506040513d60208110156106fd57600080fd5b810190808051906020019092919050505090508173ffffffffffffffffffffffffffffffffffffffff167fb51b2c60dc4dc89cebf9a83cd183921dd13c23edeec74c110a543d18f79005ee826040518082815260200191505060405180910390a2919050565b60606040518060400160405280600181526020017f5b00000000000000000000000000000000000000000000000000000000000000815250905060008090505b600480549050811015610ab957610a4f6040518060400160405280600181526020017f7d00000000000000000000000000000000000000000000000000000000000000815250610a41610822600860006004878154811061080057fe5b90600052602060002001548152602001908152602001600020600101546116ac565b610a336040518060400160405280600b81526020017f222c202273636f7265223a000000000000000000000000000000000000000000815250610a256008600060048a8154811061086f57fe5b9060005260206000200154815260200190815260200160002060000160009054906101000a900473ffffffffffffffffffffffffffffffffffffffff1673ffffffffffffffffffffffffffffffffffffffff1673__Strings_______________________________635e57966d90916040518263ffffffff1660e01b8152600401808273ffffffffffffffffffffffffffffffffffffffff1673ffffffffffffffffffffffffffffffffffffffff16815260200191505060006040518083038186803b15801561093e57600080fd5b505af4158015610952573d6000803e3d6000fd5b505050506040513d6000823e3d601f19601f82011682018060405250602081101561097c57600080fd5b81019080805164010000000081111561099457600080fd5b828101905060208101848111156109aa57600080fd5b81518560018202830111640100000000821117156109c757600080fd5b5050929190505050610a176040518060400160405280600c81526020017f7b2261646472657373223a2200000000000000000000000000000000000000008152508b6117d990919063ffffffff16565b6117d990919063ffffffff16565b6117d990919063ffffffff16565b6117d990919063ffffffff16565b6117d990919063ffffffff16565b9150600160048054905003811015610aac57610aa96040518060400160405280600181526020017f2c00000000000000000000000000000000000000000000000000000000000000815250836117d990919063ffffffff16565b91505b80806001019150506107a3565b50610b026040518060400160405280600181526020017f5d00000000000000000000000000000000000000000000000000000000000000815250826117d990919063ffffffff16565b905090565b60006008600083815260200190815260200160002060000160009054906101000a900473ffffffffffffffffffffffffffffffffffffffff169050919050565b6000600660149054906101000a900460ff16610bae576040517f08c379a0000000000000000000000000000000000000000000000000000000008152600401808060200182810382526028815260200180611cd26028913960400191505060405180910390fd5b600154341015610c09576040517f08c379a0000000000000000000000000000000000000000000000000000000008152600401808060200182810382526037815260200180611c636037913960400191505060405180910390fd5b600760008154600101919050819055905060405180606001604052808373ffffffffffffffffffffffffffffffffffffffff16815260200160006001811115610c4e57fe5b815260200160008152506008600083815260200190815260200160002060008201518160000160006101000a81548173ffffffffffffffffffffffffffffffffffffffff021916908373ffffffffffffffffffffffffffffffffffffffff16021790555060208201518160000160146101000a81548160ff02191690836001811115610cd657fe5b021790555060408201518160010155905050600660009054906101000a900473ffffffffffffffffffffffffffffffffffffffff1673ffffffffffffffffffffffffffffffffffffffff166108fc6001549081150290604051600060405180830381858888f19350505050158015610d52573d6000803e3d6000fd5b508173ffffffffffffffffffffffffffffffffffffffff163373ffffffffffffffffffffffffffffffffffffffff167f90c7777e619d69b2daed83acb954eeceeb55aedf088bb477f0f84adb8814d76560026040518080602001828103825283818154600181600116156101000203166002900481526020019150805460018160011615610100020316600290048015610e2d5780601f10610e0257610100808354040283529160200191610e2d565b820191906000526020600020905b815481529060010190602001808311610e1057829003601f168201915b50509250505060405180910390a36000600154340390506000811115610e95573373ffffffffffffffffffffffffffffffffffffffff166108fc829081150290604051600060405180830381858888f19350505050158015610e93573d6000803e3d6000fd5b505b50919050565b610ea3611538565b610f15576040517f08c379a00000000000000000000000000000000000000000000000000000000081526004018080602001828103825260208152602001807f4f776e61626c653a2063616c6c6572206973206e6f7420746865206f776e657281525060200191505060405180910390fd5b600073ffffffffffffffffffffffffffffffffffffffff166000809054906101000a900473ffffffffffffffffffffffffffffffffffffffff1673ffffffffffffffffffffffffffffffffffffffff167f8be0079c531659141344cd1fd0a4f28419497f9722a3daafe3b4186f6b6457e060405160405180910390a360008060006101000a81548173ffffffffffffffffffffffffffffffffffffffff021916908373ffffffffffffffffffffffffffffffffffffffff160217905550565b6000600660009054906101000a900473ffffffffffffffffffffffffffffffffffffffff1673ffffffffffffffffffffffffffffffffffffffff166386197781836040518263ffffffff1660e01b8152600401808273ffffffffffffffffffffffffffffffffffffffff1673ffffffffffffffffffffffffffffffffffffffff16815260200191505060206040518083038186803b15801561107557600080fd5b505afa158015611089573d6000803e3d6000fd5b505050506040513d602081101561109f57600080fd5b81019080805190602001909291905050509050919050565b6000600660149054906101000a900460ff1661111e576040517f08c379a0000000000000000000000000000000000000000000000000000000008152600401808060200182810382526028815260200180611cd26028913960400191505060405180910390fd5b83838073ffffffffffffffffffffffffffffffffffffffff166008600084815260200190815260200160002060000160009054906101000a900473ffffffffffffffffffffffffffffffffffffffff1673ffffffffffffffffffffffffffffffffffffffff16146111da576040517f08c379a0000000000000000000000000000000000000000000000000000000008152600401808060200182810382526038815260200180611c9a6038913960400191505060405180910390fd5b6111e2611538565b611254576040517f08c379a00000000000000000000000000000000000000000000000000000000081526004018080602001828103825260208152602001807f4f776e61626c653a2063616c6c6572206973206e6f7420746865206f776e657281525060200191505060405180910390fd5b6000600181111561126157fe5b6008600088815260200190815260200160002060000160149054906101000a900460ff16600181111561129057fe5b146112e6576040517f08c379a000000000000000000000000000000000000000000000000000000000815260040180806020018281038252602c815260200180611c37602c913960400191505060405180910390fd5b60016008600088815260200190815260200160002060000160146101000a81548160ff0219169083600181111561131957fe5b0217905550836008600088815260200190815260200160002060010181905550600061134487611924565b9050600660009054906101000a900473ffffffffffffffffffffffffffffffffffffffff1673ffffffffffffffffffffffffffffffffffffffff166318f9b02387836040518363ffffffff1660e01b8152600401808373ffffffffffffffffffffffffffffffffffffffff1673ffffffffffffffffffffffffffffffffffffffff16815260200182815260200192505050602060405180830381600087803b1580156113ef57600080fd5b505af1158015611403573d6000803e3d6000fd5b505050506040513d602081101561141957600080fd5b810190808051906020019092919050505093508573ffffffffffffffffffffffffffffffffffffffff167f817459fef0397286d149325f99904d000bbbd0f1f515a4fe3c811230b19fcdd560028760405180806020018381526020018281038252848181546001816001161561010002031660029004815260200191508054600181600116156101000203166002900480156114f65780601f106114cb576101008083540402835291602001916114f6565b820191906000526020600020905b8154815290600101906020018083116114d957829003601f168201915b5050935050505060405180910390a25050509392505050565b60008060009054906101000a900473ffffffffffffffffffffffffffffffffffffffff16905090565b60008060009054906101000a900473ffffffffffffffffffffffffffffffffffffffff1673ffffffffffffffffffffffffffffffffffffffff163373ffffffffffffffffffffffffffffffffffffffff1614905090565b611597611538565b611609576040517f08c379a00000000000000000000000000000000000000000000000000000000081526004018080602001828103825260208152602001807f4f776e61626c653a2063616c6c6572206973206e6f7420746865206f776e657281525060200191505060405180910390fd5b61161281611acc565b50565b61161d611538565b61168f576040517f08c379a00000000000000000000000000000000000000000000000000000000081526004018080602001828103825260208152602001807f4f776e61626c653a2063616c6c6572206973206e6f7420746865206f776e657281525060200191505060405180910390fd5b6000600660146101000a81548160ff021916908315150217905550565b606060008214156116f4576040518060400160405280600181526020017f300000000000000000000000000000000000000000000000000000000000000081525090506117d4565b600082905060005b6000821461171e578080600101915050600a828161171657fe5b0491506116fc565b6060816040519080825280601f01601f1916602001820160405280156117535781602001600182028038833980820191505090505b50905060006001830390505b600086146117cc57600a868161177157fe5b0660300160f81b8282806001900393508151811061178b57fe5b60200101907effffffffffffffffffffffffffffffffffffffffffffffffffffffffffffff1916908160001a905350600a86816117c457fe5b04955061175f565b819450505050505b919050565b6060808390506060839050606081518351016040519080825280601f01601f19166020018201604052801561181d5781602001600182028038833980820191505090505b509050606081905060008090506000809050600090505b85518110156118a25785818151811061184957fe5b602001015160f81c60f81b83838060010194508151811061186657fe5b60200101907effffffffffffffffffffffffffffffffffffffffffffffffffffffffffffff1916908160001a9053508080600101915050611834565b600090505b8451811015611915578481815181106118bc57fe5b602001015160f81c60f81b8383806001019450815181106118d957fe5b60200101907effffffffffffffffffffffffffffffffffffffffffffffffffffffffffffff1916908160001a90535080806001019150506118a7565b82965050505050505092915050565b6000806008600084815260200190815260200160002060010154905060006008600085815260200190815260200160002060000160009054906101000a900473ffffffffffffffffffffffffffffffffffffffff1690506000600a905060008090505b6004805490508110156119e557600060086000600484815481106119a757fe5b90600052602060002001548152602001908152602001600020600101549050808511156119d757819250506119e5565b508080600101915050611987565b50600480549050811015611ac157600060016004805490500390505b81811115611a4d5760046001820381548110611a1957fe5b906000526020600020015460048281548110611a3157fe5b9060005260206000200181905550808060019003915050611a01565b508460048281548110611a5c57fe5b90600052602060002001819055508173ffffffffffffffffffffffffffffffffffffffff167f3fca1d31761045824cfd4568d16a2c117202650a2125a521cbf48ddeb50d63358285604051808381526020018281526020019250505060405180910390a25b809350505050919050565b600073ffffffffffffffffffffffffffffffffffffffff168173ffffffffffffffffffffffffffffffffffffffff161415611b52576040517f08c379a0000000000000000000000000000000000000000000000000000000008152600401808060200182810382526026815260200180611c116026913960400191505060405180910390fd5b8073ffffffffffffffffffffffffffffffffffffffff166000809054906101000a900473ffffffffffffffffffffffffffffffffffffffff1673ffffffffffffffffffffffffffffffffffffffff167f8be0079c531659141344cd1fd0a4f28419497f9722a3daafe3b4186f6b6457e060405160405180910390a3806000806101000a81548173ffffffffffffffffffffffffffffffffffffffff021916908373ffffffffffffffffffffffffffffffffffffffff1602179055505056fe4f776e61626c653a206e6577206f776e657220697320746865207a65726f2061646472657373706c61794d617463683a20546865206d617463682068617320616c7265616479206265656e20706c6179656454686520616d6f756e742070616964206973206e6f742073756666696369656e7420746f20707572636861736520746865206d6174636843727970746f41726361646547616d653a20546865206164647265737320646964206e6f7420707572636861736520746865206d6174636843727970746f41726361646547616d653a205468652067616d65206973206e6f7420616374697665a165627a7a72305820d908651990fa5e4061f20c7ba5c73b695eea9f286960cc23747aacaeb5476e0a00296080604052336000806101000a81548173ffffffffffffffffffffffffffffffffffffffff021916908373ffffffffffffffffffffffffffffffffffffffff1602179055506000809054906101000a900473ffffffffffffffffffffffffffffffffffffffff1673ffffffffffffffffffffffffffffffffffffffff16600073ffffffffffffffffffffffffffffffffffffffff167f8be0079c531659141344cd1fd0a4f28419497f9722a3daafe3b4186f6b6457e060405160405180910390a36110ce806100cf6000396000f3fe60806040526004361061007b5760003560e01c80638da5cb5b1161004e5780638da5cb5b146102385780638f32d59b1461028f578063f2fde38b146102be578063fc6db4f41461030f5761007b565b806318f9b023146100e85780631916558714610157578063715018a6146101bc57806386197781146101d3575b7f6ef95f06320e7a25a04a175ca677b7052bdd97131872c2192525a629f51be7703334604051808373ffffffffffffffffffffffffffffffffffffffff1673ffffffffffffffffffffffffffffffffffffffff1681526020018281526020019250505060405180910390a1005b3480156100f457600080fd5b506101416004803603604081101561010b57600080fd5b81019080803573ffffffffffffffffffffffffffffffffffffffff16906020019092919080359060200190929190505050610374565b6040518082815260200191505060405180910390f35b34801561016357600080fd5b506101a66004803603602081101561017a57600080fd5b81019080803573ffffffffffffffffffffffffffffffffffffffff1690602001909291905050506105aa565b6040518082815260200191505060405180910390f35b3480156101c857600080fd5b506101d16108ee565b005b3480156101df57600080fd5b50610222600480360360208110156101f657600080fd5b81019080803573ffffffffffffffffffffffffffffffffffffffff169060200190929190505050610a27565b6040518082815260200191505060405180910390f35b34801561024457600080fd5b5061024d610a70565b604051808273ffffffffffffffffffffffffffffffffffffffff1673ffffffffffffffffffffffffffffffffffffffff16815260200191505060405180910390f35b34801561029b57600080fd5b506102a4610a99565b604051808215151515815260200191505060405180910390f35b3480156102ca57600080fd5b5061030d600480360360208110156102e157600080fd5b81019080803573ffffffffffffffffffffffffffffffffffffffff169060200190929190505050610af0565b005b34801561031b57600080fd5b5061035e6004803603602081101561033257600080fd5b81019080803573ffffffffffffffffffffffffffffffffffffffff169060200190929190505050610b76565b6040518082815260200191505060405180910390f35b600061037e610a99565b6103f0576040517f08c379a00000000000000000000000000000000000000000000000000000000081526004018080602001828103825260208152602001807f4f776e61626c653a2063616c6c6572206973206e6f7420746865206f776e657281525060200191505060405180910390fd5b600073ffffffffffffffffffffffffffffffffffffffff168373ffffffffffffffffffffffffffffffffffffffff161415610476576040517f08c379a000000000000000000000000000000000000000000000000000000000815260040180806020018281038252602b81526020018061100c602b913960400191505060405180910390fd5b61047f82610bbf565b90506104d381600360008673ffffffffffffffffffffffffffffffffffffffff1673ffffffffffffffffffffffffffffffffffffffff16815260200190815260200160002054610c7790919063ffffffff16565b600360008573ffffffffffffffffffffffffffffffffffffffff1673ffffffffffffffffffffffffffffffffffffffff1681526020019081526020016000208190555061052b81600154610c7790919063ffffffff16565b6001819055507fb3c52e7e1d58db9d4d5f530a5a71ac54a2fd63e3fcaed60f24c35adf352c21e1838383604051808473ffffffffffffffffffffffffffffffffffffffff1673ffffffffffffffffffffffffffffffffffffffff168152602001838152602001828152602001935050505060405180910390a192915050565b600080600360008473ffffffffffffffffffffffffffffffffffffffff1673ffffffffffffffffffffffffffffffffffffffff1681526020019081526020016000205411610643576040517f08c379a000000000000000000000000000000000000000000000000000000000815260040180806020018281038252602581526020018061105d6025913960400191505060405180910390fd5b60006106716002543073ffffffffffffffffffffffffffffffffffffffff1631610c7790919063ffffffff16565b905061072a600460008573ffffffffffffffffffffffffffffffffffffffff1673ffffffffffffffffffffffffffffffffffffffff1681526020019081526020016000205461071c60015461070e600360008973ffffffffffffffffffffffffffffffffffffffff1673ffffffffffffffffffffffffffffffffffffffff1681526020019081526020016000205486610cff90919063ffffffff16565b610d8590919063ffffffff16565b610e1490919063ffffffff16565b91506000821415610786576040517f08c379a000000000000000000000000000000000000000000000000000000000815260040180806020018281038252602a815260200180610fe2602a913960400191505060405180910390fd5b6107d882600460008673ffffffffffffffffffffffffffffffffffffffff1673ffffffffffffffffffffffffffffffffffffffff16815260200190815260200160002054610c7790919063ffffffff16565b600460008573ffffffffffffffffffffffffffffffffffffffff1673ffffffffffffffffffffffffffffffffffffffff1681526020019081526020016000208190555061083082600254610c7790919063ffffffff16565b6002819055508273ffffffffffffffffffffffffffffffffffffffff166108fc839081150290604051600060405180830381858888f1935050505015801561087c573d6000803e3d6000fd5b507fdf20fd1e76bc69d672e4814fafb2c449bba3a5369d8359adf9e05e6fde87b0568383604051808373ffffffffffffffffffffffffffffffffffffffff1673ffffffffffffffffffffffffffffffffffffffff1681526020018281526020019250505060405180910390a150919050565b6108f6610a99565b610968576040517f08c379a00000000000000000000000000000000000000000000000000000000081526004018080602001828103825260208152602001807f4f776e61626c653a2063616c6c6572206973206e6f7420746865206f776e657281525060200191505060405180910390fd5b600073ffffffffffffffffffffffffffffffffffffffff166000809054906101000a900473ffffffffffffffffffffffffffffffffffffffff1673ffffffffffffffffffffffffffffffffffffffff167f8be0079c531659141344cd1fd0a4f28419497f9722a3daafe3b4186f6b6457e060405160405180910390a360008060006101000a81548173ffffffffffffffffffffffffffffffffffffffff021916908373ffffffffffffffffffffffffffffffffffffffff160217905550565b6000600460008373ffffffffffffffffffffffffffffffffffffffff1673ffffffffffffffffffffffffffffffffffffffff168152602001908152602001600020549050919050565b60008060009054906101000a900473ffffffffffffffffffffffffffffffffffffffff16905090565b60008060009054906101000a900473ffffffffffffffffffffffffffffffffffffffff1673ffffffffffffffffffffffffffffffffffffffff163373ffffffffffffffffffffffffffffffffffffffff1614905090565b610af8610a99565b610b6a576040517f08c379a00000000000000000000000000000000000000000000000000000000081526004018080602001828103825260208152602001807f4f776e61626c653a2063616c6c6572206973206e6f7420746865206f776e657281525060200191505060405180910390fd5b610b7381610e9d565b50565b6000600360008373ffffffffffffffffffffffffffffffffffffffff1673ffffffffffffffffffffffffffffffffffffffff168152602001908152602001600020549050919050565b60008160008114610c1b5760018114610c245760028114610c2d5760038114610c365760048114610c3f5760058114610c485760068114610c515760078114610c5a5760088114610c635760098114610c6c5760009150610c71565b60329150610c71565b602d9150610c71565b60289150610c71565b60239150610c71565b601e9150610c71565b60199150610c71565b60149150610c71565b600f9150610c71565b600a9150610c71565b600591505b50919050565b600080828401905083811015610cf5576040517f08c379a000000000000000000000000000000000000000000000000000000000815260040180806020018281038252601b8152602001807f536166654d6174683a206164646974696f6e206f766572666c6f77000000000081525060200191505060405180910390fd5b8091505092915050565b600080831415610d125760009050610d7f565b6000828402905082848281610d2357fe5b0414610d7a576040517f08c379a00000000000000000000000000000000000000000000000000000000081526004018080602001828103825260218152602001806110826021913960400191505060405180910390fd5b809150505b92915050565b6000808211610dfc576040517f08c379a000000000000000000000000000000000000000000000000000000000815260040180806020018281038252601a8152602001807f536166654d6174683a206469766973696f6e206279207a65726f00000000000081525060200191505060405180910390fd5b6000828481610e0757fe5b0490508091505092915050565b600082821115610e8c576040517f08c379a000000000000000000000000000000000000000000000000000000000815260040180806020018281038252601e8152602001807f536166654d6174683a207375627472616374696f6e206f766572666c6f77000081525060200191505060405180910390fd5b600082840390508091505092915050565b600073ffffffffffffffffffffffffffffffffffffffff168173ffffffffffffffffffffffffffffffffffffffff161415610f23576040517f08c379a00000000000000000000000000000000000000000000000000000000081526004018080602001828103825260268152602001806110376026913960400191505060405180910390fd5b8073ffffffffffffffffffffffffffffffffffffffff166000809054906101000a900473ffffffffffffffffffffffffffffffffffffffff1673ffffffffffffffffffffffffffffffffffffffff167f8be0079c531659141344cd1fd0a4f28419497f9722a3daafe3b4186f6b6457e060405160405180910390a3806000806101000a81548173ffffffffffffffffffffffffffffffffffffffff021916908373ffffffffffffffffffffffffffffffffffffffff1602179055505056fe52657761726453706c69747465723a206163636f756e74206973206e6f7420647565207061796d656e7452657761726453706c69747465723a206163636f756e7420697320746865207a65726f20616464726573734f776e61626c653a206e6577206f776e657220697320746865207a65726f206164647265737352657761726453706c69747465723a206163636f756e7420686173206e6f20736861726573536166654d6174683a206d756c7469706c69636174696f6e206f766572666c6f77a165627a7a72305820008dbbf4c6f764be4cf0b026228ec747277ce5763a93e400705f6feb7d0190590029",
  "source": "pragma solidity ^0.5.0;\n\nimport \"openzeppelin-solidity/contracts/ownership/Ownable.sol\";\nimport \"openzeppelin-solidity/contracts/math/Math.sol\";\n\nimport \"./ICryptoArcadeGame.sol\";\nimport \"./RewardSplitter.sol\";\nimport \"./Strings.sol\";\n\ncontract CryptoArcadeGame is Ownable, ICryptoArcadeGame {\n    event LogNewRecord(address indexed player, uint256 position, uint256 score);\n    event LogMatchPurchased(\n        address indexed buyer,\n        address indexed player,\n        string gameName\n    );\n    event LogMatchPlayed(\n        address indexed player,\n        string gameName,\n        uint256 score\n    );\n    event LogRewardReleased(address indexed player, uint256 amount);\n\n    using Strings for string;\n    using Strings for uint256;\n    using Strings for address;\n\n    uint256 MATCH_PRICE = 100 wei;\n\n    enum MatchStatus {NotPlayed, Played}\n\n    struct GameMatch {\n        address player;\n        MatchStatus status;\n        uint256 score;\n    }\n\n    string private name;\n    address private creator;\n    uint256[] private topScores;\n    uint256 private rewardPot;\n    RewardSplitter private rewardShare;\n    bool private active;\n    uint256 private numOfMatches;\n    mapping(uint256 => GameMatch) private matches;\n\n    modifier isActiveGame() {\n        require(active, \"CryptoArcadeGame: The game is not active\");\n        _;\n    }\n\n    modifier isMatchPlayer(uint256 _matchId, address _player) {\n        require(\n            matches[_matchId].player == _player,\n            \"CryptoArcadeGame: The address did not purchase the match\"\n        );\n        _;\n    }\n\n    // Throws an error if the payment submitted is less than what is required to pay for the match\n    modifier paidEnough() {\n        require(\n            msg.value >= MATCH_PRICE,\n            \"The amount paid is not sufficient to purchase the match\"\n        );\n        _;\n    }\n\n    // Returns ether paid in excess by the player\n    modifier refundExcess() {\n        _;\n        uint256 paidInExcess = msg.value - MATCH_PRICE;\n        if (paidInExcess > 0) {\n            msg.sender.transfer(paidInExcess);\n        }\n    }\n\n    constructor(string memory _name, address _creator) public {\n        uint256[] memory scores = new uint256[](10);\n\n        name = _name;\n        creator = _creator;\n        topScores = scores;\n        numOfMatches = 0;\n        rewardShare = new RewardSplitter();\n        active = true;\n    }\n\n    function isActive() external view returns (bool) {\n        return active;\n    }\n\n    function getGameMatchPrice() external view returns (uint256) {\n        return MATCH_PRICE;\n    }\n\n    function purchaseMatch(address _player)\n        external\n        payable\n        isActiveGame()\n        paidEnough()\n        refundExcess()\n        returns (uint256 matchId)\n    {\n        matchId = ++numOfMatches;\n\n        matches[matchId] = GameMatch({\n            player: _player,\n            status: MatchStatus.NotPlayed,\n            score: 0\n        });\n\n        address(rewardShare).transfer(MATCH_PRICE);\n        emit LogMatchPurchased(msg.sender, _player, name);\n    }\n\n    function getMatchPlayer(uint256 _matchId) external view returns (address) {\n        return matches[_matchId].player;\n    }\n\n    function deactivateGame() external onlyOwner() {\n        active = false;\n    }\n\n    function activateGame() external onlyOwner() {\n        active = true;\n    }\n\n    function getGameMatchScore(uint256 _matchId)\n        external\n        view\n        returns (uint256)\n    {\n        return matches[_matchId].score;\n    }\n\n    function matchPlayed(uint256 _matchId, address _player, uint256 _score)\n        external\n        isActiveGame()\n        isMatchPlayer(_matchId, _player)\n        onlyOwner()\n        returns (uint256 shares)\n    {\n        require(\n            matches[_matchId].status == MatchStatus.NotPlayed,\n            \"playMatch: The match has already been played\"\n        );\n\n        matches[_matchId].status = MatchStatus.Played;\n        matches[_matchId].score = _score;\n        uint256 pos = insertNewScore(_matchId);\n\n        shares = rewardShare.addPayee(_player, pos);\n\n        emit LogMatchPlayed(_player, name, _score);\n    }\n\n    function insertNewScore(uint256 _matchId) internal returns (uint256) {\n        uint256 newScore = matches[_matchId].score;\n        address player = matches[_matchId].player;\n        uint256 pos = 10;\n\n        for (uint256 i = 0; i < topScores.length; i++) {\n            uint256 currentScore = matches[topScores[i]].score;\n            if (newScore > currentScore) {\n                pos = i;\n                break;\n            }\n        }\n\n        if (pos < topScores.length) {\n            for (uint256 i = topScores.length - 1; i > pos; i--) {\n                topScores[i] = topScores[i - 1];\n            }\n            topScores[pos] = _matchId;\n\n            emit LogNewRecord(player, pos, newScore);\n        }\n\n        return pos;\n    }\n\n    function getRecordList() external view returns (string memory list) {\n        list = \"[\";\n        for (uint256 i = 0; i < topScores.length; i++) {\n            list = list\n                .strConcat(\"{\\\"address\\\":\\\"\")\n                .strConcat(matches[topScores[i]].player.addressToString())\n                .strConcat(\"\\\", \\\"score\\\":\")\n                .strConcat(matches[topScores[i]].score.uint2str())\n                .strConcat(\"}\");\n            if (i < topScores.length - 1) {\n                list = list.strConcat(\",\");\n            }\n        }\n        list = list.strConcat(\"]\");\n    }\n\n    function getReleasedAmount(address _player)\n        external\n        view\n        returns (uint256)\n    {\n        return rewardShare.getReleasedAmount(_player);\n    }\n    function releaseReward(address payable _player)\n        external\n        returns (uint256 amount)\n    {\n        amount = rewardShare.release(_player);\n        emit LogRewardReleased(_player, amount);\n    }\n}\n",
  "sourcePath": "/Volumes/Repository/Dropbox/project/thoughtfuldistractions/insertcrypto/code/contracts/CryptoArcadeGame.sol",
  "compiler": {
    "name": "solc",
    "version": "0.5.8+commit.23d335f2.Emscripten.clang"
  },
  "schemaVersion": "3.0.11",
  "updatedAt": "2019-07-31T23:31:42.515Z",
  "devdoc": {
    "methods": {
      "isOwner()": {
        "details": "Returns true if the caller is the current owner."
      },
      "owner()": {
        "details": "Returns the address of the current owner."
      },
      "renounceOwnership()": {
        "details": "Leaves the contract without owner. It will not be possible to call `onlyOwner` functions anymore. Can only be called by the current owner.     * > Note: Renouncing ownership will leave the contract without an owner, thereby removing any functionality that is only available to the owner."
      },
      "transferOwnership(address)": {
        "details": "Transfers ownership of the contract to a new account (`newOwner`). Can only be called by the current owner."
      }
    }
  },
  "userdoc": {
    "methods": {}
  }
}