{
  "contractName": "RewardSplitter",
  "abi": [
    {
      "constant": false,
      "inputs": [],
      "name": "renounceOwnership",
      "outputs": [],
      "payable": false,
      "stateMutability": "nonpayable",
      "type": "function"
    },
    {
      "constant": true,
      "inputs": [],
      "name": "owner",
      "outputs": [
        {
          "name": "",
          "type": "address"
        }
      ],
      "payable": false,
      "stateMutability": "view",
      "type": "function"
    },
    {
      "constant": true,
      "inputs": [],
      "name": "isOwner",
      "outputs": [
        {
          "name": "",
          "type": "bool"
        }
      ],
      "payable": false,
      "stateMutability": "view",
      "type": "function"
    },
    {
      "constant": false,
      "inputs": [
        {
          "name": "newOwner",
          "type": "address"
        }
      ],
      "name": "transferOwnership",
      "outputs": [],
      "payable": false,
      "stateMutability": "nonpayable",
      "type": "function"
    },
    {
      "payable": true,
      "stateMutability": "payable",
      "type": "fallback"
    },
    {
      "anonymous": false,
      "inputs": [
        {
          "indexed": false,
          "name": "from",
          "type": "address"
        },
        {
          "indexed": false,
          "name": "amount",
          "type": "uint256"
        }
      ],
      "name": "PaymentReceived",
      "type": "event"
    },
    {
      "anonymous": false,
      "inputs": [
        {
          "indexed": false,
          "name": "account",
          "type": "address"
        },
        {
          "indexed": false,
          "name": "position",
          "type": "uint256"
        },
        {
          "indexed": false,
          "name": "shares",
          "type": "uint256"
        }
      ],
      "name": "PayeeAdded",
      "type": "event"
    },
    {
      "anonymous": false,
      "inputs": [
        {
          "indexed": false,
          "name": "to",
          "type": "address"
        },
        {
          "indexed": false,
          "name": "amount",
          "type": "uint256"
        }
      ],
      "name": "PaymentReleased",
      "type": "event"
    },
    {
      "anonymous": false,
      "inputs": [
        {
          "indexed": true,
          "name": "previousOwner",
          "type": "address"
        },
        {
          "indexed": true,
          "name": "newOwner",
          "type": "address"
        }
      ],
      "name": "OwnershipTransferred",
      "type": "event"
    },
    {
      "constant": true,
      "inputs": [
        {
          "name": "_account",
          "type": "address"
        }
      ],
      "name": "getAccountShares",
      "outputs": [
        {
          "name": "",
          "type": "uint256"
        }
      ],
      "payable": false,
      "stateMutability": "view",
      "type": "function"
    },
    {
      "constant": true,
      "inputs": [
        {
          "name": "_account",
          "type": "address"
        }
      ],
      "name": "getReleasedAmount",
      "outputs": [
        {
          "name": "",
          "type": "uint256"
        }
      ],
      "payable": false,
      "stateMutability": "view",
      "type": "function"
    },
    {
      "constant": false,
      "inputs": [
        {
          "name": "_account",
          "type": "address"
        }
      ],
      "name": "release",
      "outputs": [
        {
          "name": "_payment",
          "type": "uint256"
        }
      ],
      "payable": false,
      "stateMutability": "nonpayable",
      "type": "function"
    },
    {
      "constant": false,
      "inputs": [
        {
          "name": "_account",
          "type": "address"
        },
        {
          "name": "_pos",
          "type": "uint256"
        }
      ],
      "name": "addPayee",
      "outputs": [
        {
          "name": "_shares",
          "type": "uint256"
        }
      ],
      "payable": false,
      "stateMutability": "nonpayable",
      "type": "function"
    }
  ],
  "bytecode": "0x6080604081905260008054600160a060020a0319163317808255600160a060020a0316917f8be0079c531659141344cd1fd0a4f28419497f9722a3daafe3b4186f6b6457e0908290a3610b69806100576000396000f3fe60806040526004361061008d5763ffffffff7c010000000000000000000000000000000000000000000000000000000060003504166318f9b02381146100c95780631916558714610114578063715018a614610147578063861977811461015e5780638da5cb5b146101915780638f32d59b146101c2578063f2fde38b146101eb578063fc6db4f41461021e575b6040805133815234602082015281517f6ef95f06320e7a25a04a175ca677b7052bdd97131872c2192525a629f51be770929181900390910190a1005b3480156100d557600080fd5b50610102600480360360408110156100ec57600080fd5b50600160a060020a038135169060200135610251565b60408051918252519081900360200190f35b34801561012057600080fd5b506101026004803603602081101561013757600080fd5b5035600160a060020a03166103f3565b34801561015357600080fd5b5061015c610655565b005b34801561016a57600080fd5b506101026004803603602081101561018157600080fd5b5035600160a060020a031661070a565b34801561019d57600080fd5b506101a6610725565b60408051600160a060020a039092168252519081900360200190f35b3480156101ce57600080fd5b506101d7610734565b604080519115158252519081900360200190f35b3480156101f757600080fd5b5061015c6004803603602081101561020e57600080fd5b5035600160a060020a0316610745565b34801561022a57600080fd5b506101026004803603602081101561024157600080fd5b5035600160a060020a03166107af565b600061025b610734565b15156102b1576040805160e560020a62461bcd02815260206004820181905260248201527f4f776e61626c653a2063616c6c6572206973206e6f7420746865206f776e6572604482015290519081900360640190fd5b600160a060020a0383161515610337576040805160e560020a62461bcd02815260206004820152602b60248201527f52657761726453706c69747465723a206163636f756e7420697320746865207a60448201527f65726f2061646472657373000000000000000000000000000000000000000000606482015290519081900360840190fd5b610340826107ca565b905060008111156103ed57600160a060020a038316600090815260036020526040902054610374908263ffffffff61088016565b600160a060020a0384166000908152600360205260409020556001546103a0908263ffffffff61088016565b60015560408051600160a060020a03851681526020810184905280820183905290517fb3c52e7e1d58db9d4d5f530a5a71ac54a2fd63e3fcaed60f24c35adf352c21e19181900360600190a15b92915050565b600160a060020a0381166000908152600360205260408120548110610488576040805160e560020a62461bcd02815260206004820152602560248201527f52657761726453706c69747465723a206163636f756e7420686173206e6f207360448201527f6861726573000000000000000000000000000000000000000000000000000000606482015290519081900360840190fd5b6002546000906104a09030319063ffffffff61088016565b600160a060020a03841660009081526004602090815260408083205460015460039093529220549293506104fc926104f091906104e490869063ffffffff6108e416565b9063ffffffff61098016565b9063ffffffff6109ef16565b91506000821161057c576040805160e560020a62461bcd02815260206004820152602a60248201527f52657761726453706c69747465723a206163636f756e74206973206e6f74206460448201527f7565207061796d656e7400000000000000000000000000000000000000000000606482015290519081900360840190fd5b600160a060020a0383166000908152600460205260409020546105a5908363ffffffff61088016565b600160a060020a0384166000908152600460205260409020556002546105d1908363ffffffff61088016565b600255604051600160a060020a0384169083156108fc029084906000818181858888f1935050505015801561060a573d6000803e3d6000fd5b5060408051600160a060020a03851681526020810184905281517fdf20fd1e76bc69d672e4814fafb2c449bba3a5369d8359adf9e05e6fde87b056929181900390910190a150919050565b61065d610734565b15156106b3576040805160e560020a62461bcd02815260206004820181905260248201527f4f776e61626c653a2063616c6c6572206973206e6f7420746865206f776e6572604482015290519081900360640190fd5b60008054604051600160a060020a03909116907f8be0079c531659141344cd1fd0a4f28419497f9722a3daafe3b4186f6b6457e0908390a36000805473ffffffffffffffffffffffffffffffffffffffff19169055565b600160a060020a031660009081526004602052604090205490565b600054600160a060020a031690565b600054600160a060020a0316331490565b61074d610734565b15156107a3576040805160e560020a62461bcd02815260206004820181905260248201527f4f776e61626c653a2063616c6c6572206973206e6f7420746865206f776e6572604482015290519081900360640190fd5b6107ac81610a4f565b50565b600160a060020a031660009081526003602052604090205490565b6000818015610824576001811461082d5760028114610836576003811461083f57600481146108485760058114610851576006811461085a5760078114610863576008811461086c5760098114610875576000915061087a565b6032915061087a565b602d915061087a565b6028915061087a565b6023915061087a565b601e915061087a565b6019915061087a565b6014915061087a565b600f915061087a565b600a915061087a565b600591505b50919050565b6000828201838110156108dd576040805160e560020a62461bcd02815260206004820152601b60248201527f536166654d6174683a206164646974696f6e206f766572666c6f770000000000604482015290519081900360640190fd5b9392505050565b60008215156108f5575060006103ed565b82820282848281151561090457fe5b04146108dd576040805160e560020a62461bcd02815260206004820152602160248201527f536166654d6174683a206d756c7469706c69636174696f6e206f766572666c6f60448201527f7700000000000000000000000000000000000000000000000000000000000000606482015290519081900360840190fd5b60008082116109d9576040805160e560020a62461bcd02815260206004820152601a60248201527f536166654d6174683a206469766973696f6e206279207a65726f000000000000604482015290519081900360640190fd5b600082848115156109e657fe5b04949350505050565b600082821115610a49576040805160e560020a62461bcd02815260206004820152601e60248201527f536166654d6174683a207375627472616374696f6e206f766572666c6f770000604482015290519081900360640190fd5b50900390565b600160a060020a0381161515610ad5576040805160e560020a62461bcd02815260206004820152602660248201527f4f776e61626c653a206e6577206f776e657220697320746865207a65726f206160448201527f6464726573730000000000000000000000000000000000000000000000000000606482015290519081900360840190fd5b60008054604051600160a060020a03808516939216917f8be0079c531659141344cd1fd0a4f28419497f9722a3daafe3b4186f6b6457e091a36000805473ffffffffffffffffffffffffffffffffffffffff1916600160a060020a039290921691909117905556fea165627a7a723058203a8049a5cc7a6e8867eaecbfadf187e6fb1ae663590a0020516aa15a2e9c71080029",
  "source": "pragma solidity ^0.5.0;\n\nimport \"openzeppelin-solidity/contracts/math/SafeMath.sol\";\nimport \"openzeppelin-solidity/contracts/ownership/Ownable.sol\";\n\n/**\n * @title RewardSplitter\n * @dev This contract is based on OpenZeppelin's PaymentSplitter.\n * The original contract didn't allow the addition of new payees and the logic in calculating the reward \n * has been modfied. In esence it still allows the split of Ether payments among a group of accounts.\n * The sender does not need to be aware that the Ether will be split in this way since\n * it is handled transparently by the contract.\n *\n * The contract follows a _pull payment_ pattern. This means that payments are not automatically forwarded to the\n * accounts but kept in this contract, and the actual transfer is triggered as a separate step by calling the {release}\n * function.\n */\ncontract RewardSplitter is Ownable {\n    using SafeMath for uint256;\n\n    event PaymentReceived(address from, uint256 amount);\n    event PayeeAdded(address account, uint256 position, uint256 shares);\n    event PaymentReleased(address to, uint256 amount);\n\n    uint256 private totalShares;\n    uint256 private totalReleased;\n\n    mapping(address => uint256) private playerShares;\n    mapping(address => uint256) private amountReleased;\n\n    /**\n     * @dev The Ether received will be logged with `PaymentReceived` events. Note that these events are not fully\n     * reliable: it's possible for a contract to receive Ether without triggering this function. This only affects the\n     * reliability of the events, and not the actual splitting of Ether.\n     *\n     * To learn more about this see the Solidity documentation for [fallback functions].\n     *\n     * [fallback functions]: https://solidity.readthedocs.io/en/latest/contracts.html#fallback-function\n     */\n    function() external payable {\n        emit PaymentReceived(msg.sender, msg.value);\n    }\n\n    /**\n     * @dev Getter for the amount of shares held by an account.\n     */\n    function getAccountShares(address _account) public view returns (uint256) {\n        return playerShares[_account];\n    }\n\n    function getReleasedAmount(address _account) public view returns (uint256) {\n        return amountReleased[_account];\n    }\n\n    /**\n     * @dev Triggers a transfer to `account` of the amount of Ether they are owed, according to their percentage of the\n     * total shares and their previous withdrawals.\n     */\n    function release(address payable _account)\n        public\n        returns (uint256 _payment)\n    {\n        require(\n            playerShares[_account] > 0,\n            \"RewardSplitter: account has no shares\"\n        );\n\n        uint256 totalReceived = address(this).balance.add(totalReleased);\n        _payment = totalReceived\n            .mul(playerShares[_account])\n            .div(totalShares)\n            .sub(amountReleased[_account]);\n\n        require(_payment > 0, \"RewardSplitter: account is not due payment\");\n\n        amountReleased[_account] = amountReleased[_account].add(_payment);\n        totalReleased = totalReleased.add(_payment);\n\n        address(_account).transfer(_payment);\n        // address(_account).call.value(_payment);\n        emit PaymentReleased(_account, _payment);\n    }\n\n    /**\n     * @dev This method calculates the reward of a position based on an adhoc scale.\n     *\n     * @param _pos The position obtained in the ranking, from 0 to 9. Positions greater than 9 get no reward.\n     * @return The number of shares attained\n     */\n    function calculateReward(uint256 _pos)\n        internal\n        pure\n        returns (uint256 _shares)\n    {\n        assembly {\n            switch _pos\n                case 0 {\n                    _shares := 50\n                }\n                case 1 {\n                    _shares := 45\n                }\n                case 2 {\n                    _shares := 40\n                }\n                case 3 {\n                    _shares := 35\n                }\n                case 4 {\n                    _shares := 30\n                }\n                case 5 {\n                    _shares := 25\n                }\n                case 6 {\n                    _shares := 20\n                }\n                case 7 {\n                    _shares := 15\n                }\n                case 8 {\n                    _shares := 10\n                }\n                case 9 {\n                    _shares := 5\n                }\n                default {\n                    _shares := 0\n                }\n        }\n    }\n\n    /**\n     * @dev Add a new payee to the contract\n     * \n     * @param _account The address of the payee to add\n     * @param _pos The position attain in the ranking\n     * @return The number of shares attained for the given position\n     */\n    function addPayee(address _account, uint256 _pos)\n        public\n        onlyOwner()\n        returns (uint256 _shares)\n    {\n        require(\n            _account != address(0),\n            \"RewardSplitter: account is the zero address\"\n        );\n\n        _shares = calculateReward(_pos);\n\n        if (_shares > 0) {\n            playerShares[_account] = playerShares[_account].add(_shares);\n            totalShares = totalShares.add(_shares);\n            emit PayeeAdded(_account, _pos, _shares);\n        }\n    }\n}\n",
  "sourcePath": "/Volumes/Repository/Dropbox/project/thoughtfuldistractions/insertcrypto/contracts/RewardSplitter.sol",
  "compiler": {
    "name": "solc",
    "version": "0.5.0+commit.1d4f565a.Emscripten.clang"
  },
  "schemaVersion": "3.0.11",
  "updatedAt": "2019-08-09T12:15:53.145Z",
  "devdoc": {
    "details": "This contract is based on OpenZeppelin's PaymentSplitter. The original contract didn't allow the addition of new payees and the logic in calculating the reward  has been modfied. In esence it still allows the split of Ether payments among a group of accounts. The sender does not need to be aware that the Ether will be split in this way since it is handled transparently by the contract. * The contract follows a _pull payment_ pattern. This means that payments are not automatically forwarded to the accounts but kept in this contract, and the actual transfer is triggered as a separate step by calling the {release} function.",
    "methods": {
      "addPayee(address,uint256)": {
        "details": "Add a new payee to the contract ",
        "params": {
          "_account": "The address of the payee to add",
          "_pos": "The position attain in the ranking"
        },
        "return": "The number of shares attained for the given position"
      },
      "getAccountShares(address)": {
        "details": "Getter for the amount of shares held by an account."
      },
      "isOwner()": {
        "details": "Returns true if the caller is the current owner."
      },
      "owner()": {
        "details": "Returns the address of the current owner."
      },
      "release(address)": {
        "details": "Triggers a transfer to `account` of the amount of Ether they are owed, according to their percentage of the total shares and their previous withdrawals."
      },
      "renounceOwnership()": {
        "details": "Leaves the contract without owner. It will not be possible to call `onlyOwner` functions anymore. Can only be called by the current owner.     * > Note: Renouncing ownership will leave the contract without an owner, thereby removing any functionality that is only available to the owner."
      },
      "transferOwnership(address)": {
        "details": "Transfers ownership of the contract to a new account (`newOwner`). Can only be called by the current owner."
      }
    },
    "title": "RewardSplitter"
  },
  "userdoc": {
    "methods": {}
  }
}