{
  "contractName": "RewardSplitter",
  "abi": [
    {
      "constant": false,
      "inputs": [],
      "name": "renounceOwnership",
      "outputs": [],
      "payable": false,
      "stateMutability": "nonpayable",
      "type": "function"
    },
    {
      "constant": true,
      "inputs": [],
      "name": "owner",
      "outputs": [
        {
          "name": "",
          "type": "address"
        }
      ],
      "payable": false,
      "stateMutability": "view",
      "type": "function"
    },
    {
      "constant": true,
      "inputs": [],
      "name": "isOwner",
      "outputs": [
        {
          "name": "",
          "type": "bool"
        }
      ],
      "payable": false,
      "stateMutability": "view",
      "type": "function"
    },
    {
      "constant": false,
      "inputs": [
        {
          "name": "newOwner",
          "type": "address"
        }
      ],
      "name": "transferOwnership",
      "outputs": [],
      "payable": false,
      "stateMutability": "nonpayable",
      "type": "function"
    },
    {
      "payable": true,
      "stateMutability": "payable",
      "type": "fallback"
    },
    {
      "anonymous": false,
      "inputs": [
        {
          "indexed": false,
          "name": "account",
          "type": "address"
        },
        {
          "indexed": false,
          "name": "position",
          "type": "uint256"
        },
        {
          "indexed": false,
          "name": "shares",
          "type": "uint256"
        }
      ],
      "name": "PayeeAdded",
      "type": "event"
    },
    {
      "anonymous": false,
      "inputs": [
        {
          "indexed": false,
          "name": "to",
          "type": "address"
        },
        {
          "indexed": false,
          "name": "amount",
          "type": "uint256"
        }
      ],
      "name": "PaymentReleased",
      "type": "event"
    },
    {
      "anonymous": false,
      "inputs": [
        {
          "indexed": false,
          "name": "from",
          "type": "address"
        },
        {
          "indexed": false,
          "name": "amount",
          "type": "uint256"
        }
      ],
      "name": "PaymentReceived",
      "type": "event"
    },
    {
      "anonymous": false,
      "inputs": [
        {
          "indexed": true,
          "name": "previousOwner",
          "type": "address"
        },
        {
          "indexed": true,
          "name": "newOwner",
          "type": "address"
        }
      ],
      "name": "OwnershipTransferred",
      "type": "event"
    },
    {
      "constant": true,
      "inputs": [
        {
          "name": "_account",
          "type": "address"
        }
      ],
      "name": "getAccountShares",
      "outputs": [
        {
          "name": "",
          "type": "uint256"
        }
      ],
      "payable": false,
      "stateMutability": "view",
      "type": "function"
    },
    {
      "constant": true,
      "inputs": [
        {
          "name": "_account",
          "type": "address"
        }
      ],
      "name": "getReleasedAmount",
      "outputs": [
        {
          "name": "",
          "type": "uint256"
        }
      ],
      "payable": false,
      "stateMutability": "view",
      "type": "function"
    },
    {
      "constant": false,
      "inputs": [
        {
          "name": "_account",
          "type": "address"
        }
      ],
      "name": "release",
      "outputs": [
        {
          "name": "_payment",
          "type": "uint256"
        }
      ],
      "payable": false,
      "stateMutability": "nonpayable",
      "type": "function"
    },
    {
      "constant": false,
      "inputs": [
        {
          "name": "_account",
          "type": "address"
        },
        {
          "name": "_pos",
          "type": "uint256"
        }
      ],
      "name": "addPayee",
      "outputs": [
        {
          "name": "_shares",
          "type": "uint256"
        }
      ],
      "payable": false,
      "stateMutability": "nonpayable",
      "type": "function"
    }
  ],
  "bytecode": "0x6080604052336000806101000a81548173ffffffffffffffffffffffffffffffffffffffff021916908373ffffffffffffffffffffffffffffffffffffffff1602179055506000809054906101000a900473ffffffffffffffffffffffffffffffffffffffff1673ffffffffffffffffffffffffffffffffffffffff16600073ffffffffffffffffffffffffffffffffffffffff167f8be0079c531659141344cd1fd0a4f28419497f9722a3daafe3b4186f6b6457e060405160405180910390a36110ce806100cf6000396000f3fe60806040526004361061007b5760003560e01c80638da5cb5b1161004e5780638da5cb5b146102385780638f32d59b1461028f578063f2fde38b146102be578063fc6db4f41461030f5761007b565b806318f9b023146100e85780631916558714610157578063715018a6146101bc57806386197781146101d3575b7f6ef95f06320e7a25a04a175ca677b7052bdd97131872c2192525a629f51be7703334604051808373ffffffffffffffffffffffffffffffffffffffff1673ffffffffffffffffffffffffffffffffffffffff1681526020018281526020019250505060405180910390a1005b3480156100f457600080fd5b506101416004803603604081101561010b57600080fd5b81019080803573ffffffffffffffffffffffffffffffffffffffff16906020019092919080359060200190929190505050610374565b6040518082815260200191505060405180910390f35b34801561016357600080fd5b506101a66004803603602081101561017a57600080fd5b81019080803573ffffffffffffffffffffffffffffffffffffffff1690602001909291905050506105aa565b6040518082815260200191505060405180910390f35b3480156101c857600080fd5b506101d16108ee565b005b3480156101df57600080fd5b50610222600480360360208110156101f657600080fd5b81019080803573ffffffffffffffffffffffffffffffffffffffff169060200190929190505050610a27565b6040518082815260200191505060405180910390f35b34801561024457600080fd5b5061024d610a70565b604051808273ffffffffffffffffffffffffffffffffffffffff1673ffffffffffffffffffffffffffffffffffffffff16815260200191505060405180910390f35b34801561029b57600080fd5b506102a4610a99565b604051808215151515815260200191505060405180910390f35b3480156102ca57600080fd5b5061030d600480360360208110156102e157600080fd5b81019080803573ffffffffffffffffffffffffffffffffffffffff169060200190929190505050610af0565b005b34801561031b57600080fd5b5061035e6004803603602081101561033257600080fd5b81019080803573ffffffffffffffffffffffffffffffffffffffff169060200190929190505050610b76565b6040518082815260200191505060405180910390f35b600061037e610a99565b6103f0576040517f08c379a00000000000000000000000000000000000000000000000000000000081526004018080602001828103825260208152602001807f4f776e61626c653a2063616c6c6572206973206e6f7420746865206f776e657281525060200191505060405180910390fd5b600073ffffffffffffffffffffffffffffffffffffffff168373ffffffffffffffffffffffffffffffffffffffff161415610476576040517f08c379a000000000000000000000000000000000000000000000000000000000815260040180806020018281038252602b81526020018061100c602b913960400191505060405180910390fd5b61047f82610bbf565b90506104d381600360008673ffffffffffffffffffffffffffffffffffffffff1673ffffffffffffffffffffffffffffffffffffffff16815260200190815260200160002054610c7790919063ffffffff16565b600360008573ffffffffffffffffffffffffffffffffffffffff1673ffffffffffffffffffffffffffffffffffffffff1681526020019081526020016000208190555061052b81600154610c7790919063ffffffff16565b6001819055507fb3c52e7e1d58db9d4d5f530a5a71ac54a2fd63e3fcaed60f24c35adf352c21e1838383604051808473ffffffffffffffffffffffffffffffffffffffff1673ffffffffffffffffffffffffffffffffffffffff168152602001838152602001828152602001935050505060405180910390a192915050565b600080600360008473ffffffffffffffffffffffffffffffffffffffff1673ffffffffffffffffffffffffffffffffffffffff1681526020019081526020016000205411610643576040517f08c379a000000000000000000000000000000000000000000000000000000000815260040180806020018281038252602581526020018061105d6025913960400191505060405180910390fd5b60006106716002543073ffffffffffffffffffffffffffffffffffffffff1631610c7790919063ffffffff16565b905061072a600460008573ffffffffffffffffffffffffffffffffffffffff1673ffffffffffffffffffffffffffffffffffffffff1681526020019081526020016000205461071c60015461070e600360008973ffffffffffffffffffffffffffffffffffffffff1673ffffffffffffffffffffffffffffffffffffffff1681526020019081526020016000205486610cff90919063ffffffff16565b610d8590919063ffffffff16565b610e1490919063ffffffff16565b91506000821415610786576040517f08c379a000000000000000000000000000000000000000000000000000000000815260040180806020018281038252602a815260200180610fe2602a913960400191505060405180910390fd5b6107d882600460008673ffffffffffffffffffffffffffffffffffffffff1673ffffffffffffffffffffffffffffffffffffffff16815260200190815260200160002054610c7790919063ffffffff16565b600460008573ffffffffffffffffffffffffffffffffffffffff1673ffffffffffffffffffffffffffffffffffffffff1681526020019081526020016000208190555061083082600254610c7790919063ffffffff16565b6002819055508273ffffffffffffffffffffffffffffffffffffffff166108fc839081150290604051600060405180830381858888f1935050505015801561087c573d6000803e3d6000fd5b507fdf20fd1e76bc69d672e4814fafb2c449bba3a5369d8359adf9e05e6fde87b0568383604051808373ffffffffffffffffffffffffffffffffffffffff1673ffffffffffffffffffffffffffffffffffffffff1681526020018281526020019250505060405180910390a150919050565b6108f6610a99565b610968576040517f08c379a00000000000000000000000000000000000000000000000000000000081526004018080602001828103825260208152602001807f4f776e61626c653a2063616c6c6572206973206e6f7420746865206f776e657281525060200191505060405180910390fd5b600073ffffffffffffffffffffffffffffffffffffffff166000809054906101000a900473ffffffffffffffffffffffffffffffffffffffff1673ffffffffffffffffffffffffffffffffffffffff167f8be0079c531659141344cd1fd0a4f28419497f9722a3daafe3b4186f6b6457e060405160405180910390a360008060006101000a81548173ffffffffffffffffffffffffffffffffffffffff021916908373ffffffffffffffffffffffffffffffffffffffff160217905550565b6000600460008373ffffffffffffffffffffffffffffffffffffffff1673ffffffffffffffffffffffffffffffffffffffff168152602001908152602001600020549050919050565b60008060009054906101000a900473ffffffffffffffffffffffffffffffffffffffff16905090565b60008060009054906101000a900473ffffffffffffffffffffffffffffffffffffffff1673ffffffffffffffffffffffffffffffffffffffff163373ffffffffffffffffffffffffffffffffffffffff1614905090565b610af8610a99565b610b6a576040517f08c379a00000000000000000000000000000000000000000000000000000000081526004018080602001828103825260208152602001807f4f776e61626c653a2063616c6c6572206973206e6f7420746865206f776e657281525060200191505060405180910390fd5b610b7381610e9d565b50565b6000600360008373ffffffffffffffffffffffffffffffffffffffff1673ffffffffffffffffffffffffffffffffffffffff168152602001908152602001600020549050919050565b60008160008114610c1b5760018114610c245760028114610c2d5760038114610c365760048114610c3f5760058114610c485760068114610c515760078114610c5a5760088114610c635760098114610c6c5760009150610c71565b60329150610c71565b602d9150610c71565b60289150610c71565b60239150610c71565b601e9150610c71565b60199150610c71565b60149150610c71565b600f9150610c71565b600a9150610c71565b600591505b50919050565b600080828401905083811015610cf5576040517f08c379a000000000000000000000000000000000000000000000000000000000815260040180806020018281038252601b8152602001807f536166654d6174683a206164646974696f6e206f766572666c6f77000000000081525060200191505060405180910390fd5b8091505092915050565b600080831415610d125760009050610d7f565b6000828402905082848281610d2357fe5b0414610d7a576040517f08c379a00000000000000000000000000000000000000000000000000000000081526004018080602001828103825260218152602001806110826021913960400191505060405180910390fd5b809150505b92915050565b6000808211610dfc576040517f08c379a000000000000000000000000000000000000000000000000000000000815260040180806020018281038252601a8152602001807f536166654d6174683a206469766973696f6e206279207a65726f00000000000081525060200191505060405180910390fd5b6000828481610e0757fe5b0490508091505092915050565b600082821115610e8c576040517f08c379a000000000000000000000000000000000000000000000000000000000815260040180806020018281038252601e8152602001807f536166654d6174683a207375627472616374696f6e206f766572666c6f77000081525060200191505060405180910390fd5b600082840390508091505092915050565b600073ffffffffffffffffffffffffffffffffffffffff168173ffffffffffffffffffffffffffffffffffffffff161415610f23576040517f08c379a00000000000000000000000000000000000000000000000000000000081526004018080602001828103825260268152602001806110376026913960400191505060405180910390fd5b8073ffffffffffffffffffffffffffffffffffffffff166000809054906101000a900473ffffffffffffffffffffffffffffffffffffffff1673ffffffffffffffffffffffffffffffffffffffff167f8be0079c531659141344cd1fd0a4f28419497f9722a3daafe3b4186f6b6457e060405160405180910390a3806000806101000a81548173ffffffffffffffffffffffffffffffffffffffff021916908373ffffffffffffffffffffffffffffffffffffffff1602179055505056fe52657761726453706c69747465723a206163636f756e74206973206e6f7420647565207061796d656e7452657761726453706c69747465723a206163636f756e7420697320746865207a65726f20616464726573734f776e61626c653a206e6577206f776e657220697320746865207a65726f206164647265737352657761726453706c69747465723a206163636f756e7420686173206e6f20736861726573536166654d6174683a206d756c7469706c69636174696f6e206f766572666c6f77a165627a7a72305820008dbbf4c6f764be4cf0b026228ec747277ce5763a93e400705f6feb7d0190590029",
  "source": "pragma solidity ^0.5.0;\n\nimport \"openzeppelin-solidity/contracts/math/SafeMath.sol\";\nimport \"openzeppelin-solidity/contracts/ownership/Ownable.sol\";\n\ncontract RewardSplitter is Ownable {\n    using SafeMath for uint256;\n\n    event PayeeAdded(address account, uint256 position, uint256 shares);\n    event PaymentReleased(address to, uint256 amount);\n    event PaymentReceived(address from, uint256 amount);\n\n    uint256 private totalShares;\n    uint256 private totalReleased;\n\n    mapping(address => uint256) private playerShares;\n    mapping(address => uint256) private amountReleased;\n\n    /**\n     * @dev The Ether received will be logged with `PaymentReceived` events. Note that these events are not fully\n     * reliable: it's possible for a contract to receive Ether without triggering this function. This only affects the\n     * reliability of the events, and not the actual splitting of Ether.\n     *\n     * To learn more about this see the Solidity documentation for [fallback functions].\n     *\n     * [fallback functions]: https://solidity.readthedocs.io/en/latest/contracts.html#fallback-function\n     */\n    function() external payable {\n        emit PaymentReceived(msg.sender, msg.value);\n    }\n\n    /**\n     * @dev Getter for the amount of shares held by an account.\n     */\n    function getAccountShares(address _account) public view returns (uint256) {\n        return playerShares[_account];\n    }\n\n    function getReleasedAmount(address _account) public view returns (uint256) {\n        return amountReleased[_account];\n    }\n\n    /**\n     * @dev Triggers a transfer to `account` of the amount of Ether they are owed, according to their percentage of the\n     * total shares and their previous withdrawals.\n     */\n    function release(address payable _account)\n        public\n        returns (uint256 _payment)\n    {\n        require(\n            playerShares[_account] > 0,\n            \"RewardSplitter: account has no shares\"\n        );\n\n        uint256 totalReceived = address(this).balance.add(totalReleased);\n        _payment = totalReceived\n            .mul(playerShares[_account])\n            .div(totalShares)\n            .sub(amountReleased[_account]);\n\n        require(_payment != 0, \"RewardSplitter: account is not due payment\");\n\n        amountReleased[_account] = amountReleased[_account].add(_payment);\n        totalReleased = totalReleased.add(_payment);\n\n        _account.transfer(_payment);\n        emit PaymentReleased(_account, _payment);\n    }\n\n    function calculateReward(uint256 _pos)\n        internal\n        pure\n        returns (uint256 _shares)\n    {\n        assembly {\n            switch _pos\n                case 0 {\n                    _shares := 50\n                }\n                case 1 {\n                    _shares := 45\n                }\n                case 2 {\n                    _shares := 40\n                }\n                case 3 {\n                    _shares := 35\n                }\n                case 4 {\n                    _shares := 30\n                }\n                case 5 {\n                    _shares := 25\n                }\n                case 6 {\n                    _shares := 20\n                }\n                case 7 {\n                    _shares := 15\n                }\n                case 8 {\n                    _shares := 10\n                }\n                case 9 {\n                    _shares := 5\n                }\n                default {\n                    _shares := 0\n                }\n        }\n    }\n\n    /**\n     * @dev Add a new payee to the contract.\n     * @param _account The address of the payee to add.\n     * @param _pos The number of shares owned by the payee.\n     */\n    function addPayee(address _account, uint256 _pos)\n        public\n        onlyOwner()\n        returns (uint256 _shares)\n    {\n        require(\n            _account != address(0),\n            \"RewardSplitter: account is the zero address\"\n        );\n\n        _shares = calculateReward(_pos);\n\n        playerShares[_account] = playerShares[_account].add(_shares);\n        totalShares = totalShares.add(_shares);\n        emit PayeeAdded(_account, _pos, _shares);\n    }\n}\n",
  "sourcePath": "/Volumes/Repository/Dropbox/project/thoughtfuldistractions/insertcrypto/code/contracts/RewardSplitter.sol",
  "compiler": {
    "name": "solc",
    "version": "0.5.8+commit.23d335f2.Emscripten.clang"
  },
  "schemaVersion": "3.0.11",
  "updatedAt": "2019-07-31T23:31:42.525Z",
  "devdoc": {
    "methods": {
      "addPayee(address,uint256)": {
        "details": "Add a new payee to the contract.",
        "params": {
          "_account": "The address of the payee to add.",
          "_pos": "The number of shares owned by the payee."
        }
      },
      "getAccountShares(address)": {
        "details": "Getter for the amount of shares held by an account."
      },
      "isOwner()": {
        "details": "Returns true if the caller is the current owner."
      },
      "owner()": {
        "details": "Returns the address of the current owner."
      },
      "release(address)": {
        "details": "Triggers a transfer to `account` of the amount of Ether they are owed, according to their percentage of the total shares and their previous withdrawals."
      },
      "renounceOwnership()": {
        "details": "Leaves the contract without owner. It will not be possible to call `onlyOwner` functions anymore. Can only be called by the current owner.     * > Note: Renouncing ownership will leave the contract without an owner, thereby removing any functionality that is only available to the owner."
      },
      "transferOwnership(address)": {
        "details": "Transfers ownership of the contract to a new account (`newOwner`). Can only be called by the current owner."
      }
    }
  },
  "userdoc": {
    "methods": {}
  }
}