{
  "contractName": "Strings",
  "abi": [
    {
      "constant": true,
      "inputs": [
        {
          "name": "_addr",
          "type": "address"
        }
      ],
      "name": "addressToString",
      "outputs": [
        {
          "name": "",
          "type": "string"
        }
      ],
      "payable": false,
      "stateMutability": "pure",
      "type": "function"
    }
  ],
  "bytecode": "0x6103a4610026600b82828239805160001a60731461001957fe5b30600052607381538281f3fe73000000000000000000000000000000000000000030146080604052600436106100355760003560e01c80635e57966d1461003a575b600080fd5b61007c6004803603602081101561005057600080fd5b81019080803573ffffffffffffffffffffffffffffffffffffffff1690602001909291905050506100f7565b6040518080602001828103825283818151815260200191508051906020019080838360005b838110156100bc5780820151818401526020810190506100a1565b50505050905090810190601f1680156100e95780820380516001836020036101000a031916815260200191505b509250505060405180910390f35b606060008273ffffffffffffffffffffffffffffffffffffffff1660001b905060606040518060400160405280601081526020017f303132333435363738396162636465660000000000000000000000000000000081525090506060602a6040519080825280601f01601f1916602001820160405280156101875781602001600182028038833980820191505090505b5090507f3000000000000000000000000000000000000000000000000000000000000000816000815181106101b857fe5b60200101907effffffffffffffffffffffffffffffffffffffffffffffffffffffffffffff1916908160001a9053507f78000000000000000000000000000000000000000000000000000000000000008160018151811061021557fe5b60200101907effffffffffffffffffffffffffffffffffffffffffffffffffffffffffffff1916908160001a90535060008090505b601481101561036c5782600485600c84016020811061026557fe5b1a60f81b7effffffffffffffffffffffffffffffffffffffffffffffffffffffffffffff1916901c60f81c60ff168151811061029d57fe5b602001015160f81c60f81b8260028302600201815181106102ba57fe5b60200101907effffffffffffffffffffffffffffffffffffffffffffffffffffffffffffff1916908160001a90535082600f60f81b85600c8401602081106102fe57fe5b1a60f81b1660f81c60ff168151811061031357fe5b602001015160f81c60f81b82600283026003018151811061033057fe5b60200101907effffffffffffffffffffffffffffffffffffffffffffffffffffffffffffff1916908160001a905350808060010191505061024a565b5080935050505091905056fea165627a7a7230582081f8a4f03ce20d7c89f3365095f64210ee8f02f0fe5ff71bdb41f9a5dfe7792c0029",
  "source": "pragma solidity ^0.5.0;\n\nlibrary Strings {\n    function strConcat(string memory _a, string memory _b)\n        internal\n        pure\n        returns (string memory)\n    {\n        bytes memory _ba = bytes(_a);\n        bytes memory _bb = bytes(_b);\n        string memory ab = new string(_ba.length + _bb.length);\n        bytes memory bab = bytes(ab);\n        uint256 k = 0;\n        uint256 i = 0;\n        for (i = 0; i < _ba.length; i++) {\n            bab[k++] = _ba[i];\n        }\n        for (i = 0; i < _bb.length; i++) {\n            bab[k++] = _bb[i];\n        }\n        return string(bab);\n    }\n\n    function uint2str(uint256 _i) internal pure returns (string memory) {\n        if (_i == 0) {\n            return \"0\";\n        }\n        uint256 j = _i;\n        uint256 len;\n        while (j != 0) {\n            len++;\n            j /= 10;\n        }\n        bytes memory bstr = new bytes(len);\n        uint256 k = len - 1;\n        while (_i != 0) {\n            bstr[k--] = bytes1(uint8(48 + _i % 10));\n            _i /= 10;\n        }\n        return string(bstr);\n    }\n\n    function addressToString(address _addr)\n        public\n        pure\n        returns (string memory)\n    {\n        bytes32 value = bytes32(uint256(_addr));\n        bytes memory alphabet = \"0123456789abcdef\";\n\n        bytes memory str = new bytes(42);\n        str[0] = \"0\";\n        str[1] = \"x\";\n        for (uint256 i = 0; i < 20; i++) {\n            str[2 + i * 2] = alphabet[uint8(value[i + 12] >> 4)];\n            str[3 + i * 2] = alphabet[uint8(value[i + 12] & 0x0f)];\n        }\n        return string(str);\n    }\n}\n",
  "sourcePath": "/Volumes/Repository/Dropbox/project/thoughtfuldistractions/insertcrypto/code/contracts/Strings.sol",
  "compiler": {
    "name": "solc",
    "version": "0.5.8+commit.23d335f2.Emscripten.clang"
  },
  "schemaVersion": "3.0.11",
  "updatedAt": "2019-07-31T23:31:42.495Z",
  "devdoc": {
    "methods": {}
  },
  "userdoc": {
    "methods": {}
  }
}