{
  "contractName": "Zenny",
  "abi": [
    {
      "constant": true,
      "inputs": [],
      "name": "defaultOperators",
      "outputs": [
        {
          "name": "",
          "type": "address[]"
        }
      ],
      "payable": false,
      "stateMutability": "view",
      "type": "function"
    },
    {
      "constant": true,
      "inputs": [],
      "name": "name",
      "outputs": [
        {
          "name": "",
          "type": "string"
        }
      ],
      "payable": false,
      "stateMutability": "view",
      "type": "function"
    },
    {
      "constant": false,
      "inputs": [
        {
          "name": "spender",
          "type": "address"
        },
        {
          "name": "value",
          "type": "uint256"
        }
      ],
      "name": "approve",
      "outputs": [
        {
          "name": "",
          "type": "bool"
        }
      ],
      "payable": false,
      "stateMutability": "nonpayable",
      "type": "function"
    },
    {
      "constant": true,
      "inputs": [],
      "name": "totalSupply",
      "outputs": [
        {
          "name": "",
          "type": "uint256"
        }
      ],
      "payable": false,
      "stateMutability": "view",
      "type": "function"
    },
    {
      "constant": false,
      "inputs": [
        {
          "name": "holder",
          "type": "address"
        },
        {
          "name": "recipient",
          "type": "address"
        },
        {
          "name": "amount",
          "type": "uint256"
        }
      ],
      "name": "transferFrom",
      "outputs": [
        {
          "name": "",
          "type": "bool"
        }
      ],
      "payable": false,
      "stateMutability": "nonpayable",
      "type": "function"
    },
    {
      "constant": true,
      "inputs": [],
      "name": "decimals",
      "outputs": [
        {
          "name": "",
          "type": "uint8"
        }
      ],
      "payable": false,
      "stateMutability": "pure",
      "type": "function"
    },
    {
      "constant": true,
      "inputs": [],
      "name": "granularity",
      "outputs": [
        {
          "name": "",
          "type": "uint256"
        }
      ],
      "payable": false,
      "stateMutability": "view",
      "type": "function"
    },
    {
      "constant": false,
      "inputs": [
        {
          "name": "sender",
          "type": "address"
        },
        {
          "name": "recipient",
          "type": "address"
        },
        {
          "name": "amount",
          "type": "uint256"
        },
        {
          "name": "data",
          "type": "bytes"
        },
        {
          "name": "operatorData",
          "type": "bytes"
        }
      ],
      "name": "operatorSend",
      "outputs": [],
      "payable": false,
      "stateMutability": "nonpayable",
      "type": "function"
    },
    {
      "constant": true,
      "inputs": [
        {
          "name": "tokenHolder",
          "type": "address"
        }
      ],
      "name": "balanceOf",
      "outputs": [
        {
          "name": "",
          "type": "uint256"
        }
      ],
      "payable": false,
      "stateMutability": "view",
      "type": "function"
    },
    {
      "constant": false,
      "inputs": [
        {
          "name": "operator",
          "type": "address"
        }
      ],
      "name": "authorizeOperator",
      "outputs": [],
      "payable": false,
      "stateMutability": "nonpayable",
      "type": "function"
    },
    {
      "constant": true,
      "inputs": [],
      "name": "symbol",
      "outputs": [
        {
          "name": "",
          "type": "string"
        }
      ],
      "payable": false,
      "stateMutability": "view",
      "type": "function"
    },
    {
      "constant": false,
      "inputs": [
        {
          "name": "recipient",
          "type": "address"
        },
        {
          "name": "amount",
          "type": "uint256"
        },
        {
          "name": "data",
          "type": "bytes"
        }
      ],
      "name": "send",
      "outputs": [],
      "payable": false,
      "stateMutability": "nonpayable",
      "type": "function"
    },
    {
      "constant": false,
      "inputs": [
        {
          "name": "recipient",
          "type": "address"
        },
        {
          "name": "amount",
          "type": "uint256"
        }
      ],
      "name": "transfer",
      "outputs": [
        {
          "name": "",
          "type": "bool"
        }
      ],
      "payable": false,
      "stateMutability": "nonpayable",
      "type": "function"
    },
    {
      "constant": true,
      "inputs": [
        {
          "name": "operator",
          "type": "address"
        },
        {
          "name": "tokenHolder",
          "type": "address"
        }
      ],
      "name": "isOperatorFor",
      "outputs": [
        {
          "name": "",
          "type": "bool"
        }
      ],
      "payable": false,
      "stateMutability": "view",
      "type": "function"
    },
    {
      "constant": true,
      "inputs": [
        {
          "name": "holder",
          "type": "address"
        },
        {
          "name": "spender",
          "type": "address"
        }
      ],
      "name": "allowance",
      "outputs": [
        {
          "name": "",
          "type": "uint256"
        }
      ],
      "payable": false,
      "stateMutability": "view",
      "type": "function"
    },
    {
      "constant": false,
      "inputs": [
        {
          "name": "operator",
          "type": "address"
        }
      ],
      "name": "revokeOperator",
      "outputs": [],
      "payable": false,
      "stateMutability": "nonpayable",
      "type": "function"
    },
    {
      "constant": false,
      "inputs": [
        {
          "name": "account",
          "type": "address"
        },
        {
          "name": "amount",
          "type": "uint256"
        },
        {
          "name": "data",
          "type": "bytes"
        },
        {
          "name": "operatorData",
          "type": "bytes"
        }
      ],
      "name": "operatorBurn",
      "outputs": [],
      "payable": false,
      "stateMutability": "nonpayable",
      "type": "function"
    },
    {
      "constant": false,
      "inputs": [
        {
          "name": "amount",
          "type": "uint256"
        },
        {
          "name": "data",
          "type": "bytes"
        }
      ],
      "name": "burn",
      "outputs": [],
      "payable": false,
      "stateMutability": "nonpayable",
      "type": "function"
    },
    {
      "inputs": [
        {
          "name": "initialSupply",
          "type": "uint256"
        }
      ],
      "payable": false,
      "stateMutability": "nonpayable",
      "type": "constructor"
    },
    {
      "anonymous": false,
      "inputs": [
        {
          "indexed": true,
          "name": "from",
          "type": "address"
        },
        {
          "indexed": true,
          "name": "to",
          "type": "address"
        },
        {
          "indexed": false,
          "name": "value",
          "type": "uint256"
        }
      ],
      "name": "Transfer",
      "type": "event"
    },
    {
      "anonymous": false,
      "inputs": [
        {
          "indexed": true,
          "name": "owner",
          "type": "address"
        },
        {
          "indexed": true,
          "name": "spender",
          "type": "address"
        },
        {
          "indexed": false,
          "name": "value",
          "type": "uint256"
        }
      ],
      "name": "Approval",
      "type": "event"
    },
    {
      "anonymous": false,
      "inputs": [
        {
          "indexed": true,
          "name": "operator",
          "type": "address"
        },
        {
          "indexed": true,
          "name": "from",
          "type": "address"
        },
        {
          "indexed": true,
          "name": "to",
          "type": "address"
        },
        {
          "indexed": false,
          "name": "amount",
          "type": "uint256"
        },
        {
          "indexed": false,
          "name": "data",
          "type": "bytes"
        },
        {
          "indexed": false,
          "name": "operatorData",
          "type": "bytes"
        }
      ],
      "name": "Sent",
      "type": "event"
    },
    {
      "anonymous": false,
      "inputs": [
        {
          "indexed": true,
          "name": "operator",
          "type": "address"
        },
        {
          "indexed": true,
          "name": "to",
          "type": "address"
        },
        {
          "indexed": false,
          "name": "amount",
          "type": "uint256"
        },
        {
          "indexed": false,
          "name": "data",
          "type": "bytes"
        },
        {
          "indexed": false,
          "name": "operatorData",
          "type": "bytes"
        }
      ],
      "name": "Minted",
      "type": "event"
    },
    {
      "anonymous": false,
      "inputs": [
        {
          "indexed": true,
          "name": "operator",
          "type": "address"
        },
        {
          "indexed": true,
          "name": "from",
          "type": "address"
        },
        {
          "indexed": false,
          "name": "amount",
          "type": "uint256"
        },
        {
          "indexed": false,
          "name": "data",
          "type": "bytes"
        },
        {
          "indexed": false,
          "name": "operatorData",
          "type": "bytes"
        }
      ],
      "name": "Burned",
      "type": "event"
    },
    {
      "anonymous": false,
      "inputs": [
        {
          "indexed": true,
          "name": "operator",
          "type": "address"
        },
        {
          "indexed": true,
          "name": "tokenHolder",
          "type": "address"
        }
      ],
      "name": "AuthorizedOperator",
      "type": "event"
    },
    {
      "anonymous": false,
      "inputs": [
        {
          "indexed": true,
          "name": "operator",
          "type": "address"
        },
        {
          "indexed": true,
          "name": "tokenHolder",
          "type": "address"
        }
      ],
      "name": "RevokedOperator",
      "type": "event"
    }
  ],
  "bytecode": "0x608060405260008054600160a060020a031916731820a4b7618bde71dce8cdc73aab6c95905fad241790553480156200003757600080fd5b5060405160208062002931833981018060405260208110156200005957600080fd5b5051604080518082018252600581527f5a656e6e7900000000000000000000000000000000000000000000000000000060208083019182528351808501855260038082527f5a4e590000000000000000000000000000000000000000000000000000000000828401528551600081529283019095528351939490939192620000e1926200098c565b508151620000f79060049060208501906200098c565b5080516200010d90600590602084019062000a11565b5060005b6005548110156200016f576001600660006005848154811015156200013257fe5b600091825260208083209190910154600160a060020a031683528201929092526040019020805460ff191691151591909117905560010162000111565b5060008054604080517f455243373737546f6b656e0000000000000000000000000000000000000000008152815190819003600b0181207f29965a1d0000000000000000000000000000000000000000000000000000000082523060048301819052602483019190915260448201529051600160a060020a03909216926329965a1d9260648084019382900301818387803b1580156200020e57600080fd5b505af115801562000223573d6000803e3d6000fd5b505060008054604080517f4552433230546f6b656e000000000000000000000000000000000000000000008152815190819003600a0181207f29965a1d0000000000000000000000000000000000000000000000000000000082523060048301819052602483019190915260448201529051600160a060020a0390921694506329965a1d9350606480820193929182900301818387803b158015620002c757600080fd5b505af1158015620002dc573d6000803e3d6000fd5b50505050505050620003213333836020604051908101604052806000815250602060405190810160405280600081525062000328640100000000026401000000009004565b5062000abe565b600160a060020a0384161515620003a057604080517f08c379a000000000000000000000000000000000000000000000000000000000815260206004820181905260248201527f4552433737373a206d696e7420746f20746865207a65726f2061646472657373604482015290519081900360640190fd5b600254620003bd908464010000000062001dd2620005a882021704565b600255600160a060020a038416600090815260016020526040902054620003f3908464010000000062001dd2620005a882021704565b6001600086600160a060020a0316600160a060020a03168152602001908152602001600020819055506200043e85600086868686600162000624640100000000026401000000009004565b83600160a060020a031685600160a060020a03167f2fe5be0146f74c5bce36c0b80911af6c7d86ff27e89d5cfa61fc681327954e5d858585604051808481526020018060200180602001838103835285818151815260200191508051906020019080838360005b83811015620004bf578181015183820152602001620004a5565b50505050905090810190601f168015620004ed5780820380516001836020036101000a031916815260200191505b50838103825284518152845160209182019186019080838360005b838110156200052257818101518382015260200162000508565b50505050905090810190601f168015620005505780820380516001836020036101000a031916815260200191505b509550505050505060405180910390a3604080518481529051600160a060020a038616916000917fddf252ad1be2c89b69c2b068fc378daa952ba7f163c4a11628f55a4df523b3ef9181900360200190a35050505050565b6000828201838110156200061d57604080517f08c379a000000000000000000000000000000000000000000000000000000000815260206004820152601b60248201527f536166654d6174683a206164646974696f6e206f766572666c6f770000000000604482015290519081900360640190fd5b9392505050565b60008054604080517faabbb8ca000000000000000000000000000000000000000000000000000000008152600160a060020a0389811660048301527fb281fc8c12954d22544db45de3159a39272895b169a852b314f9cc762e44c53b60248301529151919092169163aabbb8ca916044808301926020929190829003018186803b158015620006b257600080fd5b505afa158015620006c7573d6000803e3d6000fd5b505050506040513d6020811015620006de57600080fd5b50519050600160a060020a03811615620008985780600160a060020a03166223de298989898989896040518763ffffffff167c01000000000000000000000000000000000000000000000000000000000281526004018087600160a060020a0316600160a060020a0316815260200186600160a060020a0316600160a060020a0316815260200185600160a060020a0316600160a060020a031681526020018481526020018060200180602001838103835285818151815260200191508051906020019080838360005b83811015620007c2578181015183820152602001620007a8565b50505050905090810190601f168015620007f05780820380516001836020036101000a031916815260200191505b50838103825284518152845160209182019186019080838360005b83811015620008255781810151838201526020016200080b565b50505050905090810190601f168015620008535780820380516001836020036101000a031916815260200191505b5098505050505050505050600060405180830381600087803b1580156200087957600080fd5b505af11580156200088e573d6000803e3d6000fd5b505050506200097a565b81156200097a57620008c1600160a060020a03871664010000000062001e2f6200098482021704565b156200097a57604080517f08c379a000000000000000000000000000000000000000000000000000000000815260206004820152604d60248201527f4552433737373a20746f6b656e20726563697069656e7420636f6e747261637460448201527f20686173206e6f20696d706c656d656e74657220666f7220455243373737546f60648201527f6b656e73526563697069656e7400000000000000000000000000000000000000608482015290519081900360a40190fd5b5050505050505050565b6000903b1190565b828054600181600116156101000203166002900490600052602060002090601f016020900481019282601f10620009cf57805160ff1916838001178555620009ff565b82800160010185558215620009ff579182015b82811115620009ff578251825591602001919060010190620009e2565b5062000a0d92915062000a77565b5090565b82805482825590600052602060002090810192821562000a69579160200282015b8281111562000a695782518254600160a060020a031916600160a060020a0390911617825560209092019160019091019062000a32565b5062000a0d92915062000a97565b62000a9491905b8082111562000a0d576000815560010162000a7e565b90565b62000a9491905b8082111562000a0d578054600160a060020a031916815560010162000a9e565b611e638062000ace6000396000f3fe6080604052600436106100e25763ffffffff60e060020a60003504166306e4853881146100e757806306fdde031461014c578063095ea7b3146101d657806318160ddd1461022357806323b872dd1461024a578063313ce5671461028d578063556f0dc7146102b857806362ad1b83146102cd57806370a08231146103be578063959b8c3f146103f157806395d89b41146104245780639bd9bbc614610439578063a9059cbb146104cb578063d95b637114610504578063dd62ed3e1461053f578063fad8b32a1461057a578063fc673c4f146105ad578063fe9d930314610691575b600080fd5b3480156100f357600080fd5b506100fc610715565b60408051602080825283518183015283519192839290830191858101910280838360005b83811015610138578181015183820152602001610120565b505050509050019250505060405180910390f35b34801561015857600080fd5b50610161610777565b6040805160208082528351818301528351919283929083019185019080838360005b8381101561019b578181015183820152602001610183565b50505050905090810190601f1680156101c85780820380516001836020036101000a031916815260200191505b509250505060405180910390f35b3480156101e257600080fd5b5061020f600480360360408110156101f957600080fd5b50600160a060020a038135169060200135610804565b604080519115158252519081900360200190f35b34801561022f57600080fd5b5061023861081c565b60408051918252519081900360200190f35b34801561025657600080fd5b5061020f6004803603606081101561026d57600080fd5b50600160a060020a03813581169160208101359091169060400135610822565b34801561029957600080fd5b506102a2610a0e565b6040805160ff9092168252519081900360200190f35b3480156102c457600080fd5b50610238610a13565b3480156102d957600080fd5b506103bc600480360360a08110156102f057600080fd5b600160a060020a0382358116926020810135909116916040820135919081019060808101606082013564010000000081111561032b57600080fd5b82018360208201111561033d57600080fd5b8035906020019184600183028401116401000000008311171561035f57600080fd5b91939092909160208101903564010000000081111561037d57600080fd5b82018360208201111561038f57600080fd5b803590602001918460018302840111640100000000831117156103b157600080fd5b509092509050610a18565b005b3480156103ca57600080fd5b50610238600480360360208110156103e157600080fd5b5035600160a060020a0316610b21565b3480156103fd57600080fd5b506103bc6004803603602081101561041457600080fd5b5035600160a060020a0316610b3c565b34801561043057600080fd5b50610161610c7b565b34801561044557600080fd5b506103bc6004803603606081101561045c57600080fd5b600160a060020a038235169160208101359181019060608101604082013564010000000081111561048c57600080fd5b82018360208201111561049e57600080fd5b803590602001918460018302840111640100000000831117156104c057600080fd5b509092509050610cdc565b3480156104d757600080fd5b5061020f600480360360408110156104ee57600080fd5b50600160a060020a038135169060200135610d36565b34801561051057600080fd5b5061020f6004803603604081101561052757600080fd5b50600160a060020a0381358116916020013516610e4e565b34801561054b57600080fd5b506102386004803603604081101561056257600080fd5b50600160a060020a0381358116916020013516610ef0565b34801561058657600080fd5b506103bc6004803603602081101561059d57600080fd5b5035600160a060020a0316610f1b565b3480156105b957600080fd5b506103bc600480360360808110156105d057600080fd5b600160a060020a038235169160208101359181019060608101604082013564010000000081111561060057600080fd5b82018360208201111561061257600080fd5b8035906020019184600183028401116401000000008311171561063457600080fd5b91939092909160208101903564010000000081111561065257600080fd5b82018360208201111561066457600080fd5b8035906020019184600183028401116401000000008311171561068657600080fd5b50909250905061105b565b34801561069d57600080fd5b506103bc600480360360408110156106b457600080fd5b813591908101906040810160208201356401000000008111156106d657600080fd5b8201836020820111156106e857600080fd5b8035906020019184600183028401116401000000008311171561070a57600080fd5b50909250905061115f565b6060600580548060200260200160405190810160405280929190818152602001828054801561076d57602002820191906000526020600020905b8154600160a060020a0316815260019091019060200180831161074f575b5050505050905090565b60038054604080516020601f600260001961010060018816150201909516949094049384018190048102820181019092528281526060939092909183018282801561076d5780601f106107d85761010080835404028352916020019161076d565b820191906000526020600020905b8154815290600101906020018083116107e657509395945050505050565b6000336108128185856111b4565b5060019392505050565b60025490565b6000600160a060020a03831615156108a9576040805160e560020a62461bcd028152602060048201526024808201527f4552433737373a207472616e7366657220746f20746865207a65726f2061646460448201527f7265737300000000000000000000000000000000000000000000000000000000606482015290519081900360840190fd5b600160a060020a038416151561092f576040805160e560020a62461bcd02815260206004820152602660248201527f4552433737373a207472616e736665722066726f6d20746865207a65726f206160448201527f6464726573730000000000000000000000000000000000000000000000000000606482015290519081900360840190fd5b6000339050610962818686866020604051908101604052806000815250602060405190810160405280600081525061129c565b61099081868686602060405190810160405280600081525060206040519081016040528060008152506114ef565b600160a060020a038086166000908152600960209081526040808320938516835292905220546109d390869083906109ce908763ffffffff6116ef16565b6111b4565b610a038186868660206040519081016040528060008152506020604051908101604052806000815250600061174f565b506001949350505050565b601290565b600190565b610a223388610e4e565b1515610a9e576040805160e560020a62461bcd02815260206004820152602c60248201527f4552433737373a2063616c6c6572206973206e6f7420616e206f70657261746f60448201527f7220666f7220686f6c6465720000000000000000000000000000000000000000606482015290519081900360840190fd5b610b183388888888888080601f01602080910402602001604051908101604052809392919081815260200183838082843760009201919091525050604080516020601f8c018190048102820181019092528a815292508a915089908190840183828082843760009201919091525060019250611a60915050565b50505050505050565b600160a060020a031660009081526001602052604090205490565b33600160a060020a0382161415610bc2576040805160e560020a62461bcd028152602060048201526024808201527f4552433737373a20617574686f72697a696e672073656c66206173206f70657260448201527f61746f7200000000000000000000000000000000000000000000000000000000606482015290519081900360840190fd5b600160a060020a03811660009081526006602052604090205460ff1615610c1357336000908152600860209081526040808320600160a060020a03851684529091529020805460ff19169055610c42565b336000908152600760209081526040808320600160a060020a03851684529091529020805460ff191660011790555b6040513390600160a060020a038316907ff4caeb2d6ca8932a215a353d0703c326ec2d81fc68170f320eb2ab49e9df61f990600090a350565b60048054604080516020601f600260001961010060018816150201909516949094049384018190048102820181019092528281526060939092909183018282801561076d5780601f106107d85761010080835404028352916020019161076d565b610d303333868686868080601f01602080910402602001604051908101604052809392919081815260200183838082843760009201829052506040805160208101909152908152925060019150611a609050565b50505050565b6000600160a060020a0383161515610dbd576040805160e560020a62461bcd028152602060048201526024808201527f4552433737373a207472616e7366657220746f20746865207a65726f2061646460448201527f7265737300000000000000000000000000000000000000000000000000000000606482015290519081900360840190fd5b6000339050610df0818286866020604051908101604052806000815250602060405190810160405280600081525061129c565b610e1e81828686602060405190810160405280600081525060206040519081016040528060008152506114ef565b6108128182868660206040519081016040528060008152506020604051908101604052806000815250600061174f565b600081600160a060020a031683600160a060020a03161480610eb95750600160a060020a03831660009081526006602052604090205460ff168015610eb95750600160a060020a0380831660009081526008602090815260408083209387168352929052205460ff16155b80610ee95750600160a060020a0380831660009081526007602090815260408083209387168352929052205460ff165b9392505050565b600160a060020a03918216600090815260096020908152604080832093909416825291909152205490565b600160a060020a038116331415610fa2576040805160e560020a62461bcd02815260206004820152602160248201527f4552433737373a207265766f6b696e672073656c66206173206f70657261746f60448201527f7200000000000000000000000000000000000000000000000000000000000000606482015290519081900360840190fd5b600160a060020a03811660009081526006602052604090205460ff1615610ff657336000908152600860209081526040808320600160a060020a03851684529091529020805460ff19166001179055611022565b336000908152600760209081526040808320600160a060020a03851684529091529020805460ff191690555b6040513390600160a060020a038316907f50546e66e5f44d728365dc3908c63bc5cfeeab470722c1677e3073a6ac294aa190600090a350565b6110653387610e4e565b15156110e1576040805160e560020a62461bcd02815260206004820152602c60248201527f4552433737373a2063616c6c6572206973206e6f7420616e206f70657261746f60448201527f7220666f7220686f6c6465720000000000000000000000000000000000000000606482015290519081900360840190fd5b61115733878787878080601f01602080910402602001604051908101604052809392919081815260200183838082843760009201919091525050604080516020601f8b018190048102820181019092528981529250899150889081908401838280828437600092019190915250611b7192505050565b505050505050565b6111af33338585858080601f016020809104026020016040519081016040528093929190818152602001838380828437600092018290525060408051602081019091529081529250611b71915050565b505050565b600160a060020a038216151561123a576040805160e560020a62461bcd02815260206004820152602360248201527f4552433737373a20617070726f766520746f20746865207a65726f206164647260448201527f6573730000000000000000000000000000000000000000000000000000000000606482015290519081900360840190fd5b600160a060020a03808416600081815260096020908152604080832094871680845294825291829020859055815185815291517f8c5be1e5ebec7d5bd14f71427d1e84f3dd0314c0f7b2291e5b200ac8c7c3b9259281900390910190a3505050565b60008054604080517faabbb8ca000000000000000000000000000000000000000000000000000000008152600160a060020a0389811660048301527f29ddb589b1fb5fc7cf394961c1adf5f8c6454761adf795e67fe149f658abe89560248301529151919092169163aabbb8ca916044808301926020929190829003018186803b15801561132957600080fd5b505afa15801561133d573d6000803e3d6000fd5b505050506040513d602081101561135357600080fd5b50519050600160a060020a03811615610b185780600160a060020a03166375ab97828888888888886040518763ffffffff1660e060020a0281526004018087600160a060020a0316600160a060020a0316815260200186600160a060020a0316600160a060020a0316815260200185600160a060020a0316600160a060020a031681526020018481526020018060200180602001838103835285818151815260200191508051906020019080838360005b8381101561141c578181015183820152602001611404565b50505050905090810190601f1680156114495780820380516001836020036101000a031916815260200191505b50838103825284518152845160209182019186019080838360005b8381101561147c578181015183820152602001611464565b50505050905090810190601f1680156114a95780820380516001836020036101000a031916815260200191505b5098505050505050505050600060405180830381600087803b1580156114ce57600080fd5b505af11580156114e2573d6000803e3d6000fd5b5050505050505050505050565b600160a060020a038516600090815260016020526040902054611518908463ffffffff6116ef16565b600160a060020a03808716600090815260016020526040808220939093559086168152205461154d908463ffffffff611dd216565b6001600086600160a060020a0316600160a060020a031681526020019081526020016000208190555083600160a060020a031685600160a060020a031687600160a060020a03167f06b541ddaa720db2b10a4d0cdac39b8d360425fc073085fac19bc82614677987868686604051808481526020018060200180602001838103835285818151815260200191508051906020019080838360005b838110156115ff5781810151838201526020016115e7565b50505050905090810190601f16801561162c5780820380516001836020036101000a031916815260200191505b50838103825284518152845160209182019186019080838360005b8381101561165f578181015183820152602001611647565b50505050905090810190601f16801561168c5780820380516001836020036101000a031916815260200191505b509550505050505060405180910390a483600160a060020a031685600160a060020a03167fddf252ad1be2c89b69c2b068fc378daa952ba7f163c4a11628f55a4df523b3ef856040518082815260200191505060405180910390a3505050505050565b600082821115611749576040805160e560020a62461bcd02815260206004820152601e60248201527f536166654d6174683a207375627472616374696f6e206f766572666c6f770000604482015290519081900360640190fd5b50900390565b60008054604080517faabbb8ca000000000000000000000000000000000000000000000000000000008152600160a060020a0389811660048301527fb281fc8c12954d22544db45de3159a39272895b169a852b314f9cc762e44c53b60248301529151919092169163aabbb8ca916044808301926020929190829003018186803b1580156117dc57600080fd5b505afa1580156117f0573d6000803e3d6000fd5b505050506040513d602081101561180657600080fd5b50519050600160a060020a0381161561199d5780600160a060020a03166223de298989898989896040518763ffffffff1660e060020a0281526004018087600160a060020a0316600160a060020a0316815260200186600160a060020a0316600160a060020a0316815260200185600160a060020a0316600160a060020a031681526020018481526020018060200180602001838103835285818151815260200191508051906020019080838360005b838110156118ce5781810151838201526020016118b6565b50505050905090810190601f1680156118fb5780820380516001836020036101000a031916815260200191505b50838103825284518152845160209182019186019080838360005b8381101561192e578181015183820152602001611916565b50505050905090810190601f16801561195b5780820380516001836020036101000a031916815260200191505b5098505050505050505050600060405180830381600087803b15801561198057600080fd5b505af1158015611994573d6000803e3d6000fd5b50505050611a56565b8115611a56576119b586600160a060020a0316611e2f565b15611a56576040805160e560020a62461bcd02815260206004820152604d60248201527f4552433737373a20746f6b656e20726563697069656e7420636f6e747261637460448201527f20686173206e6f20696d706c656d656e74657220666f7220455243373737546f60648201527f6b656e73526563697069656e7400000000000000000000000000000000000000608482015290519081900360a40190fd5b5050505050505050565b600160a060020a0386161515611ae6576040805160e560020a62461bcd02815260206004820152602260248201527f4552433737373a2073656e642066726f6d20746865207a65726f20616464726560448201527f7373000000000000000000000000000000000000000000000000000000000000606482015290519081900360840190fd5b600160a060020a0385161515611b46576040805160e560020a62461bcd02815260206004820181905260248201527f4552433737373a2073656e6420746f20746865207a65726f2061646472657373604482015290519081900360640190fd5b611b5487878787878761129c565b611b628787878787876114ef565b610b188787878787878761174f565b600160a060020a0384161515611bf7576040805160e560020a62461bcd02815260206004820152602260248201527f4552433737373a206275726e2066726f6d20746865207a65726f20616464726560448201527f7373000000000000000000000000000000000000000000000000000000000000606482015290519081900360840190fd5b611c068585600086868661129c565b600254611c19908463ffffffff6116ef16565b600255600160a060020a038416600090815260016020526040902054611c45908463ffffffff6116ef16565b6001600086600160a060020a0316600160a060020a031681526020019081526020016000208190555083600160a060020a031685600160a060020a03167fa78a9be3a7b862d26933ad85fb11d80ef66b8f972d7cbba06621d583943a4098858585604051808481526020018060200180602001838103835285818151815260200191508051906020019080838360005b83811015611ced578181015183820152602001611cd5565b50505050905090810190601f168015611d1a5780820380516001836020036101000a031916815260200191505b50838103825284518152845160209182019186019080838360005b83811015611d4d578181015183820152602001611d35565b50505050905090810190601f168015611d7a5780820380516001836020036101000a031916815260200191505b509550505050505060405180910390a3604080518481529051600091600160a060020a038716917fddf252ad1be2c89b69c2b068fc378daa952ba7f163c4a11628f55a4df523b3ef9181900360200190a35050505050565b600082820183811015610ee9576040805160e560020a62461bcd02815260206004820152601b60248201527f536166654d6174683a206164646974696f6e206f766572666c6f770000000000604482015290519081900360640190fd5b6000903b119056fea165627a7a72305820fd66078ea8275dde2e01452415e27aaad0c6bee8fc96c1e15889d0ff097eef980029",
  "source": "pragma solidity ^0.5.0;\n\nimport \"openzeppelin-solidity/contracts/token/ERC777/ERC777.sol\";\n\ncontract Zenny is ERC777 {\n    constructor(uint256 initialSupply)\n        public\n        ERC777(\"Zenny\", \"ZNY\", new address[](0))\n    {\n        _mint(msg.sender, msg.sender, initialSupply, \"\", \"\");\n    }\n}\n",
  "sourcePath": "/Volumes/Repository/Dropbox/project/thoughtfuldistractions/insertcrypto/contracts/Zenny.sol",
  "compiler": {
    "name": "solc",
    "version": "0.5.0+commit.1d4f565a.Emscripten.clang"
  },
  "schemaVersion": "3.0.11",
  "updatedAt": "2019-08-09T09:21:13.717Z",
  "devdoc": {
    "methods": {
      "allowance(address,address)": {
        "details": "See `IERC20.allowance`.     * Note that operator and allowance concepts are orthogonal: operators may not have allowance, and accounts with allowance may not be operators themselves."
      },
      "approve(address,uint256)": {
        "details": "See `IERC20.approve`.     * Note that accounts cannot have allowance issued by their operators."
      },
      "authorizeOperator(address)": {
        "details": "See `IERC777.authorizeOperator`."
      },
      "balanceOf(address)": {
        "details": "Returns the amount of tokens owned by an account (`tokenHolder`)."
      },
      "burn(uint256,bytes)": {
        "details": "See `IERC777.burn`.     * Also emits a `Transfer` event for ERC20 compatibility."
      },
      "decimals()": {
        "details": "See `ERC20Detailed.decimals`.     * Always returns 18, as per the [ERC777 EIP](https://eips.ethereum.org/EIPS/eip-777#backward-compatibility)."
      },
      "defaultOperators()": {
        "details": "See `IERC777.defaultOperators`."
      },
      "granularity()": {
        "details": "See `IERC777.granularity`.     * This implementation always returns `1`."
      },
      "isOperatorFor(address,address)": {
        "details": "See `IERC777.isOperatorFor`."
      },
      "name()": {
        "details": "See `IERC777.name`."
      },
      "operatorBurn(address,uint256,bytes,bytes)": {
        "details": "See `IERC777.operatorBurn`.     * Emits `Sent` and `Transfer` events."
      },
      "operatorSend(address,address,uint256,bytes,bytes)": {
        "details": "See `IERC777.operatorSend`.     * Emits `Sent` and `Transfer` events."
      },
      "revokeOperator(address)": {
        "details": "See `IERC777.revokeOperator`."
      },
      "send(address,uint256,bytes)": {
        "details": "See `IERC777.send`.     * Also emits a `Transfer` event for ERC20 compatibility."
      },
      "symbol()": {
        "details": "See `IERC777.symbol`."
      },
      "totalSupply()": {
        "details": "See `IERC777.totalSupply`."
      },
      "transfer(address,uint256)": {
        "details": "See `IERC20.transfer`.     * Unlike `send`, `recipient` is _not_ required to implement the `tokensReceived` interface if it is a contract.     * Also emits a `Sent` event."
      },
      "transferFrom(address,address,uint256)": {
        "details": "See `IERC20.transferFrom`.    * Note that operator and allowance concepts are orthogonal: operators cannot call `transferFrom` (unless they have allowance), and accounts with allowance cannot call `operatorSend` (unless they are operators).    * Emits `Sent` and `Transfer` events."
      }
    }
  },
  "userdoc": {
    "methods": {}
  }
}